:020000022000DC
:1060000000000420BD620200E5620200E7620200B7
:10601000E9620200EB620200ED6202000000000093
:10602000000000000000000000000000EF6202001D
:10603000F162020000000000F3620200F56202005B
:106040003D8B0200F7620200D5940200F762020065
:10605000F7620200F7620200358F0200F762020069
:10606000F7620200F7620200F7620200F7620200C4
:10607000F7620200F7620200F7620200F7620200B4
:10608000F762020095730200F7620200F7620200F5
:1060900035740200F762020039C00200F7620200A4
:1060A000F7620200F7620200F7620200F762020084
:1060B000F7620200F762020000000000000000002A
:1060C000F7620200F7620200F7620200F762020064
:1060D000F7620200F7620200F7620200F762020054
:1060E000F7620200F7620200F7620200000000009F
:1060F00000000000F762020000000000F7620200EA
:10610000000000000000000000000000000000008F
:10611000000000000000000000000000000000007F
:10612000000000000000000000000000000000006F
:10613000000000000000000000000000000000005F
:10614000000000000000000000000000000000004F
:10615000000000000000000000000000000000003F
:10616000000000000000000000000000000000002F
:10617000000000000000000000000000000000001F
:10618000000000000000000000000000000000000F
:1061900000000000000000000000000000000000FF
:1061A00000000000000000000000000000000000EF
:1061B00000000000000000000000000000000000DF
:1061C00000000000000000000000000000000000CF
:1061D00000000000000000000000000000000000BF
:1061E00000000000000000000000000000000000AF
:1061F000000000000000000000000000000000009F
:1062000010B5054C237833B9044B13B10448AFF3F0
:1062100000800123237010BDD0200020000000006A
:10622000DCD1020008B5034B1BB103490348AFF3AF
:10623000008008BD00000000D4200020DCD1020056
:10624000A3F5803A704700BF174B002B08BF134BD4
:106250009D46FFF7F5FF00218B460F461348144A71
:10626000121A06F0BDF80E4B002B00D098470D4BCC
:10627000002B00D098470020002104000D000D489D
:10628000002802D00C48AFF3008006F069F8200027
:10629000290004F011F806F04FF800BF00000800D4
:1062A000000000000000000000000420D0200020BA
:1062B000302E002000000000000000000649074AC0
:1062C000074B9B1A03DD043BC858D050FBDC02F09F
:1062D000D5F9FFF7B9FF0000DCD20200701D0020E5
:1062E000D0200020FEE7FEE7FEE7FEE7FEE7FEE740
:1062F000FEE7FEE7FEE7FEE7F0B595B000241D4699
:106300000E460846174602F093F830462346082208
:10631000099505A91A9D08970D950A948DF82C40AA
:106320000C9402F0E9F89DF814308DF81140DDE985
:10633000061003F00302012ACDE9020128D0022A47
:1063400004D0304602F078F815B0F0BDBDF8165014
:10635000C3F3C2038DF81030C5F389150827082D43
:106360002C4628BF08243B4622460EA9304602F0A0
:10637000C3F82D1B214608AB02AA0EA8274400F043
:10638000FFFD002DEBD1304602F056F815B0F0BD00
:10639000BDF81470059DC7F38312C3F3C2040EA9A0
:1063A0003046920008238DF81040C7F3831702F09F
:1063B000A3F8C5F3952508AB3A4628460EA90093E5
:1063C00002AB00F065FD304602F036F815B0F0BDC6
:1063D000014B01221A70704730210020704700BF26
:1063E00000B583B0044B0093044A4023FFF784FFB9
:1063F00003B05DF804FB00BF01640200F020002040
:1064000038B50E480E4D03780E4CEB5C0025257018
:10641000D2B253B1043003F071FD58B90A4B1B7866
:1064200013B12378002BFCD038BD0C3003F0DEFA1A
:106430000028F3D000F066FFF0E700BF701D0020D9
:106440002C2E002030210020EC2000202DE970436C
:1064500019481A4A0378D35C88B02BB3043003F090
:10646000CBFC174D0FCD6C460FC495E80F004FF0D5
:10647000EB7684E80F004FF006084FF0FF394FF03D
:10648000FF344FF0FF350C48069600226946CDE9EF
:106490000089CDE9024502F0E3FA48B9094B002230
:1064A0001A7008B0BDE870830C3003F021FAD8E709
:1064B00000F028FFF2E700BF701D00202C2E002006
:1064C00030C40200EC200020F0B5154D0FCD89B08E
:1064D0006C460FC495E80F004FF0EB7C84E80F008A
:1064E00006264FF0FF374FF0FF344FF0FF350D4ACF
:1064F0000D48CDF818C06946CDE90067CDE90245E1
:1065000002F0AEFA20B9094B01221A7009B0F0BDB1
:1065100000F0F8FE054B01221A7009B0F0BD00BF73
:1065200030C40200D1630200701D0020EC20002066
:1065300008B5FFF7C9FF0448042100F025FC034B10
:1065400001225A7108BD00BFC4D20200841D002080
:1065500038B50C4B0C48002400250022C3E9004547
:10656000FF21C3F81824996083F82024C3F8142469
:1065700001F012FF044610B9044802F033F8204637
:1065800038BD00BF0822002098D2020088C4020053
:1065900099B10E4B0E495B1ADB0815D030B40022BE
:1065A0000C4D02E0013293420BD035F82240844278
:1065B000F8D151F8320030BC7047054951F830002D
:1065C0007047002030BC70471846704798D20200D0
:1065D00020D20200CC200020094B013903EBC0007F
:1065E00003290BD8DFE801F00402080604207047F5
:1065F000022070474079704700797047002070474B
:1066000020D202002DE9F047954CD4E900239A42AC
:1066100084B063D00023C4F81834BFF34F8FD4E99B
:10662000013503EA0501CA1C04EB820614F8222096
:10663000500719D52768327802F00302012A43D0A7
:10664000022A03D17288023303EB921305EA030195
:10665000D4F81804CA1C04EB820628B99F4239D921
:1066600014F822205207E6D404EB81015A1CC968B1
:1066700001912A4004EB820201F00301D2680292E8
:10668000022903F102062DD0012900F09580D4F8EB
:1066900010543DB12B6828469B689847EB681D68ED
:1066A000002DF7D16F48704B7049C01AC008000424
:1066B00040F0020000F0E0F8D4E90030C01A18BF42
:1066C000012004B0BDE8F08732880233C2F38312A0
:1066D0001344BBE7676004B0BDE8F087002004B056
:1066E000BDE8F087BDF806306148C3F38919B9F1F8
:1066F000500FC84628BF4FF0500868F38F1308F1B9
:106700000801ADF8063001F049FE07460028BED06A
:1067100001F08EFE0023082201A9384601F0B8FEE0
:1067200025EA06030133B8EB830F4FEA830A7DD9CC
:10673000BAF1000F00F08D8005EA06010331A8EBE5
:106740000A0804EB81010823524638465FFA88F8AC
:1067500001F09EFE474942460AF10803384601F01F
:1067600097FE09F1030906EB9906D4F81834002BBB
:106770006BD1D4F8105465B1EB685A792846394684
:10678000002A5ED02B681B689847EB681D68002DB7
:10679000F2D1384601F050FE00230DF103008DF8D0
:1067A000033001F02FF9D4F8183403B966609DF86E
:1067B000030001F04DF97FE7BDF804302C48C3F326
:1067C0008312062A28BF0622911C62F389138900CE
:1067D000ADF8043001F0E2FD074600283FF457AF62
:1067E00001F026FE0023082201A9384601F050FEE0
:1067F000BDF8043013F4707FB7D04FF00008314675
:1068000029404FEA88030331083304EB8101042255
:10681000384601F03DFEBDF8043008F10108C3F32D
:106820008313434506F10106E9D89EE705EA060110
:10683000033104EB810142460823384601F028FE6B
:106840008FE71D68002D97D1A3E7384601F0F4FDCE
:1068500032E7084942460823384601F019FE80E72E
:106860000822002048D2020020D2020070C4020098
:1068700098D20200142200202DE9F04F644C87B01A
:10688000002306460DF10B008DF80B30A568019131
:1068900001F0B8F8D4E9012327681A440132D21B69
:1068A000012A00F2858004F21C4804F5836A04F290
:1068B00014491BE0BDF80E30C3F389130333090CF0
:1068C0000BEB930B4846009101F04EF9009900281C
:1068D0003ED04046C4F804B001F01AF9D4E90113DF
:1068E000226819440131891A012962D801214046E0
:1068F00001F00EF9504601F027F9484601F024F95D
:10690000D4E9013C03EA0C02D11C04EB810014F829
:1069100021E01EF0040F0EF0040129D104EB8202E5
:10692000591CD268039201EA0C0104EB810102F0C8
:106930000302012AC96803F1020B32D0022AB9D03E
:1069400000214846009101F00FF900990028C0D1BC
:106950004046C1E743880BEB93130CEA0302D11CBA
:1069600004EB810014F8211001F004010029D5D0B6
:1069700090F800E00EF0030EBEF1010F0BD0BEF157
:10698000020F03F1020B02F1030EE3D004EB8E00C1
:106990000029EDD1C2E702880233C2F38312134407
:1069A000DBE7BDF80C30C3F38313090C9B4489E784
:1069B0003A4613400333023205219DF80B0044F898
:1069C0002310226001F044F80021124801F076F80B
:1069D00080F31000F1007B1C2B40019A01F038017C
:1069E0003D4004EB830341F001010004033540EA1C
:1069F000164641EA8221DE6044F8251094F82034DE
:106A00001BB1FFF7FFFD0028FBD107B0BDE8F08FF9
:106A100008220020242600202DE9F04F684C89B080
:106A2000002307460DF11300CDE902128DF8133053
:106A3000A56800F0E7FFD4E9012326681A44013273
:106A4000921B022A00F2858004F21C4804F5836A36
:106A500004F214491BE0BDF81630C3F38913033365
:106A6000090C0BEB930B4846019101F07DF801995D
:106A700000283ED04046C4F804B001F049F8D4E9FB
:106A80000113226819440131891A022962D80121AF
:106A9000404601F03DF8504601F056F8484601F0F6
:106AA00053F8D4E9013C03EA0C02D11C04EB810049
:106AB00014F821E01EF0040F0EF0040129D104EBBC
:106AC0008202591CD268059201EA0C0104EB810193
:106AD00002F00302012AC96803F1020B32D0022A34
:106AE000B9D000214846019101F03EF801990028F3
:106AF000C0D14046C1E743880BEB93130CEA030275
:106B0000D11C04EB810014F8211001F004010029CC
:106B1000D5D090F800E00EF0030EBEF1010F0BD0BF
:106B2000BEF1020F03F1020B02F1030EE3D004EBFE
:106B30008E000029EDD1C2E702880233C2F383122E
:106B40001344DBE7BDF81430C3F38313090C9B44F3
:106B500089E7324613400333033245219DF8130081
:106B600044F82310226000F073FFB31C2B4004EBA9
:106B70008303039A1348DA60002100F09FFF80F33B
:106B80001000F900731C2B40029A01F038013540C7
:106B900004EB830341F041010004033540EA174749
:106BA00041EA8221DF6044F8251094F820341BB1BB
:106BB000FFF728FD0028FBD109B0BDE8F08F00BF2A
:106BC00008220020242600202DE9F04F6C4C89B0CB
:106BD000002607460DF11300CDE9011203938DF84D
:106BE0001360A56800F00EFFD4E9012326681A445B
:106BF0000132921B032A00F2858004F21C4804F53E
:106C0000836A04F214491BE0BDF81630C3F38913FC
:106C10000333090C0BEB930B4846009100F0A4FFE3
:106C2000009900283ED04046C4F804B000F070FF40
:106C3000D4E90113226819440131891A032962D861
:106C40000121404600F064FF504600F07DFF4846B9
:106C500000F07AFFD4E9013C03EA0C02D11C04EBFA
:106C6000810014F821E01EF0040F0EF0040129D178
:106C700004EB8202591CD268059201EA0C0104EB74
:106C8000810102F00302012AC96803F1020B32D02C
:106C9000022AB9D000214846009100F065FF009912
:106CA0000028C0D14046C1E743880BEB93130CEAA0
:106CB0000302D11C04EB810014F8211001F004013F
:106CC0000029D5D090F800E00EF0030EBEF1010FC0
:106CD0000BD0BEF1020F03F1020B02F1030EE3D061
:106CE00004EB8E000029EDD1C2E702880233C2F323
:106CF00083121344DBE7BDF81430C3F38313090C8C
:106D00009B4489E7324613400333043285219DF8C2
:106D1000130044F82310226000F09AFEB21C2A40AF
:106D2000F31C2B4004EB820204EB830C029BD36028
:106D30000021039B1348CCF80C3000F0BFFE80F319
:106D40001000F900731C2B40019A01F03801354006
:106D500004EB830341F081010004033540EA174747
:106D600041EA8221DF6044F8251094F820341BB1F9
:106D7000FFF748FC0028FBD109B0BDE8F08F00BF49
:106D8000082200202426002030B4154DD5F8101418
:106D90000446002071B10B4601E01B6853B1DB686B
:106DA0001A798242F9D101300A28F3D14FF0FF302D
:106DB00030BC7047E3681871D5F810344BB1DA680D
:106DC000E36812681A60D5F81034DB681C6030BCC8
:106DD0007047C5F81044E268136030BC704700BFCC
:106DE0000822002038B5094BD3F81044012583F858
:106DF00020544CB1E3685D71236820465B68984776
:106E0000E3681C68002CF5D138BD00BF08220020C3
:106E100030B5C38885B004460D461BBB217A0529D1
:106E20001ED0627A82B9134AA08852F821200392B8
:106E30000021FFF7ADFB039A0F490346284605B032
:106E4000BDE8304000F00CBFA088FFF7C5FB0B4B3E
:106E50000B4953F82020284600F002FF217AE2E790
:106E600005B030BD074A00920749084A284600F09D
:106E7000F7FED3E760C50200C0C402003CC50200B3
:106E8000BCC40200B4C402009CC4020094C402004A
:106E90002DE9F04385B04FF0000C0C9C814694F82E
:106EA0000C8084F80CC00E461746184621461D4635
:106EB000FFF7AEFF062F09D8DFE807F0042E343BBA
:106EC000444F1F004946204600F0CAFE2B7A052B8E
:106ED00005D06B7A5BB92749204600F0C1FE2046F9
:106EE00000F0B2FE84F80C8005B0BDE8F083224AC1
:106EF0002249204600F0B4FEEDE7D6E90413F2681B
:106F00000393B3680291CDE900324946D6E90023E4
:106F1000204600F0A5FED9E732684946204600F039
:106F20009FFED3E7D6E900234946204600F098FEAD
:106F3000CCE7B3680093D6E900234946204600F029
:106F40008FFEC3E7D6E9023201920093D6E900230F
:106F50004946204600F084FEB8E7D6E90321B3682D
:106F60000291CDE900324946D6E90023204600F0DF
:106F700077FEABE7CCC40200B4C40200BCC402007C
:106F8000082900D970472DE9F04F9B4683B00024B3
:106F90001B7B8BF80C400D46064659461046904622
:106FA0000193DFF8D0902C4FFFF732FF05E0325D00
:106FB000013400F055FE082C09D0A5423946584648
:106FC000F5D84946013400F04BFE082CF5D1234991
:106FD000DFF8A490224C234F584600F041FE4FF0BA
:106FE000000A0DE0D15D11F0970F08BF2E22214657
:106FF00058460AF1010A00F033FEBAF1080F10D02A
:10700000554505D916F80A207E2AEBD92E22EEE73F
:10701000494658460AF1010A00F022FEBAF1080F6B
:10702000EED198F80830052B02D098F8093063B9F2
:107030000D49584600F014FE584600F005FE019B2D
:107040008BF80C3003B0BDE8F08F084A0849584669
:1070500000F006FEECE700BFD0C40200DCC4020072
:10706000E0C40200D5D00200CCC40200B4C40200C7
:10707000BCC40200D8C40200C8C402002DE9F04F0D
:107080003D4B93F800E087B0BEF1000F5FD00027C2
:10709000DFF8F08002973C46012506E0029B0133B1
:1070A00002939DF80840A64551D9344BD8F80010FA
:1070B0001E68D8F8042016F83400A0F1200BC0F1A7
:1070C000200305FA0BFB25FA03F34BEA030305FA49
:1070D00000FC01EA0C0902EA030A06EBC40759EABC
:1070E0000A0B0397DAD021EA0C0122EA0303C8E96C
:1070F000001301F00FFF16F83430214AC3F1200CC1
:10710000D2E90067A3F1200E614600FA0EF405FAF9
:107110000EF225FA01F105FA03FE20FA0CFC0A43EF
:107120000EEA060144EA0C0404913A4000FA03F125
:10713000009101940592DDE90412DDE900BC62458D
:1071400008BF594506D00C4B93F800E0A6E707B0FE
:10715000BDE8F08F03994A68002AF4D04978A1F17C
:107160000101B1FA81F14909091AB1FA81F149091C
:1071700018469047E7E700BFC426002000270020FC
:10718000F0260020F82600202DE9F843804622480A
:1071900000F0FCFBE0B9214D4FF0010CD5E90023D4
:1071A000A8F12004C8F120012CFA01F10CFA04F432
:1071B0000C430CFA08F902EA090603EA040756EA46
:1071C000070107D022EA090223EA0404C5E90024E2
:1071D000BDE8F883404601F09DFE114B1E68A8B93A
:1071E000586826EA090620EA0400D5E900211E6055
:1071F0000C4E586042EA09020C432A6031686C6008
:107200000548BDE8F843002200F06ABB586849EA27
:1072100006062043E9E700BFCC260020F826002020
:10722000F0260020C8260020042A3BD92DE9F04191
:1072300082B0144605460E4601F004FD68B31E49AF
:107240001E4A1F4B0D601F481F491C60167000230B
:107250000022741EC0E90023C1E90023E4B21EB37A
:10726000DFF8708005EBC4040027032602E0AC427F
:107270001AD01C46A37820788DF80530424601A923
:107280008DF806708DF8046001F0E6FCA4F10803A7
:107290000028ECD002B0BDE8F08101F085FC0028A8
:1072A000CDD0F7E707207047084A0948002100F0D1
:1072B00005FB02B0BDE8F08100270020C4260020B5
:1072C000C8260020F0260020F82600207D7002004D
:1072D00074C502008971020070B5084D2B785BB14E
:1072E000074E00243368012113F8340001F0A6FD95
:1072F0002B780134A342F5D8002070BDC4260020AD
:107300000027002000B585B00346002101AA44F201
:107310000100CDE90111039300F004F805B05DF818
:1073200004FB00BF10B572B6FFF75CFDFFF76AF90A
:107330000028FBD1104B114C1149E41AE408240435
:1073400044F00100FFF798FA0E4B1B68DB0700D5ED
:1073500000BE0D4944F00200FFF78EFABFF34F8FD5
:107360000A490B4BCA6802F4E0621343CB60BFF3D7
:107370004F8F00BFFDE700BF20D2020048D20200BD
:1073800078C50200F0ED00E084C5020000ED00E0E9
:107390000400FA05F8B52049204B0024C1F840410B
:1073A000C1F84441C1F84841C1F84C41C1F800411D
:1073B000C1F804411B6833B31948D1F8045501687A
:1073C0001A686D1A25F07F45AA4227460DD8197C08
:1073D000DE69AD1A144419B1D3E905201F74904732
:1073E0001EB133461A68AA42F1D90E490E4A0B78EB
:1073F00012789A4208D00D490D4A41F823404FF4C3
:107400008013C2F80031F8BD531CDBB2022B08BF59
:1074100000230B70EFE700BF00100140242800207C
:10742000202800201D2800201C28002014280020CF
:1074300000E100E02DE9F04FB34AB4491378097830
:10744000994285B000F088810133DBB2022B08BF7E
:107450000023AF481370AF4A0568DFF8D08252F8B6
:107460002310D8F800606B1823F07F430360002ED0
:1074700000F0C18100200746044684463346AE46EC
:1074800013E0D868DD69C3F800C0891A144438B124
:107490000EEB040222F07F42C3E90120DF611F46A8
:1074A0000120002D00F05F812B461A688A42E8D93E
:1074B000002800F08B81C8F800309946521A1A60F3
:1074C00001230093944B954EDFF864A243F001032F
:1074D00001934D464FF0000B002F31D0D7E901301A
:1074E0003C46FF698A4ADFF84CC21268991A21F0BB
:1074F0007F41614500F2DD800B18236000220121ED
:10750000C4E90122E2612174002D00F0F3802A68B1
:107510009A4280F0E880294605E0D1F800E09E45D7
:1075200080F0CF8072460846C9699C469B1A0029A4
:10753000F3D12360E161C4612C462546002FCDD1F3
:1075400070783378984247D09C460CEB4C0CB2785C
:1075500006EBCC0C591CCBB29A429CF80420337039
:1075600004BF00233370022ADCF8084024D0032A29
:1075700018D0012AE6D1227C002AE3D1DCF80C30B5
:107580006360DCF81000A060DCF81410E1609AF889
:1075900000E0DCF81810A161BEF1000FA2D062601B
:1075A00013469FE7002DCDD000232B74ED69002DED
:1075B000FBD1C8F80050C3E755B1AC4200F0BC8025
:1075C0002A4601E0944239D01146D269002AF9D105
:1075D000002222749842B7D1BBF1000F01D1A94516
:1075E00041D0002D44D04A4A4D4B1468D3F804656D
:1075F0004C4FD5F800803A78351B25F07F45033590
:10760000002A00F0B580464AA8452CBF44446419BE
:1076100024F07F44C2F84045D2F804359B1BA41BDC
:1076200023F07F4324F07F440333A34200F2B98068
:1076300000238AF8003005B0BDE8F08F8C427DD081
:10764000E0692268C861002858D0AC46036813443A
:107650000360AC4552D000223378707822746546BE
:107660004FF0010BB6E7009B002BE1D0002DBAD103
:107670002B4E2D4A284C4FF400314FF48033012714
:10768000C2F880103C43C6F848334FF43C60C6F85B
:1076900008337760A0471E4BB7604FF43C601D6015
:1076A000A047204B1D7000238AF8003005B0BDE8CC
:1076B000F08FD31A23F07F4383420BD2C31A236087
:1076C0001CE77244A2EB0C020A602360E161C46112
:1076D0002C4632E700230122C4E90033A360E361B2
:1076E00022743DB12A68C8F80040D31A2B60E561C6
:1076F000254623E7C8F8004025461FE700223378D7
:107700007078227466E700BF1C2800201D28002026
:107710002028002014280020A0C5020004270020F3
:10772000001001401128002000E100E02428002082
:1077300010280020FEFF7F0029462A46D5F81CC0ED
:10774000C8F800C0BCF1000F42D0D0691268C8610F
:1077500000287FF47BAF7CE7DFF8B4800027D8F8FF
:1077600000900097AEE6A946C8F800500090A9E640
:107770002349244A4FF48030C3F844034FF00109F1
:10778000C3F804034FF40030C1F8800142F0010255
:107790000860C3F800904FF43C60904787F8009071
:1077A00031E7184BD2F80415C2F8401543F0010335
:1077B0004FF43C609847124B4FF40032C3F800215D
:1077C00000238AF8003005B0BDE8F08FB14675E6B9
:1077D000CDE902210C4A0D4801239360C0F800C096
:1077E0008AF800304FF43C60019B9847DDE90221A4
:1077F000D8F800C0A9E70123B1463746009361E6F7
:1078000000E100E0A0C50200001001402028002097
:10781000242800202DE9F8431F4D204E204FDFF88B
:1078200098804FF480334FF400324FF00109002468
:10783000C6F8802047EA0907C5F848334FF43C6092
:10784000C5F80833C5F80490B847C5F808904FF458
:107850003C60C8F80040B847124A134B13491C60FB
:107860001470134B134A0C700B2114701C80997008
:107870004FF48012C023C6F8802186F8143332609A
:10788000C5F8084586F81133D5F80435C8F8003036
:107890002046BDE8F88300BF0010014000E100E091
:1078A000A0C5020011280020242800201C28002048
:1078B000042700201D28002020280020074B9B784B
:1078C0003BB142B138B10368187C10B959745A61A0
:1078D0007047082070470720704700BF042700202A
:1078E0002DE9F043264EB37883B0002B3AD00446FE
:1078F000002837D004290D4638D9436993B3437C17
:107900000027012B0DF107000CBF8846B8469146B1
:107910008DF8077000F076F87378B0783278591CDB
:10792000C9B2884208BF39468A4223D003EB4303D9
:1079300006EBC3030120134A18719C60D2F804259A
:107940009DF807007170C3E90325C3E9058900F0BC
:107950007FF80D4B4FF480123846C3F8002103B076
:10796000BDE8F083082003B0BDE8F083072003B032
:10797000BDE8F0839DF8070000F06AF80420EEE708
:10798000042700200010014000E100E070B51B4E0C
:10799000B37882B04BB3044638B343692BB30025A8
:1079A00005740DF107008DF8075000F02BF873787F
:1079B000B07831785A1CD2B2904208BF2A46914220
:1079C00016D003EB430306EBC30302219DF8070027
:1079D0009C601971727000F03BF8094B4FF48012F3
:1079E0002846C3F8002102B070BD082002B070BD67
:1079F0009DF8070000F02CF80420F4E7042700208D
:107A000000E100E070B4EFF3108472B60D4B9A6899
:107A1000AAB90D490D4E01259D60D1F88050354021
:107A20001D60C1F88060D1F884505D604FF0FF3375
:107A3000C1F88430027004B962B670BC704701238B
:107A40000370F8E7202E002000E100E0FC06FFBDF7
:107A5000094B9A687AB170B910B4EFF3108172B61D
:107A6000064A1C6814605C685460986001B962B68C
:107A70005DF8044B70477047202E002000E100E0C5
:107A80004A09012301F01F0100EB820003FA01F112
:107A900000F022B801F01F0201234909934000EBD6
:107AA0008100D94300F026B84B0901F01F0150F8BE
:107AB0002300C84000F00100704700BF10B4034627
:107AC00053E8000F0A4643E8002494F0000FF7D172
:107AD0005DF8044B704700BF10B4034653E8002F15
:107AE00042EA010043E8000494F0000FF6D15DF88B
:107AF000044B704710B4034653E8002F02EA01001C
:107B000043E8000494F0000FF6D15DF8044B704791
:107B100010B4034653E8002F02EB010043E80004D1
:107B200094F0000FF6D15DF8044B704710B4034693
:107B300053E8002FA2EB010043E8000494F0000F8B
:107B4000F6D15DF8044B704710B40346012253E8A8
:107B5000001F41EA020043E8000494F0000FF6D150
:107B60005DF8044B704700BF10B40346002253E891
:107B7000000F00EA020143E8001494F0000FF6D170
:107B80005DF8044B704700BFB8B130B4D0E90112C2
:107B9000521A0468D2B2531E2160DBB242B10168AE
:107BA0000A685C1E551C0D601370E3B2FF2BF6D102
:107BB00003680020187130BC70470E20704700BF6A
:107BC000F0B583B0044600250DF107008DF807508D
:107BD000FFF718FFD4E900311A688A4210D9511E04
:107BE00019602168A3680F6812F8015C0A79268A77
:107BF000E068DB1BDBB29A4206FB050538BF0B7160
:107C00009DF80700FFF724FF284603B0F0BD00BF32
:107C100030B5054683B000230DF107000C468DF802
:107C20000730FFF7EFFE2A681368591C1160E968F6
:107C30002A8A641AB4FBF2F41C709DF80700FFF75F
:107C400007FF03B030BD00BF826842B110B50446E3
:107C500043690168006998470023A36010BD70471D
:107C60000EB400B582B0039921B104AB01AA01930F
:107C700000F0ACF802B05DF804EB03B0704700BF51
:107C80002DE9F04F164683B0B142DDE90C920F4664
:107C900005469A46C0F095800B464FF00108B3FBAD
:107CA000F6F39E4208F10108F9D9D04538BFD04615
:107CB00012F00103019302D1B9F1000F5ED1AA685D
:107CC000012403E00AF1FF3A06FB04F4BAF1010FC4
:107CD000F8D8B7FBF4F39E42F6D9DFF8ECA007E042
:107CE000B442B4FBF6F31AD3AA681C46B7FBF3F30D
:107CF0001AF803B0BBF10A0F04FB137728D02B68E6
:107D0000511CA96003F802B0D5E901329A42E7D3C9
:107D10002846FFF799FFB4FBF6F3B442E4D2019B87
:107D20009BB1B9F1000F10D02024C84509F1FF39EB
:107D30000BD2AB682A68591CA960D454D5E901322A
:107D40009A4214D2B9F1000FEFD103B0BDE8F08F21
:107D5000511C2B68A9604FF00D019954D5E90132EF
:107D60009A42CCD32846FFF76FFFAA68C7E7284698
:107D7000FFF76AFFB9F1000FD7D1E6E793071AD4EE
:107D80002024AA68C84502F1010199D22B68A96094
:107D90009C54D5E901329A4209F1FF3903D2B9F175
:107DA000000FEFD18CE72846FFF74EFFAA68B9F124
:107DB000000FE7D184E7BAF1000F0CBF3024202474
:107DC000DFE74FF0010870E7A8C50200002900F0C6
:107DD00054822DE9F04FDFF8B8950C7885B006464F
:107DE00090460D464FF00D0A10E00A2CB36800F0E3
:107DF000AD803268591CB160D454D6E901329A4240
:107E000080F0A0802C78002C00F087800135002CB9
:107E100000F08380252CE8D1294600270D4611F873
:107E2000012B2D2A00F08880302A00F088802B2A30
:107E30007AD02A2A00F09980A2F13003092B4FF062
:107E400000040BD804EB840402EB440415F8012F62
:107E5000A2F13003092BA4F13004F3D92E2A00F04B
:107E60009080002301E015F8012F02F0FB01682942
:107E7000F9D0252A00F07781583AD1B2202947D885
:107E8000202A45D8DFE812F03501440044004400C0
:107E900044004400440044004400440044004301C2
:107EA0001301440044004400440013014400440012
:107EB0004400440044004400D20044004400A200B6
:107EC00044009400440044003501012098420246D9
:107ED00038BF1A460292002C40F05081B80740F19A
:107EE0006E81002B40F04E821C46BBF1000FC0F2A9
:107EF0000A827A0700F11A8207F00302022A00F0D0
:107F0000EA81CDE9004759460A223046FFF7B8FE1C
:107F100001352C78002C7FF479AF337B002B40F0B7
:107F20001C8105B0BDE8F08F0D4611F8012B2D2AFC
:107F300047F004077FF478AF47F001076EE747F09A
:107F400002076BE73046FFF77FFE5BE73268591C9C
:107F5000B16002F803A0D6E901239342FFF449AFD0
:107F60003046FFF771FEB36843E7D8F800301A1DBA
:107F7000C8F800206A781C682E2A05F101057FF4F4
:107F800070AF6A78A2F13003092B05F101054FF0BB
:107F900000033FF66AAF03EB830302EB430315F8DC
:107FA000012FA2F130010929A3F13003F3D95CE7D5
:107FB000D8F80020111DC8F8001011683046CDE92E
:107FC00000470A22FFF75CFE0135A2E7D8F800302F
:107FD0001A1DC8F8002017F00107D3F800B040F0D0
:107FE000F080BBF1000F03D0584604F00BFA0746AF
:107FF000BC4240F24381002C00F04081202205E089
:10800000BC4200F03B81002C00F03881B16833683D
:10801000481CB0605A54D6E90130984204F1FF344C
:10802000EED33046FFF710FE2022E9E7D8F8002013
:10803000131DC8F80030B36831681768581C302227
:10804000B060CA54D6E90123934280F0EF803268D1
:10805000581C7821B060D154D6E901329A4280F0A0
:10806000E0800F2F03D93B461B090F2BFCD84FF0A4
:10807000805406E00F2C4FEA14137FF649AFB26824
:108080001C46B7FBF4F319F803B0BBF10A0F04FB6D
:10809000137754D03368511CB16003F802B0D6E9AD
:1080A00001329A42E6D33046FFF7CEFDE2E7D8F838
:1080B0000020111DC8F80010D2F800B08BEAEB7256
:1080C000A2EBEB72092A7FF700AFDFF8C8C20120EC
:1080D00011466329ACFB02E200F101004FEAD20233
:1080E000F6DC9842024638BF1A460292002C45D16F
:1080F000F4E6D8F80020111DC8F8001011683046C9
:10810000CDE900471022FFF7BBFD013501E7D8F8A4
:1081100000301A1DC8F800201C78B3680A2C00F043
:1081200011813268591CB160D454D6E901329A42A7
:10813000FFF4EEAE3046FFF787FD0135E9E6336820
:10814000511CB16003F802A0D6E901329A42A1D3D2
:108150003046FFF779FDB2689CE7304605B0BDE8D0
:10816000F04FFFF771BDB3683168581CB060CA5456
:10817000D6E901329A42DDD20135CAE6BBF1000FE1
:1081800059DB7A0757D4B80702D5002B3FF4ADAEC0
:10819000F9073FF5AAAE94B120220299A142BFF49B
:1081A000A4AEB168481CB06030684254D6E9010101
:1081B000814204F1FF3480F0D480002CEDD1002402
:1081C00093E69BF80030002B00F0E080B0685F463B
:1081D000CBF101020A2B02EB070B3CD0411CB16032
:1081E00031680B54D6E90130984226D217F8013F86
:1081F000002BEFD15C457FF68BAE202702E05C457B
:108200003FF486AEB2683368511CB1609F54D6E922
:1082100001329A4204F1FF34F1D33046FFF714FDE6
:10822000EDE73046FFF710FDB2681AE73046FFF77A
:108230000BFDB3680BE7013CA5E730460292FFF760
:1082400003FD17F8013F002BD4D0029AB0680A2B27
:1082500002EB070BC2D1411CB160316801F800A0EC
:10826000D6E901108842B9D33046CDE90232FFF792
:10827000EBFCDDE90232B068B0E770479BF80040E4
:10828000002C3FF445AE0A2CB0680ED03368421C77
:10829000B2601C54D6E90130984214D21BF8014F49
:1082A000002C3FF435AE0A2CF0D13368421CB2608A
:1082B00003F800A0D6E901309842E7D33046FFF733
:1082C000C3FCB068E2E73046FFF7BEFC1BF8014F85
:1082D000002CD8D11CE6002B7FF413AE8CB13022D9
:1082E0000299A142BFF40DAEB168481CB06030687D
:1082F0004254D6E90101814204F1FF343BD2002C03
:10830000EED10024FDE5B1684A1CB26032682D2030
:108310005054D6E901219142CBF1000BFFF4ECADB2
:1083200030460393FFF790FC039BE5E5B1684A1CD8
:10833000B26032682B205054D6E901219142FFF4FB
:10834000DBADEDE73268591CB16002F803A0D6E955
:1083500001239342FFF4E5AE3046FFF775FCB368A6
:10836000DFE630460393FFF76FFC039B2022002CCF
:108370007FF413AF23E730460393FFF765FC039BBD
:108380003022BCE7F9073FF5B0AD18E79B4631E76F
:10839000A8C50200CDCCCCCCFFF7F6BB2DE9F0414F
:1083A000058A0331043D4E198046B6FBF5F6FFF70A
:1083B00007FCA0B3F6B24FF48073013E0446C580BB
:1083C000C0F8008083802BD00346002508E0627946
:1083D000AE4202F1010262713860C0F800801FD025
:1083E00040461F46FFF7ECFB013503460028EED15F
:1083F0006779791E17D02246013399421268FBD162
:10840000D2F800805FB12668002501E03446366866
:10841000214601354046FFF7FBFBAF42F6D800246A
:108420002046BDE8F08120682146FFF7F1FBF6E722
:1084300004300121FFF76CBB2DE9F0410121044616
:108440000430FFF773FB10F0FF0301D0BDE8F081AB
:108450006779791E16D02246013399421268FBD102
:10846000D2F80080002FF1D02668002501E03446C4
:108470003668214601354046FFF7CAFBAF42F6D8C1
:10848000BDE8F08120682146BDE8F041FFF7C0BBA0
:108490002DE9F8430546C6884079144606FB00F2EC
:1084A000043A04EB030C1F1D624538BFD41ABE42C8
:1084B0008846B7FBF6F106FB117002D801392D682A
:1084C000FCD1371AA74228BF27469CB14FF00009BC
:1084D0000430E41B28443A4608EB090103F072FF1C
:1084E000A642B9442D6837464FF0000028BF274602
:1084F000002CEDD1BDE8F8832DE9F8430546C68888
:108500004079144606FB00F2043A04EB030C1F1DED
:10851000624538BFD41ABE428846B7FBF6F106FB67
:10852000117002D801392D68FCD1371AA74228BF33
:1085300027469CB14FF0000904302918E41B3A4645
:1085400008EB090003F03EFFA642B9442D68374608
:108550004FF0000028BF2746002CEDD1BDE8F8837E
:1085600041DF7047064A074B10B5002414701C60A9
:10857000BFF35F8F0449054800F042F8204610BD64
:108580003028002034280020C4C5020028280020FC
:1085900000B583B000230DF107008DF80730FFF719
:1085A00031FAF1EE103A23F09F03E1EE103ABFF3F7
:1085B0005F8F0B4B4022C3F884219DF80700FFF723
:1085C00047FA03F033FD28B920BF40BF20BF03B0F6
:1085D0005DF804FBFFF7C4FF03B05DF804FB00BFC8
:1085E00000E100E082680023936082681361826882
:1085F00053618268D36082685360826813607047F9
:1086000001600B6843604A68934204BF00234360E3
:10861000704700BF436843B1026891680B444360F0
:108620005268934204BF002343607047114910B45D
:10863000A1F5947205E052F83330984238BF2146D4
:108640000CD28C1AE30F03EBE4035B10914202EBB4
:10865000C304F0D808485DF8044B704702D904F110
:108660000802EEE76068044B5DF8044B002808BF81
:1086700018467047F8CA0200BCC9020010B44FF097
:1086800080414FF080520020C1F80C015E4BC1F8D0
:108690001001C1F83805D2F80414C3F82015D2F837
:1086A0000814C3F82415D2F80C14C3F82815D2F80E
:1086B0001014C3F82C15D2F81414C3F83015D2F8DE
:1086C0001814C3F83415D2F81C14C3F84015D2F8A6
:1086D0002014C3F84415D2F82414C3F84815D2F86E
:1086E0002814C3F84C15D2F82C14C3F85015D2F83E
:1086F0003014C3F85415D2F83414C3F86015D2F806
:108700003814C3F86415D2F83C04C3F86805D2F8ED
:1087100040043E49C3F86C050968D2F84424C3F804
:108720007025082924D04FF08043D3F80024D207C5
:1087300044BF6FF00102C3F80024354AD2F88830F4
:1087400043F47003C2F88830BFF34F8FBFF36F8FCD
:108750004FF01023D3F80022002A23DBD3F8043291
:10876000002B1FDB2B4B2C4A1A605DF8044B704723
:108770002A4B1B68002BD6D129482A4A2A4C046070
:108780002A492B4BFB20C2F818050A681B682948A8
:1087900022F00F0203F00F0313434FF400720B603B
:1087A0000260C0E7244A0123C2F80435D2F800343D
:1087B000002BFBD04FF0102312211F4AC3F80012E8
:1087C000D2F80034002BFBD04FF0102312211A4AAC
:1087D000C3F80412D2F80034002BFBD00023164952
:1087E000C2F80435D1F80034002BFBD0BFF34F8F13
:1087F0000749124BCA6802F4E0621343CB60BFF32F
:108800004F8F00BFFDE700BF00C0004030010010E7
:1088100000ED00E08C1D00200090D003340100101A
:108820008C56004000F0004048810300E40E0040F8
:10883000580200104096024000E001400400FA0592
:10884000064B1A5C1F2A86BF054902F01F024FF033
:10885000A04101239340C1F80C357047F8CA0200CB
:1088600000030050064B1A5C1F2A86BF054902F020
:108870001F024FF0A04101239340C1F80835704713
:10888000F8CA020000030050C20730B40ED48307B8
:108890000AD54FF0A0430C22C3F82C27C3F8302789
:1088A000C3F86027C3F8642730BC70474FF0A0437B
:1088B0000322C3F834274FF40055C3F838274FF488
:1088C0008044C3F83C274FF40041C3F840274FF4DD
:1088D0008032C3F80855C3F80845C3F80815C3F833
:1088E0000825D4E710B568B90E4CA3680122627060
:1088F0003BB1D3E900230020A2609847A368002B76
:10890000F7D110BD0128FCD1064C2369A070002BC3
:10891000F7D0D3E900230120226198472369002B77
:10892000F7D110BD3828002070B910B5074CA368E6
:10893000012262703BB1D3E900230020A260984776
:10894000A368002BF7D110BD704700BF3828002066
:1089500030B5012883B004D003281DD0B0B103B0D6
:1089600030BD224C00230DF107008DF80730FFF7D2
:1089700049F823784BB3E3689DF8070001330122DF
:10898000E360A270FFF764F803B030BD184B01221A
:10899000C3F8802003B030BD144C00F0B1F80023C0
:1089A0000DF107008DF80730FFF72CF8E368013B65
:1089B000E360E5682DB19DF80700FFF749F803B0C3
:1089C00030BD00F0AFF8A570F5E70A486360A3601A
:1089D0002361E36000F088F803F028FB10B1012365
:1089E0002370C8E700F08CF8F9E700BF38280020B2
:1089F00000E100E0E588020030B585B00478456804
:108A00008DF80040D0E90240064A074B039053F826
:108A10002130019552F821108DF80840684698479A
:108A200005B030BD4C2800205428002030B585B05A
:108A3000047845688DF80040D0E90240064A074BAB
:108A4000039053F82130019552F821108DF8084019
:108A50006846984705B030BD4C28002054280020B7
:108A60002DE9F047DFF8748090F800E04B7F08F8BC
:108A70000E300D46074616460FCD88B06C460FC423
:108A800095E80F003D78DFF85890DFF858C018F8E7
:108A9000055049F82E6084E80F004CF82E00CDF800
:108AA00010E05DB1002E0B4A694607F1040008BFD3
:108AB000324601F099F808B0BDE8F087002E064A6A
:108AC000694607F10C0008BF324600F01DFE08B0F1
:108AD000BDE8F087F98902002D8A02002C2E0020C3
:108AE000542800204C280020044A137923B901217E
:108AF0001060918018467047852070475C280020E0
:108B0000074B1A68D20704D4C021012283F800134E
:108B10001A604FF080430122C3F81825704700BF48
:108B200000E100E0044B01221A604FF08042D2F8CD
:108B30001834DB03FBD470470C00004010B5174B12
:108B40001A6882B062B10021154A19601B68507919
:108B500000934FF080410123009CC1F8083398B185
:108B6000104B1A68BAB100221A601B6801934FF0CB
:108B7000804202210A4B0198C2F808131B680120A9
:108B800002B0BDE810401847116853718847054B83
:108B90001A68002AE7D102B010BD00BF00010040F2
:108BA0005C2800200401004030B5224C94F86A5043
:108BB00083B0002D3AD14FF0FF304FF0FF314FF02E
:108BC000FF33C4E90001C4E90C01C4E90E01C4E9A2
:108BD0001001C4E91201C4E91401C4E91601062216
:108BE000294604F16400C4E90233C4E90433C4E94A
:108BF0000633C4E90833C4E90A33236603F0F0FB03
:108C00000D4A0E4B0E491D60C02082F8060340201D
:108C100010601B68019301984FF000430122284621
:108C200084F86A20C1F8043303B030BD082003B0D3
:108C300030BD00BF6828002000E100E07C610040FA
:108C400000600040034B93F86A00003818BF012011
:108C5000704700BF68280020F0B4754B1D1895F9C7
:108C60003040002C61DA8C78A707C4F3400C53D451
:108C70001C6A013400F0D5805C6A013400F0CA80BF
:108C80000C260A2453F82450013552D0651CB542F5
:108C90003FD253F82570013700F0B480A51CB542CF
:108CA00037D253F82570013700F0AC80E71CB7428B
:108CB0002FD253F8275001353AD0271DB74228D27A
:108CC00053F82750013533D0671DB74221D253F8EE
:108CD000275001352CD0A71DB7421AD253F8275080
:108CE000013525D0E71DB74213D253F8275001357F
:108CF0001ED004F10807B7420BD253F827500135B4
:108D000016D00934B44204D2DC6A013408BF0B2403
:108D10000FD00420F0BC70471C68013474D05C682C
:108D200001346DD008260224ACE70820F0BC70475F
:108D30003C461E1865B243F8242086F83050BCF13A
:108D4000000F02D11C4484F858008A7854071AD4C2
:108D5000D60744D41F284C7887BF364E00F01F0238
:108D600002464FF0A04602F5E072A40046F8224009
:108D7000314EC40800F0070C375D012202FA0CF2F4
:108D80003A4332558A7812F002021CD0AB0003F14C
:108D9000804303F5C0430978D3F8104524F44F34D9
:108DA00024F44074C3F8104502020904D3F81005F6
:108DB00001F4403102F47C520A430243C3F8102507
:108DC0000020F0BC7047083D2B44087893F86010F1
:108DD00041EA801183F860101046F0BC70471F28EC
:108DE00087BF144A00F01F0404464FF0A04202EB74
:108DF0008402D2F8004724F00204C2F80047B7E723
:108E0000012496E72C4694E7002485F830401A6048
:108E100025469AE7092685F830605A623446354679
:108E200090E7082685F830601A623446354689E7AF
:108E30006828002000030050CC28002070B4324C79
:108E4000251883B095F93030072B22DD234493F8A1
:108E500058309B09032B46D0012B0CBF4FF4003236
:108E60004FF440321F288ABF284B4FF0A04300F038
:108E70001F0003EB8000D0F8003723F44033C0F824
:108E80000037D0F800371A43C0F8002703B070BC91
:108E90007047DAB2072AF9D8980000F1804000F54F
:108EA000C04003F140029200D0F8106592B202F186
:108EB000804202F5C04246F00106C0F8106500206D
:108EC000106012680192019A0029DFD095F93020D4
:108ED00054F82220002AD9D00D49012202FA03F3C6
:108EE000C1F80433D2E71F288ABF084A4FF0A042D6
:108EF00000F01F03D2F8102598BF0346DA4002F0B5
:108F0000010202321204ADE768280020000300507D
:108F1000006000401F288ABF054B4FF0A04300F0BF
:108F20001F00D3F8103523FA00F000F0010070475D
:108F3000000300502DE9F047002388B0CDE902334B
:108F4000C94A1168012900F04B821E46C74B1A68B6
:108F5000012A00F03782C64B1A68012A00F02482E9
:108F6000C44B1A68012A00F01182C34B1A68012A07
:108F700000F0FE81C14B1A68012A00F0EB81C04B62
:108F80001A68012A00F0D881BE4B1A68012A08D05D
:108F9000BD4B1A68012A00F02F8216BB08B0BDE84D
:108FA000F087BA4AD2F804231706F1D500221A60D6
:108FB00019680091196E0098012903F1600346F0C9
:108FC00080060ED11A601B6801934FF0A042019BEE
:108FD000D2F81025AE4B0292D3F81035039346F029
:108FE0000046AC4F00240125A30003F180432E422C
:108FF00003F5C0434FEA45050BD0D3F8100557F8E9
:109000002420D3F81015C0F30520C1F3014102B1AB
:1090100090470134082CE7D1002EBFDA9D4C9C4FBD
:109020004FF0FF304FF0FF31CDE9060194F96000B9
:109030000DF110080023451CC8F8043004934FF0CC
:10904000010600F0F780C0F3C20908AB03EB090E7C
:1090500000F007031EF8082C06FA03F312EA0305D2
:109060005FFA80FC00F03F0021D022184FEA9C11EB
:1090700092F9302054F82220002A00F03781032989
:1090800000F036811F2800F2EB8005464FF0A04C1F
:109090000CEB850C1EF8185CDCF800E71D40CEF3E5
:1090A000014E40F0D180BEF1030F00F0B78194F97A
:1090B0006100411C33D0C0F3C20E08AB03EB0E0CB1
:1090C00000F007031CF8081C06FA03F31942C2B2A9
:1090D00000F03F0023D004EB0009910999F930908A
:1090E00054F82990B9F1000F00F01281032900F023
:1090F00012811F2800F2F68086464FF0A04202EB54
:109100008E021CF818ECD2F800C71EEA030FCCF34D
:10911000014C40F0DA80BCF1030F00F0918194F92A
:109120006200421C33D0C0F3C20E08AB03EB0E0C3E
:1091300000F007031CF8081C06FA03F31942C2B238
:1091400000F03F0023D004EB0009910999F9309019
:1091500054F82990B9F1000F00F0D080032900F0F5
:10916000D0801F2800F2A58086464FF0A04202EB77
:109170008E021CF818ECD2F800C71EEA030FCCF3DD
:10918000014C40F08980BCF1030F00F06D8194F92F
:109190006300431C33D0C0F3C20E08AB03EB0E0CCC
:1091A00000F007031CF8081C06FA03F31942C2B2C8
:1091B00000F03F0023D004EB0009910999F93090A9
:1091C00054F82990B9F1000F00F0AC80032900F0A9
:1091D000AC801F288BBFBE464FF0A04E02F01F028E
:1091E00002460EEB82021CF818ECD2F800C71EEA09
:1091F000030FCCF3014C60D1BCF1030F1CD0002D48
:109200003FF4CCAE4FF0A042029BD2F81015D7F835
:1092100010058B4203D1039B83423FF4BFAEDDE9CF
:109220000423CDE9021094F96000451CCDE9062322
:109230007FF409AF00253AE7032900F02981B9F14D
:10924000000FDCD0C847DAE7BEF1020FF2D10329E4
:1092500000F039810025002A3FF429AF904726E726
:109260000CF01F05BC4613E700610040046100409C
:10927000086100400C610040106100401461004032
:10928000186100401C6100407C61004000600040AB
:109290000003005068280020BCF1020F7FF477AF74
:1092A000032900F00D81B9F1000F3FF470AFC847FA
:1092B0006DE702F01F0E3A4659E7BCF1020F9ED14E
:1092C0000329BCD14FF4403CE4E0BCF1020F7FF431
:1092D00026AF032900F0F180B9F1000F3FF41FAF72
:1092E000C8471CE702F01F0E3A4608E70329A1D140
:1092F00018F809501D4308F80950C3E603297FF404
:1093000046AF18F80EA04AEA030A08F80EA028E7AC
:1093100003297FF404AF18F80EA04AEA030A08F8FC
:109320000EA0E6E603297FF46AAF18F80EA04AEA19
:10933000030A08F80EA04CE7644AD2F80423520648
:109340007FF522AE00221A601B680093009B46F056
:10935000400619E65D4AD2F8042391067FF50FAE68
:1093600000221A601B680093009B46F0200606E668
:10937000564AD2F80423D0067FF5FCAD00221A60CD
:109380001B680093009B46F01006F3E54F4AD2F8A5
:10939000042314077FF5E9AD00221A601B680093CF
:1093A000009B46F00806E0E5484AD2F8042355073A
:1093B0007FF5D6AD00221A601B680093009B46F033
:1093C0000406CDE5414AD2F8042397077FF5C3ADE3
:1093D00000221A601B680093009B46F00206BAE563
:1093E0003A49D1F8046316F001063FF4AFAD1360BB
:1093F00013680093009BA9E500221A601B68019383
:109400004FF0A042019BD2F81025314B0292D3F8C5
:1094100010350393002E3FF401AEE0E503297FF4FD
:109420001AAF4FF40035DCF8003723F44033CCF8A2
:109430000037DCF800372B43CCF8003701250AE76A
:1094400003297FF449AF4FF4003CD2F8003723F4EE
:109450004033C2F80037D2F8003701354CEA030335
:10946000EDB2C2F8003737E703297FF41CAF4FF4A1
:10947000003CD2F8003723F44033C2F80037D2F86A
:10948000003701354CEA0303EDB2C2F800370AE7B2
:109490004FF4003CD2F8003723F44033C2F80037D1
:1094A000D2F80037013543EA0C03EDB2C2F80037B9
:1094B000B9F1000F7FF4C6AEA4E64FF4403CC4E718
:1094C0004FF4403CD5E74FF44035ACE70060004036
:1094D00000030050014B1B68184700BFD428002030
:1094E000114B98421DD130B583B000230DF1070018
:1094F0008DF807300D46FEF785FA0C4B1C794CB9F8
:109500009DF807001D6001221A71FEF7A1FA20469E
:1095100003B030BD9DF80700FEF79AFA112003B0A2
:1095200030BD0020704700BF00200040D42800203C
:10953000034B984203D1034B00221A601A71704703
:1095400000200040D428002030B56D4AD2F8043302
:1095500099058BB068D5D2F82431002B64D0002354
:10956000C2F82431D2F8243103934FF40171654BD2
:109570000398C2F8081393F8291009B90121516022
:109580005F4902228DF81820D1F88024C1F8802488
:109590009869D968099200240025CDE90710C3E92C
:1095A0000645D3E9001206A89047554AD2F81C3167
:1095B000C3B1544B186A596988426AD293F828009B
:1095C00000F0FF04002864D1C2F81C41D2F81C113D
:1095D000029102999C68186A196A205C013119622B
:1095E000C2F81C05464AD2F84431DBB10021454B94
:1095F000C2F84411D2F8440193F829100090009861
:1096000009B1012111609A6962B1586AD9680022D2
:109610009A610122CDE907108DF8182006A8D3E938
:10962000001290470BB030BD354AD2F804335B07C7
:10963000BBD5D2F80831002BB7D0324B996900293D
:109640003CD00021C2F80811D2F808110491049905
:10965000D868596AD2F8182542545A6A9969013271
:109660005A625A6A8A42A0D1DA69002A2FD0DD688C
:109670005C6A18699A6101210022D860DA615A6235
:109680008DF81810CDE90754D3E9001206A89047C9
:109690008BE71B4A0020C2F81C01D2F81C21019262
:1096A000019A00299ED09A688DF818000891586197
:1096B000079206A8D3E90012904793E7C2F8081171
:1096C000D2F8080105900598D2F81825C9E793F853
:1096D000292012B90A4A01215160094A4FF4017147
:1096E000C2F80813596ADA68089100240120079229
:1096F0008DF81800D3E900129C6106A8904754E742
:1097000000200040E02800202DE9F041DFF8DC8156
:1097100006792C2303FB068382B093F82A30002BB2
:1097200040F09A8005460C4600686B491746FFF7E3
:10973000D7FE002840F08C802368591C19D01F2BBD
:109740004FF001028ABF65494FF0A04103F01F03AB
:1097500002FA03F3C1F8083523681F2B86BF03F014
:109760001F035E4A4FF0A04203F5E073032142F865
:10977000231063685A1C0BD01F2B86BF03F01F03F6
:10978000564A4FF0A04203F5E073002142F823103F
:109790002B68A269C3F82425217D637D2A680B43C9
:1097A000C2F86C35D4E900122B68C3F81425C3F84D
:1097B0000C15237D012B5BD02C2303FB06F308EB58
:1097C00003025760226948F8032077B32A68237F91
:1097D000434C0021C2F81C11D2F81C2100922A68C7
:1097E000009FC2F84411D2F844112A6801910199EE
:1097F000C2F804432A6842F3073100294FEA1232C3
:109800002EDB01F1604101F561415B01DBB281F8C2
:1098100000332B68334C43F307325209C3F304334C
:10982000012101FA03F344F822302C23296803FBB9
:109830000686042400230122C6E90633C1F8004548
:1098400086F82A2086F82930736102B0BDE8F081DD
:10985000112002B0BDE8F081082002B0BDE8F0811F
:10986000214902F00F025B011144DBB20B76D0E715
:10987000A368591C0BD01F2B86BF03F01F03174989
:109880004FF0A04103F5E073002241F82320E36884
:109890005A1C1AD01F2B8ABF10494FF0A04103F069
:1098A0001F03012202FA03F3C1F80835E3681F2BF6
:1098B00088BF03F01F0303F5E0738CBF07494FF027
:1098C000A041032241F82320E3682A68A168C2F876
:1098D0000835C2F810156FE74995020000030050E3
:1098E0008000020000E100E0FCEC00E0E028002045
:1098F000F8B53A4F047902682C2303FB0473002166
:109900005B68C2F8001583B10368354AC3F80823C1
:109910000268344D42F307335B092033C2F304324B
:10992000012101FA02F245F8232003684FF0FF3CC1
:10993000D3F80C65D3F81455D3F80825D3F81015CF
:10994000C3F814C5C3F80CC503686645C3F808C559
:10995000C3F810C50CD01F2E86BF06F01F06224B81
:109960004FF0A04306F5E0764FF0020C43F826C016
:109970006E1C0BD01F2D86BF05F01F051A4B4FF034
:10998000A04305F5E075022643F825604D1C0BD079
:109990001F2986BF01F01F01134B4FF0A04301F5B3
:1099A000E071022543F82150531C0BD01F2A86BFBB
:1099B00002F01F020C4B4FF0A04302F5E0720221AF
:1099C00043F822100068FFF7B3FD2C2303FB047457
:1099D000002384F82A306360F8BD00BFE02800202F
:1099E0008402020000E100E0000300502DE9F04194
:1099F000314E05792C2303FB05630446586984B076
:109A000000284CD11862996083F828005A612268B6
:109A1000C2F81C01D2F81C11226802910121029F98
:109A200091602268D3F808C0C2F81C01D2F81C115A
:109A3000019101991F6A196A1CF8077001311962B6
:109A4000C2F81C755A6812B104B0BDE8F0811A6AF8
:109A50005F692168BA421BD2864602E093F828204B
:109A60000ABBD1F81C21002AF8D0C1F81CE1D1F8BA
:109A70001C210392039AD3F820801A6A1CF80880EC
:109A800001321A62C1F81C851A6ABA42E9D3216808
:109A9000D1F81C31002BFBD00123CB6004E0112056
:109AA00004B0BDE8F0810F202C2303FB05650023E3
:109AB0006B6104B0BDE8F081E028002030B5484B70
:109AC000D3F8242189B0002A57D00022C3F82421DA
:109AD000D3F82421029202228DF81020029AD3F8A2
:109AE0008014404AC3F880140791D3F83C15D3681A
:109AF0000691002400250593C2E9064511685368C4
:109B000004A89847364BD3F844214AB10021354A7E
:109B1000C3F84411D3F84401916901900198D9B96F
:109B20002F4BD3F82021AAB10021C3F82011D3F87C
:109B300020012C4A00900098506958B1D3F84C0588
:109B4000936806908DF810105161059304A8D2E92E
:109B50000013984709B030BDD3F83C35D16806935F
:109B600000240025012305918DF81030C2E9064537
:109B7000D2E9001304A89847D2E7D3F810110029BE
:109B8000C0D0C3F81021D3F81011164803910399DF
:109B90008469D3F83C15A142B4D1C469A4B1D3F807
:109BA0000052846125F02005C3F80052D0E9034338
:109BB000C26101220691C3600168436805948DF873
:109BC000102004A898479DE7C26884610123CDE96D
:109BD00005218DF81030D0E9001304A8984791E7CB
:109BE00000200040102900202DE9F04307797C4E29
:109BF00007EBC70306EB830385B093F82030002BF7
:109C000040F0AD8004460D46006876499046FFF767
:109C100067FC002840F09F802B68591C4FEAC70959
:109C200019D01F2B4FF001028ABF6F494FF0A0419E
:109C300003F01F0302FA03F3C1F808352B681F2B4A
:109C400086BF03F01F03684A4FF0A04203F5E0739C
:109C5000032142F823106B685A1C0BD01F2B86BFC0
:109C600003F01F03604A4FF0A04203F5E0730021A8
:109C700042F823102368AA69C3F82425297D6A7D48
:109C800023680A43C3F86C25D5E900312268C2F87D
:109C90000C35C2F814152B7D012B6CD009EB070293
:109CA00006EB8203C3F804802B6946F82230B8F132
:109CB000000F3FD021682B7F4C4D0022C1F81021AE
:109CC000D1F8101100912168DDF800C0C1F8202101
:109CD000D1F8201101912168DDF804C0C1F82421D8
:109CE000D1F8241102912168DDF808C0C1F844219F
:109CF000D1F84411226803910399C2F804532268F1
:109D000042F3073100294FEA12322CDB01F16041A6
:109D100001F561415B01DBB281F800332368344D0A
:109D200043F307325209C3F30433012101FA03F369
:109D300045F822304F44226806EB870600230124B1
:109D40000821C2F80015C6E9063386F82040736181
:109D500005B0BDE8F083112005B0BDE8F083082010
:109D600005B0BDE8F083234902F00F025B01114406
:109D7000DBB20B76D2E7AB68591C0BD01F2B86BF2A
:109D800003F01F0318494FF0A04103F5E0730022D0
:109D900041F82320EB685A1C1AD01F2B8ABF1249A6
:109DA0004FF0A04103F01F03012202FA03F3C1F8B0
:109DB0000835EB681F2B88BF03F01F0303F5E07322
:109DC0008CBF09494FF0A041032241F82320EB68E2
:109DD0002268A968C2F80835C2F810155EE700BF0E
:109DE00010290020BD9A0200000300501003020059
:109DF00000E100E0FCEC00E0F8B506793B4C0268BD
:109E000006EBC60304EB830300215B68C2F8001570
:109E1000F70083B10368364AC3F808230268354D5A
:109E200042F307335B092033C2F30432012101FA04
:109E300002F245F8232003684FF0FF3ED3F80CC52B
:109E4000D3F81455D3F80825D3F81015C3F80CE54A
:109E5000C3F814E50368F445C3F808E5C3F810E552
:109E60000DD0BCF11F0F86BF0CF01F0C224B4FF022
:109E7000A0430CF5E07C4FF0020E43F82CE06B1C85
:109E80000CD01F2D86BF05F01F051B4B4FF0A043C4
:109E900005F5E0754FF0020C43F825C04D1C0BD0C2
:109EA0001F2986BF01F01F01134B4FF0A04301F59E
:109EB000E071022543F82150531C0BD01F2A86BFA6
:109EC00002F01F020C4B4FF0A04302F5E07202219A
:109ED00043F822103E4404EB86040068FFF728FB99
:109EE000002384F820306360F8BD00BF10290020F3
:109EF0001003020000E100E000030050F0B401F0A4
:109F00006044B4F1005F82B02CD10579244E05EB9A
:109F1000C50406EB840403466069EF00002839D1CC
:109F20006261A1601A68C2F82001D2F820C11A68E3
:109F3000CDF804C0DDF804C0C2F85801D2F85821A9
:109F400000921A68DDF800C0D4F814C0C2F84415B5
:109F5000C2F848C51A6801219160626832B102B046
:109F6000F0BC7047102002B0F0BC70471B6800E0E6
:109F7000A0B9D3F82021D3F85801002AF8D000283E
:109F800018BF0F207B1906EB830300225A6102B031
:109F9000F0BC7047112002B0F0BC70470F20F1E711
:109FA00010290020032806D8012A06D001291BD039
:109FB000022908D071B107207047012911D0022968
:109FC0004FF00002F6D10B4B00EB400003440020A1
:109FD0005A707047074B00EB4000034408469A70E4
:109FE000704700F10E02D2B200EB4003014900209D
:109FF000CA5470473429002010B50388102B07D0AD
:10A00000112B04D1254B18680138186030B110BDF0
:10A01000224C216811B30131216010BD01220221BF
:10A02000FFF7C0FF40B1072806D01D4B1B68002B6F
:10A03000EDD0BDE810401847072202210120FFF7AC
:10A04000B1FF08B10728F0D1002108460A22FFF726
:10A05000A9FF0028DBD00728E7D1D8E7012208466E
:10A06000FFF7A0FF38B1072805D00D4B1B6803B1DF
:10A0700098472168CFE7072202210120FFF792FFCE
:10A0800008B10728F1D1042202210020FFF78AFF3E
:10A090000028EED00728E8D1EBE700BF44290020D4
:10A0A0004029002075DF704776DF70478FDF7047EB
:10A0B0000146014801F0FEBC482900200378062B28
:10A0C00000D0704740680028FBD0FDF71BB900BFE7
:10A0D0000B2801D0FDF716B910B50E480C4601F05B
:10A0E000B9FE48B143F20202904212D0082810D0C3
:10A0F000BDE81040FDF706B90748084B0849C01AEB
:10A10000C0080004224640F00300BDE81040FCF700
:10A1100083BC10BD4829002048D2020020D2020092
:10A1200028CB020070B50E78012E0C4613D0022EFB
:10A1300029D11B4B1B480A791B49C01AC0080004CF
:10A1400040F00300FCF768FC23793046E3B1BDE83A
:10A150007040FEF775BB0A1D05464988134801F09B
:10A16000CBFE0F4B0F4862881149C01AC00800048B
:10A1700040F00300FCF750FCFDF7AEF860B928464C
:10A1800001F01CFE20B970BDBDE87040FEF76ABB4F
:10A19000BDE87040FDF7B6B8FDF7B4F8EFE700BFD3
:10A1A00020D2020048D2020074CB020048290020CD
:10A1B00040CB020010B50388212B82B004462ED874
:10A1C0000F2B2AD9103B112B27D8DFE803F00948C1
:10A1D00026262626262626262626262626402636F5
:10A1E0002E4B2F482F49C01AC008000440F003002E
:10A1F000FCF742FBA1882C48002201F07DFE0028DC
:10A2000043D1A188294800F0CFFB002843D1012089
:10A21000FEF716FB0020FEF725FB02B010BD3B2B1E
:10A2200001D0562BF9D1A0881321FFF73DFF00285C
:10A23000F3D0FDF767F802B010BD00238088ADF8B9
:10A24000043001A9FFF732FF0028E6D0F1E700F162
:10A2500008018088FFF726FF0028DED0E9E70F4BD2
:10A260000F481349C01AC008000440F00300FCF76F
:10A2700003FB104801F0C2FA50B90120FEF7F2FAD0
:10A280000020FEF7DDFA02B010BDFDF73BF8B8E79D
:10A29000FDF738F8F1E7FDF735F8B8E720D202000E
:10A2A00048D202009CCB020048290020981D0020C3
:10A2B000A8CB02006C29002000B54FF4004185B006
:10A2C0000020FCF745F9002874D1FCF731F9FDF7BF
:10A2D000A1FA002840F095800120FEF7D5FA4A48FF
:10A2E00040F266620121FCF79FFF002840F0868063
:10A2F000FEF738F900287ED101F00CFE002877D156
:10A30000002369460120009301F0E0FE00286CD193
:10A31000684601F099FF002864D1102200216846A8
:10A3200002F05EF80123394A39488DF80430694655
:10A330008DF80C3001F00CFA002850D1344800227E
:10A34000012101F0F1F9002846D1324A30480021BC
:10A3500001F0B8F900283CD12F48002101F0B4F8F1
:10A36000A0BB2E4800F0A0FA68BB2D4B2D480093EF
:10A37000694601F09BFC18BB2B4B2C482C49C01A9A
:10A38000C008000440F00300FCF776FA204801F012
:10A3900035FA90B90120FEF765FA0020FEF750FA71
:10A3A0000020FEF74DFAFCF72DF90028FBD1FEF74F
:10A3B000EFF8F8E7FCF7A6FF87E7FCF7A3FFE9E76C
:10A3C000FCF7A0FFD8E7FCF79DFFCEE7FCF79AFF6C
:10A3D000C7E7FCF797FFBFE7FCF794FFB5E7FCF78B
:10A3E00091FFABE7FCF78EFF97E7FCF78BFF8FE75A
:10A3F000FCF788FF84E7FCF785FF7DE7FCF782FF29
:10A4000076E7FCF77FFF67E7901D0020BDA0020004
:10A410006C290020D8CB020058290020B1A00200EE
:10A4200025A102004829002020D2020048D20200C3
:10A43000B8CB02002AB320B370B54378092B154678
:10A440002AD0E1B10024234601E0994217D9045DE6
:10A45000013423449BB2C2181C465278092AF4D115
:10A4600099420CD9991C89B2C65C41B1013EB6B281
:10A47000441826B1284601F0C5FFB04203D00020A1
:10A4800070BD0020704732462146284601F08CFFFF
:10A49000B0FA80F0400970BD0029F0D0044614F8ED
:10A4A000026B013EB6B2E4E72DE9F04703888788E6
:10A4B000112B98B007D01A2B044650D0102B09D07E
:10A4C00018B0BDE8F0873A483946FDF7E3FA18B00E
:10A4D000BDE8F087374A9368DB43009351686846CC
:10A4E000FDF708FB009B0193019B83B300252E46DB
:10A4F000314601A8FDF7D8FA28B118AB03EB4503A4
:10A50000013523F8286C0136142EF1D10D950DF18B
:10A51000340CBCE80F0002AE0FC6BCE80F000FC63B
:10A520009CE8070086E807008DB10DF10A08DFF806
:10A5300098A008EB450538F8029F1F4E3046494663
:10A540000436FDF7A7FAB245F8D1A845F3D1132F89
:10A5500015D90420FCF7D6FE18B0BDE8F087037AC1
:10A5600016481F2B4FEA1314394618D9FDF788FAFD
:10A57000022C1348394616D0FDF782FAA0E70C48A2
:10A580003946FDF77DFA0C483946FDF779FAE37B49
:10A59000012B95D00B483946FDF772FA90E7FDF78D
:10A5A00079FA07483946FDF775FA18B0BDE8F08723
:10A5B000DC290020D4290020D8290020E42900200B
:10A5C000E8290020E02900204C2A00209BDF70476A
:10A5D0009DDF70479EDF7047F0B5324C90F8C63271
:10A5E0002568C3EB0314C3EB84031746A1B05A00DC
:10A5F00000EB4303F5B12C4C9B780E46A1789942B1
:10A600003ED0012D16D9A17999423FD0022D11D00B
:10A61000A17A994240D0032D0CD0A17B99420BD056
:10A62000042D07D0A17C99421ED0052D02D0A17D1A
:10A6300099421FD021B0F0BDB4F80CC0815A8C45AE
:10A64000EED11A4B1C68002CF4D07C22002101A80A
:10A6500001F0C6FE012301A8ADF8067002968DF840
:10A660000430A04721B0F0BDB4F810C0815A8C4529
:10A67000DBD1E6E7A18A835A9942E2D021B0F0BD4E
:10A6800030F802C021888C45BBD1DAE7B4F804C0A9
:10A69000815A8C45BAD1D4E7B4F808C0815A8C45A8
:10A6A000B9D1CEE7542A00205C2D00204C2A00208E
:10A6B0002DE9F04FDFF81C8190F8C6E2D8F8004091
:10A6C000CEEB0E13CEEB8303944683B000EB430234
:10A6D000FCB10F4659003C4B92789D78954263D06F
:10A6E000012C16D99D79954263D0022C11D09D7A08
:10A6F000954263D0032C0CD09D7B95420CD0042C4A
:10A7000007D09D7C954243D0052C02D09D7D95427B
:10A7100043D003B0BDE8F08F9E89455AAE42EED1DA
:10A720002A4BD3F800A0BAF1000FF2D0DFF8A890BE
:10A73000D9F80060052EECD8254D05EBC61B762216
:10A7400002FB0E01F3010BF10400ABF802C0019310
:10A7500001F038FE0136002F019BCBF87CA014BF1E
:10A7600000220222A642EA54C9F80060D1D1002496
:10A77000EB6F28469847D8F8003001349C4205F129
:10A780008005F5D30023C9F8003003B0BDE8F08F91
:10A790001E8A455AAE42B7D1C2E79A8A435A9A42B4
:10A7A000BED003B0BDE8F08F465A1D88AE4297D1A7
:10A7B000B6E7465A9D88AE4297D1B1E71E89455A01
:10A7C000AE4297D1ACE700BF5C2D00204C2A0020A0
:10A7D000582A0020542A0020582D00202DE9F0434B
:10A7E00090F8C68290F8C532C8EB0814C8EB84080C
:10A7F00000EB480E03EBC3049EF80470640004EB06
:10A8000048045D1C0A34BD4283B0044441D0BB42BD
:10A8100037D24FEA4806122515FB036500F11C08E4
:10A820000544B04407F1FF3C9C45248911D06E8C4F
:10A830000134B44217D0013EADF80660ADF80440D3
:10A8400000230B70104601A9FFF7C4FE03B0BDE85A
:10A85000F083BEF80860B44219D00134ADF804406A
:10A86000ADF80660ECE703EBC30408EB44045E1CA0
:10A870005FFA86F94F45334680F8C56205F1120547
:10A88000D2D8012300200B7003B0BDE8F083002470
:10A89000EDE72389BEF808008342F2D00133ADF81A
:10A8A0000430ADF80600CBE770B130B40246074D76
:10A8B00007480849084C0A6000232B600360012503
:10A8C0001846257030BC70470E207047542A00206F
:10A8D000582D00204C2A0020502A0020002857D054
:10A8E0002D4B1B782BB370B42C4C2D4B2268002AB7
:10A8F00050D081789D788D421DD0012A34D99D7920
:10A900008D4222D0022A31D09D7A8D4222D0032A54
:10A910002CD09D7B8D4222D0042A27D09D7C8D4255
:10A920002CD0052A22D09D7D8D422CD0042070BCD5
:10A9300070470820704706881D88AE42DDD119494E
:10A94000096889B1002070BC70479E880588AE42B6
:10A95000D8D1F4E71E890588AE42D8D1EFE79E89A9
:10A960000588AE42D8D1EAE7052ADFD8511C006835
:10A9700043F822002160002070BC70471E8A0588C1
:10A98000AE42CED1DBE79D8A01888D42CED1D6E79B
:10A990000E2070470121EAE7502A0020542A0020A7
:10A9A0005C2D00204C2A0020B0B31C4B1B7843B315
:10A9B0001B4B1B682BB370B590F8C752044615BBF0
:10A9C0000E464FF43372294601F00AFD154A164B24
:10A9D00010682060A4F8CA6284F8C95284F8C6528C
:10A9E00084F8C5522246304601211D60FFF7EEFD76
:10A9F00011280AD020B9012384F8C80284F8C7328C
:10AA000070BD08207047112070BD012384F8C73243
:10AA100084F8C832284670BD0E207047502A0020A6
:10AA2000542A00205C2D0020582D0020002800F022
:10AA3000CD802DE9F04F0D46A3B0002900F08C80A9
:10AA40006A4B1B78002B00F087800388322B04466A
:10AA500000F0B28000F28380112B00F0B880302B20
:10AA60006CD18688B1F8CA329E4240F0AA80C38871
:10AA7000002B40F03F8291F8C6120269C1EB01132E
:10AA8000C1EB830305EB4303C3F8062095F8C52209
:10AA90008088002A00F05B82013AD2B2762602EB6F
:10AAA000C20206FB01F101EB42022A44528A013242
:10AAB00092B21B89ADF80E3003A9ADF80C20FFF758
:10AAC00087FD0646002839D095F8C632484AC3EBC0
:10AAD00003110020126885F8C702C3EB81035900F7
:10AAE000B4F8048005EB43031AB3424F9B78B8785F
:10AAF000984200F0E683012A1BD9B879984200F009
:10AB0000FB83022A15D0B87A984200F00A84032AFF
:10AB10000FD0B87B984200F00B84042A09D0B87C8F
:10AB2000984200F01384052A03D0BA7D9A4200F0BF
:10AB30001484314B0322A3F802801A7095F8C832AE
:10AB400053B12388303B9BB21F2B05D8A688B5F89C
:10AB5000CA329E4200F0A98123B0BDE8F08F332BAA
:10AB6000ECD18288B1F8CA329A42E7D1C18895F80F
:10AB7000C67295F8C562002940F064814389002BB4
:10AB800000F06081762000FB07F006EBC60300EBC7
:10AB9000430028442246D389A3F52453082B00F20E
:10ABA0004281DFE813F03E017E017B01400140015C
:10ABB00040014001400175018688B1F8CA329E42C9
:10ABC0001CD095F8C822002AC3D1C5E770478288F7
:10ABD000B1F8CA329A42BFD100234FF6FF7281F812
:10ABE000C73281F8C832A1F8CA22B5E7502A00203E
:10ABF000542A00205C2D0020582A0020C388002BF6
:10AC000040F0E58091F8C672827AC7EB0713C7EB74
:10AC1000830301EB43085E0098F804904A44062A37
:10AC200000F3C281D2B288F80420384691454B46E1
:10AC300080F00683A446762202FB07F709EBC901E0
:10AC400007EB41015CF80C9F98F80420DCF80480C5
:10AC500005EB010E1031CEF80A90CEF80E80BCF84C
:10AC600008C0AEF812C0294403F1010E4FF0000CE9
:10AC70009645C1F804C0C1F808C04FEAC30180F08E
:10AC80009980A0460EEBCE0158F816AF07EB4101B4
:10AC900005EB0109D8F804B0C9F80EB0C9F80AA04C
:10ACA000B8F80880A9F812801031294403F102088D
:10ACB0004245C1F804C0C1F808C04FEACE0140F2D5
:10ACC0005F82A64608EBC8015EF820AF07EB4101A2
:10ACD00005EB0109DEF804B0C9F80EB0C9F80AA006
:10ACE000BEF808E0A9F812E01031294403F1030E80
:10ACF0007245C1F804C0C1F808C04FEAC80140F26B
:10AD00004182A0460EEBCE0158F82AAF07EB410175
:10AD100005EB0109D8F804B0C9F80EB0C9F80AA0CB
:10AD2000B8F80880A9F812801031294403F104080A
:10AD30004245C1F804C0C1F808C04FEACE0140F254
:10AD40001F82A14608EBC80159F834EF07EB410117
:10AD500005EB010AD9F804B0CAF80EB01031CAF8F0
:10AD60000AE0053305EB010E9A42B9F80810AAF87B
:10AD700012104FEAC801CEF804C0CEF808C040F265
:10AD80000182214603EBC30E51F83E8F07EB4E07BD
:10AD900005EB070ED1F80490CEF80E901037CEF8E0
:10ADA0000A802F440989AEF81210D900C7F804C0F0
:10ADB000C7F808C00B44762105EB430301FB00F103
:10ADC00033446F185B8A3E89B342C0F0C2800027CB
:10ADD00085F8C572A2880DF10B012846FFF7FEFC2D
:10ADE0000646002840F0F8809DF80B30002B3FF419
:10ADF000A5AEA28801212846FFF75AFC95F8C93272
:10AE0000A04AA78812680133DBB2934285F8C932A1
:10AE1000C0F020829C4B85F8C76203225F801A70C5
:10AE20008CE69389C382838A2BB1C38A1BB1038BBF
:10AE30000BB1438B33B963890131994202F10602A8
:10AE4000FFF4A9AE762202FB0752731C127900268A
:10AE500093428DF80B6068D101238DF80B30A288E6
:10AE600001212846FFF724FC95F8C932854AA688B7
:10AE700012680133DBB2934285F8C932C0F0BC815D
:10AE8000814B032100225E80197085F8C72255E6A8
:10AE9000B2F80CC0838AA0F81AC0C5E793898382F0
:10AEA000C2E793890383838ABEE74FF4337200219C
:10AEB000284601F095FA754B754C186828600023F8
:10AEC000A5F8CA6285F8C932304685F8C63285F8D9
:10AED000C5322A4601212360FFF778FB112800F0D4
:10AEE000B38100287FF438AE012385F8C80285F8C5
:10AEF000C73231E6324600212846FFF7D9FB95F8E4
:10AF0000C932604AB4F8048016680133DBB2B34238
:10AF100085F8C932C0F0C8805B4B03210022A3F83A
:10AF20000280197085F8C72208E685F8C532A28824
:10AF30000DF10B012846FFF751FC8046002840F038
:10AF400023819DF80B30002B3FF4F8AD87E7DA88BA
:10AF5000AFE5062A3FF43BAF85F8C522A088002A5A
:10AF600000F0A681531EDBB203EBC30301EB4303E6
:10AF70002B445B8A01339BB203A9ADF80C30ADF8CA
:10AF80000E60FFF725FB00283FF4D8AD002385F8BD
:10AF9000C732A28801462846FFF71EFB3A4BA2881B
:10AFA0005A8003221A70C9E53A4B3B483B49C01A04
:10AFB000C008062388F804300004AA5B40F00200B1
:10AFC0000190FBF729FD01983549FBF755FC95F8F1
:10AFD000C60298F8042029E695F8C632294A85F871
:10AFE000C772C3EB03111268B4F80480C3EB81038A
:10AFF000580005EB4303002A3FF49BAD234F9B7899
:10B00000B978994200F04D81012A7FF692ADB97965
:10B01000994200F04F81022A3FF48BADB97A9942F0
:10B0200000F07181032A3FF484ADB97B994200F0AE
:10B030007181042A3FF47DADB97C994200F07F8193
:10B04000052A3FF476ADBA7D9A427FF472ADBA8A92
:10B050002B5A9A427FF46DAD124B1F68002F3FF4BC
:10B0600068AD7C22002103A801F0BAF90123ADF8F4
:10B070000E8003A804968DF80C30B847B4F804800D
:10B0800057E500BF542A0020582A00205C2D0020DC
:10B09000582D002020D2020050D20200E8CB02003E
:10B0A00030CC02004C2A002095F8C632C94F01333B
:10B0B000DBB2C3EB0311C3EB810105EB410257F88F
:10B0C000230085F8C6324FF0000A85F8C5A245F87E
:10B0D000110082F804A001214046FFF777FA81466B
:10B0E00000283FF42BAD95F8C63285F8C7A2C3EB14
:10B0F0000312C3EB820305EB4302B97892789142C5
:10B100004FEA430300F07B81012E3FF412ADB97981
:10B11000914200F06E81022E3FF40BADB97A91425C
:10B1200000F07F81032E3FF404ADB97B914200F023
:10B130007281042E3FF4FDACB97C914200F0658130
:10B14000052E3FF4F6ACB97D91427FF4F2ACBA8A99
:10B15000EB5A9A427FF4EDAC9F4B1E68002E3FF4F1
:10B16000E8AC03A87C22002101F03AF9012303A8EE
:10B17000ADF80E80CDF810908DF80C30B047D8E4C3
:10B18000734617E6434615E695F8C632934A85F8A6
:10B19000C762C3EB03111268A688C3EB8103580092
:10B1A00005EB43031AB38B4F9B78B978994200F0B3
:10B1B000DA80012A1BD9B979994200F0EF80022A7E
:10B1C00015D0B97A994200F0F080032A0FD0B97BEC
:10B1D000994200F0F180042A09D0B97C994200F02C
:10B1E0000181052A03D0BA7D9A4200F0EC807C4BA5
:10B1F00003225E801A70A1E495F8C63275480133C7
:10B20000DBB2C3EB0311C3EB810105EB410250F844
:10B21000230085F8C632002785F8C57245F811006D
:10B22000177101213046FFF7D1F900283FF486ACB1
:10B23000014685F8C77232462846FFF7CDF9D6E7B2
:10B2400009F1FF33D900B5E5012385F8C73285F848
:10B25000C83281E495F8C6325E4885F8C56201338C
:10B26000DBB2C3EB0311C3EB810105EB410250F8E4
:10B27000230085F8C63245F81100167101213846C1
:10B28000FFF7A4F900283FF459AC01463A4685F887
:10B29000C7622846FFF7A0F9514B03225F801A705E
:10B2A0004CE4B7F800C0295A8C457FF4ADAED3E624
:10B2B000FB8861E635F800C0B9888C457FF4ABAEF9
:10B2C000CAE635F801C0388884457FF414AC424B97
:10B2D0001F68002F3FF42DAC7C22002103A801F051
:10B2E0007FF80123ADF80E80049603A88DF80C308A
:10B2F000B847B4F804801CE435F801C0B888844528
:10B300007FF4FFABE3E735F800C039898C457FF463
:10B3100089AEA1E6B7F80CC0295A8C457FF489AEF6
:10B320009AE635F801C0388984457FF4F0ABCEE762
:10B3300035F801C0B88984457FF4EFABC7E7B7F8AB
:10B3400010C0295A8C457FF47BAE85E635F801C0E4
:10B35000388A84457FF4E7ABB9E7BA8A6B5A9A42D8
:10B360007FF4E7ABB3E7B7F800C0295A8C457FF408
:10B3700020AF194B1F68002F3FF439AF7C2200210A
:10B3800003A801F02DF80123ADF80E6003A8CDF855
:10B3900010808DF80C30B847A68828E7B7F804C0AD
:10B3A000295A8C457FF40BAFE3E7B7F808C0295A58
:10B3B0008C457FF40AAFDCE7B7F80CC0295A8C45FE
:10B3C0007FF409AFD5E7BA8A2B5A9A427FF40FAFC0
:10B3D000CFE700BF5C2D00204C2A0020542A00201B
:10B3E000582A0020B7F810C0295A8C457FF4F9AECE
:10B3F000BFE7E85AB98888427FF48DAEACE6E85AD8
:10B40000398888427FF480AEA6E6E85A398A8842B5
:10B410007FF496AEA0E6E85AB98988427FF489AEF7
:10B420009AE6E85A398988427FF47CAE94E600BFF8
:10B4300090DF7047A5DF7047B5DF704770B5002318
:10B4400084B0002460F30F0360F31F436A46204674
:10B4500002A9CDE902340094ADF80440FFF7E8FFFB
:10B46000054610B9284604B070BD124B124EF61AAC
:10B47000F608FDF7DBF8360446F0010603460F49EF
:10B4800022463046FBF7A0FBBDF80020BDF8023095
:10B4900052EA030103D00A493046FBF795FBBDF899
:10B4A0000420002ADED030460649FBF7B5FA2846CC
:10B4B00004B070BD20D2020070D2020098CC02000D
:10B4C000E4CC020024CD020008B90E20704730B44D
:10B4D00003464FF017121B25002041F61B3419615B
:10B4E0001A60C3F806201D7158819C8130BC7047DA
:10B4F0008288002A59D110B50388242B82B00C46CB
:10B5000011D80F2B4FD9103B142B4CD8DFE803F088
:10B5100060744B4B4B4B4B4B4B4B4B4B4B4B4B4B3D
:10B520004B4B4B444E003A2B70D0552B3BD1C3882C
:10B53000C988A272172B38BF17238B4228BF0B462E
:10B5400010462381FFF778FF00287ED1E37A53BBB2
:10B55000236943B32289ADF8042040F67721009196
:10B56000204669469847A37AA3B1E1880020FFF7F7
:10B5700061FF002862D011280CD0FDF757F84A4B24
:10B580004A4902464A481B1ADB081B0443F00100E3
:10B59000FBF742FA02B010BD007A0B7B984228BF3D
:10B5A0001846FFF74BFFA37ADEE770470B69027A74
:10B5B0004A73002BF7D000204DF67A218DF8050054
:10B5C00000918DF80420694620469847A37ACBE77E
:10B5D0000B790B73C27B012A45D0022A33D14988EB
:10B5E000E18022898A4241D3627B9A42DBD21846AB
:10B5F000FFF724FFA37AB7E74FF01711002241F6B7
:10B600001B33C4F806106281A381C3E74389C9884C
:10B6100022698B4228BF0B46172B38BF1723238183
:10B620004AB1E17A39B140F677210091ADF80430A2
:10B6300069462046904700236381ABE74FF480734F
:10B64000638102B010BDC988CBE7FCF7EFFF164B52
:10B650001849024616481B1ADB081B0443F0010078
:10B66000FBF7DAF972E70988E180BAE70020FFF713
:10B67000E1FE18B90123E372237BB5E7112803D15A
:10B680000123A372237BAFE7FCF7D0FF064B0749EA
:10B69000024607481B1ADB081B0443F00100FBF7B6
:10B6A000BBF9237BA0E700BF70D202007CCD020073
:10B6B00020D20200B0CD02008ADF70478BDF7047D6
:10B6C0008CDF704738B370B5154632B309B1072027
:10B6D00070BD0446104600F095FE0138C0B21F2828
:10B6E0001DD894F82060E6B92946204600F080FE77
:10B6F0000028EDD094F82000431C84F8203004EB9F
:10B700004014284600F07EFE29460246204600F0FE
:10B7100059FE304670BD0E2070470E2070BD0C20C3
:10B7200070BD042070BD00BF68B1CB060DD011F014
:10B73000010116BF012380F8211080F8213080F824
:10B740002220002070470E2070470720704700BF5E
:10B7500000284DD038B50D46C2630021232204468F
:10B7600000F03EFE0DB32B7984F823302B7B84F858
:10B770002C302B6853B319685A689868C4F836009F
:10B78000C4F82E10C4F832209B896387AB684BB392
:10B790001868596804F1240303C304F140021F230D
:10B7A0002266A4F86430002038BDE38D11491248A8
:10B7B000A58603F0E30343F482734FF0C872C4E933
:10B7C000091284F82350E3852063E6E7E28DA3861F
:10B7D00002F0E30343F482730749E3852163AB6816
:10B7E000002BD5D1034A4FF0C873C4E90923D4E72D
:10B7F0000E20704706001800A000500010B310B5CE
:10B80000044686B01422002101A800F0E9FDFFF7EC
:10B8100055FF94F82E301B070BD404F1600104F19E
:10B820002E00FFF749FF044630F008000CD106B0A7
:10B8300010BDE36B002BF0D0012201A88DF804208D
:10B840009847EAE70E207047064B07480749C01A99
:10B85000C008000440F001002246FBF7DDF8204656
:10B8600006B010BD20D2020060D20200F0CD02006E
:10B870002DE9F04F05468DB035F8083B103B0746E3
:10B880000C46102B6DD8DFE803F09C6C6C6C6C6C74
:10B890006C6C6C6C6C876C096C6C6F0002A8142269
:10B8A000002100F09DFD94F82E3004F12E091B07B5
:10B8B000CDF8189000F19B8094F8213094F822A0E4
:10B8C000002B00F0C08094F82030B7F824B0002B93
:10B8D00000F0C280013BDBB204F1200808EB431802
:10B8E000264602E0B04500F0B7803246386A594635
:10B8F0002036FEF79FFD0028F4D09DF81030039508
:10B9000043F001038DF81030BAF1000F40F0A6802B
:10B9100094F823308DF808A0D3B194F82C3001931B
:10B92000FFF7CCFE5146142207A800F059FD019BF9
:10B93000494607F10A0004F12402FFF7C1FE06237D
:10B940008DF81C300890E36B18B12BB107A898470D
:10B95000E36B0BB102A8984704F160010020FFF7E8
:10B96000ABFE0DB0BDE8F08F142207A8002100F057
:10B9700037FDE26B002AF4D0286869682E7A08AB9C
:10B9800003C32E3405251E700B9407A88DF81C5098
:10B9900090470DB0BDE8F08F07A81422002100F0F9
:10B9A0001FFD3B7A012BDCD1E26B002AD9D02E346B
:10B9B00004250B948DF8203007A88DF81C50904773
:10B9C000CFE7142207A8002100F00AFDE36BBA8834
:10B9D000ADF824202E34072208958DF81C200B94F6
:10B9E000002BBED007A898470DB0BDE8F08F02230A
:10B9F00002A88DF808300395E36B984704F16001C5
:10BA00000020FFF759FE94F82330002BA9D094F8BA
:10BA10002C300193FFF752FE1422002107A800F0FA
:10BA2000DFFC019B494607F10A0004F12402FFF7FD
:10BA300047FE062308908DF81C30002891D0E36B58
:10BA4000002BCFD18DE70395BAF1000F06D1032269
:10BA5000E36B8DF808207CE70395F8E794F8233032
:10BA600000258DF80850002B3FF472AF94F82C306D
:10BA70000193FFF723FE2946142207A800F0B0FC2B
:10BA8000019B494607F10A0004F12402FFF718FE62
:10BA900006238DF81C300890E36B00283FF459AF63
:10BAA000002B7FF453AF54E7A1DF7047A3DF70474B
:10BAB00062DF70470B785BB92DE9F0438C88024652
:10BAC00041F22350844285B003D005B0BDE8F08335
:10BAD00070478C79107B8442F7D1087A4C88ADF896
