:020000022000DC
:1060000000000420BD620200E5620200E7620200B7
:10601000E9620200EB620200ED6202000000000093
:10602000000000000000000000000000EF6202001D
:10603000F162020000000000F3620200F56202005B
:10604000418F0200F7620200D9980200F762020055
:10605000F7620200F762020039930200F762020061
:10606000F7620200F7620200F7620200F7620200C4
:10607000F7620200F7620200F7620200F7620200B4
:10608000F762020031730200F7620200F762020059
:10609000D1730200F7620200EDCE0200F762020047
:1060A000F7620200F7620200F7620200F762020084
:1060B000F7620200F762020000000000000000002A
:1060C000F7620200F7620200F7620200F762020064
:1060D000F7620200F7620200F7620200F762020054
:1060E000F7620200F7620200F7620200000000009F
:1060F00000000000F762020000000000F7620200EA
:10610000000000000000000000000000000000008F
:10611000000000000000000000000000000000007F
:10612000000000000000000000000000000000006F
:10613000000000000000000000000000000000005F
:10614000000000000000000000000000000000004F
:10615000000000000000000000000000000000003F
:10616000000000000000000000000000000000002F
:10617000000000000000000000000000000000001F
:10618000000000000000000000000000000000000F
:1061900000000000000000000000000000000000FF
:1061A00000000000000000000000000000000000EF
:1061B00000000000000000000000000000000000DF
:1061C00000000000000000000000000000000000CF
:1061D00000000000000000000000000000000000BF
:1061E00000000000000000000000000000000000AF
:1061F000000000000000000000000000000000009F
:1062000010B5054C237833B9044B13B10448AFF3F0
:1062100000800123237010BD402D002000000000ED
:1062200030F8020008B5034B1BB103490348AFF334
:10623000008008BD00000000442D002030F802005E
:10624000A3F5803A704700BF174B002B08BF134BD4
:106250009D46FFF7F5FF00218B460F461348144A71
:10626000121A07F051F80E4B002B00D098470D4B37
:10627000002B00D098470020002104000D000D489D
:10628000002802D00C48AFF3008006F0EDFF20009C
:10629000290004F099FF06F0D3FF00BF00000800BA
:1062A000000000000000000000000420402D00203D
:1062B000A83F002000000000000000000649074A37
:1062C000074B9B1A03DD043BC858D050FBDC02F09F
:1062D00051FBFFF7B9FF00002CF90200E029002074
:1062E000402D0020FEE7FEE7FEE7FEE7FEE7FEE7C3
:1062F000FEE7FEE7FEE7FEE7704700BF00B583B0AC
:10630000044B0093044A402300F036F803B05DF8D4
:1063100004FB00BF1D630200602D002002B32DE9C5
:10632000F843114B114E8846144643F001090327E8
:106330000025224608EB0501002005F015F803466C
:106340001D444FF47A40E41A23B9337833B1C84777
:10635000013F06D001233370002CEAD1BDE8F88359
:1063600070473770BDE8F88330E702005C2D0020ED
:10637000704700BF05F0D6B8F0B595B000241D46B3
:106380000E460846174602F055F9304623460822C5
:10639000099505A91A9D08970D950A948DF82C402A
:1063A0000C9402F0ABF99DF814308DF81140DDE942
:1063B000061003F00302012ACDE9020128D0022AC7
:1063C00004D0304602F03AF915B0F0BDBDF81650D1
:1063D000C3F3C2038DF81030C5F389150827082DC3
:1063E0002C4628BF08243B4622460EA9304602F020
:1063F00085F92D1B214608AB02AA0EA8274400F000
:106400004FFD002DEBD1304602F018F915B0F0BD6C
:10641000BDF81470059DC7F38312C3F3C2040EA91F
:106420003046920008238DF81040C7F3831702F01E
:1064300065F9C5F3952508AB3A4628460EA90093A1
:1064400002AB00F0B5FC304602F0F8F815B0F0BD34
:1064500008B5FFF78FFF0448042100F025FC034B2B
:1064600001225A7108BD00BF14F90200E029002082
:1064700038B50C4B0C48002400250022C3E9004528
:10648000FF21C3F81824996083F82024C3F814244A
:1064900002F084F8044610B9044802F007FA2046D6
:1064A00038BD00BF702E0020B8F802006CE7020073
:1064B00099B10E4B0E495B1ADB0815D030B400229F
:1064C0000C4D02E0013293420BD035F82240844259
:1064D000F8D151F8320030BC7047054951F830000E
:1064E0007047002030BC704718467047B8F802006B
:1064F00040F802003C2D0020094B013903EBC0009D
:1065000003290BD8DFE801F00402080604207047D5
:10651000022070474079704700797047002070472B
:1065200040F802002DE9F047954CD4E900239A4247
:1065300084B063D00023C4F81834BFF34F8FD4E97C
:10654000013503EA0501CA1C04EB820614F8222077
:10655000500719D52768327802F00302012A43D088
:10656000022A03D17288023303EB921305EA030176
:10657000D4F81804CA1C04EB820628B99F4239D902
:1065800014F822205207E6D404EB81015A1CC96892
:1065900001912A4004EB820201F00301D2680292C9
:1065A000022903F102062DD0012900F09580D4F8CC
:1065B00010543DB12B6828469B689847EB681D68CE
:1065C000002DF7D16F48704B7049C01AC008000405
:1065D00040F0020000F0E0F8D4E90030C01A18BF23
:1065E000012004B0BDE8F08732880233C2F3831281
:1065F0001344BBE7676004B0BDE8F087002004B037
:10660000BDE8F087BDF806306148C3F38919B9F1D8
:10661000500FC84628BF4FF0500868F38F1308F199
:106620000801ADF8063001F0BBFF07460028BED0D8
:1066300002F000F80023082201A9384602F02AF8E7
:1066400025EA06030133B8EB830F4FEA830A7DD9AD
:10665000BAF1000F00F08D8005EA06010331A8EBC6
:106660000A0804EB81010823524638465FFA88F88D
:1066700002F010F8474942460AF10803384602F092
:1066800009F809F1030906EB9906D4F81834002B30
:106690006BD1D4F8105465B1EB685A792846394665
:1066A000002A5ED02B681B689847EB681D68002D98
:1066B000F2D1384601F0C2FF00230DF103008DF83E
:1066C000033001F0DBFAD4F8183403B966609DF8A2
:1066D000030001F0F9FA7FE7BDF804302C48C3F35A
:1066E0008312062A28BF0622911C62F389138900AF
:1066F000ADF8043001F054FF074600283FF457AFCF
:1067000001F098FF0023082201A9384601F0C2FFDA
:10671000BDF8043013F4707FB7D04FF00008314655
:1067200029404FEA88030331083304EB8101042236
:10673000384601F0AFFFBDF8043008F10108C3F39B
:106740008313434506F10106E9D89EE705EA0601F1
:10675000033104EB810142460823384601F09AFFD9
:106760008FE71D68002D97D1A3E7384601F066FF3B
:1067700032E7084942460823384601F08BFF80E79C
:10678000702E002068F8020040F8020054E7020072
:10679000B8F802007C2E00202DE9F04F644C87B041
:1067A000002306460DF10B008DF80B30A568019112
:1067B00001F064FAD4E9012327681A440132D21B9C
:1067C000012A00F2858004F21C4804F5836A04F271
:1067D00014491BE0BDF80E30C3F389130333090CD1
:1067E0000BEB930B4846009101F0C0FA009900288A
:1067F0003ED04046C4F804B001F08CFAD4E901134D
:10680000226819440131891A012962D801214046C0
:1068100001F080FA504601F099FA484601F096FAE4
:10682000D4E9013C03EA0C02D11C04EB810014F80A
:1068300021E01EF0040F0EF0040129D104EB8202C6
:10684000591CD268039201EA0C0104EB810102F0A9
:106850000302012AC96803F1020B32D0022AB9D01F
:1068600000214846009101F081FA00990028C0D12A
:106870004046C1E743880BEB93130CEA0302D11C9B
:1068800004EB810014F8211001F004010029D5D097
:1068900090F800E00EF0030EBEF1010F0BD0BEF138
:1068A000020F03F1020B02F1030EE3D004EB8E00A2
:1068B0000029EDD1C2E702880233C2F383121344E8
:1068C000DBE7BDF80C30C3F38313090C9B4489E765
:1068D0003A4613400333023205219DF80B0044F879
:1068E0002310226001F0F0F90021124801F004FAAF
:1068F00080F31000F1007B1C2B40019A01F038015D
:106900003D4004EB830341F001010004033540EAFC
:10691000164641EA8221DE6044F8251094F82034BE
:106920001BB1FFF7FFFD0028FBD107B0BDE8F08FDA
:10693000702E00208C3200202DE9F04F684C89B079
:10694000002307460DF11300CDE902128DF8133034
:10695000A56801F093F9D4E9012326681A440132AD
:10696000921B022A00F2858004F21C4804F5836A17
:1069700004F214491BE0BDF81630C3F38913033346
:10698000090C0BEB930B4846019101F0EFF90199CB
:1069900000283ED04046C4F804B001F0BBF9D4E969
:1069A0000113226819440131891A022962D8012190
:1069B000404601F0AFF9504601F0C8F9484601F0F1
:1069C000C5F9D4E9013C03EA0C02D11C04EB8100B7
:1069D00014F821E01EF0040F0EF0040129D104EB9D
:1069E0008202591CD268059201EA0C0104EB810174
:1069F00002F00302012AC96803F1020B32D0022A15
:106A0000B9D000214846019101F0B0F90199002860
:106A1000C0D14046C1E743880BEB93130CEA030255
:106A2000D11C04EB810014F8211001F004010029AD
:106A3000D5D090F800E00EF0030EBEF1010F0BD0A0
:106A4000BEF1020F03F1020B02F1030EE3D004EBDF
:106A50008E000029EDD1C2E702880233C2F383120F
:106A60001344DBE7BDF81430C3F38313090C9B44D4
:106A700089E7324613400333033245219DF8130062
:106A800044F82310226001F01FF9B31C2B4004EBE3
:106A90008303039A1348DA60002101F02DF980F393
:106AA0001000F900731C2B40029A01F038013540A8
:106AB00004EB830341F041010004033540EA17472A
:106AC00041EA8221DF6044F8251094F820341BB19C
:106AD000FFF728FD0028FBD109B0BDE8F08F00BF0B
:106AE000702E00208C3200202DE9F04F6C4C89B0C4
:106AF000002607460DF11300CDE9011203938DF82E
:106B00001360A56801F0BAF8D4E9012326681A4495
:106B10000132921B032A00F2858004F21C4804F51E
:106B2000836A04F214491BE0BDF81630C3F38913DD
:106B30000333090C0BEB930B4846009101F016F957
:106B4000009900283ED04046C4F804B001F0E2F8B5
:106B5000D4E90113226819440131891A032962D842
:106B60000121404601F0D6F8504601F0EFF84846C2
:106B700001F0ECF8D4E9013C03EA0C02D11C04EB6F
:106B8000810014F821E01EF0040F0EF0040129D159
:106B900004EB8202591CD268059201EA0C0104EB55
:106BA000810102F00302012AC96803F1020B32D00D
:106BB000022AB9D000214846009101F0D7F8009987
:106BC0000028C0D14046C1E743880BEB93130CEA81
:106BD0000302D11C04EB810014F8211001F0040120
:106BE0000029D5D090F800E00EF0030EBEF1010FA1
:106BF0000BD0BEF1020F03F1020B02F1030EE3D042
:106C000004EB8E000029EDD1C2E702880233C2F303
:106C100083121344DBE7BDF81430C3F38313090C6C
:106C20009B4489E7324613400333043285219DF8A3
:106C3000130044F82310226001F046F8B21C2A40E9
:106C4000F31C2B4004EB820204EB830C029BD36009
:106C50000021039B1348CCF80C3001F04DF880F371
:106C60001000F900731C2B40019A01F038013540E7
:106C700004EB830341F081010004033540EA174728
:106C800041EA8221DF6044F8251094F820341BB1DA
:106C9000FFF748FC0028FBD109B0BDE8F08F00BF2A
:106CA000702E00208C32002030B4154DD5F8101411
:106CB0000446002071B10B4601E01B6853B1DB684C
:106CC0001A798242F9D101300A28F3D14FF0FF300E
:106CD00030BC7047E3681871D5F810344BB1DA68EE
:106CE000E36812681A60D5F81034DB681C6030BCA9
:106CF0007047C5F81044E268136030BC704700BFAD
:106D0000702E002038B5094BD3F81044012583F8C4
:106D100020544CB1E3685D71236820465B68984756
:106D2000E3681C68002CF5D138BD00BF702E002030
:106D300030B5C38885B004460D461BBB217A0529B2
:106D40001ED0627A82B9134AA08852F82120039299
:106D50000021FFF7ADFB039A0F490346284605B013
:106D6000BDE8304001F07EB8A088FFF7C5FB0B4BB3
:106D70000B4953F82020284601F074F8217AE2E705
:106D800005B030BD074A00920749084A284601F07D
:106D900069F8D3E740E80200A4E702001CE802001B
:106DA000A0E7020098E7020080E7020078E702000F
:106DB0002DE9F04385B04FF0000C0C9C814694F80F
:106DC0000C8084F80CC00E461746184621461D4616
:106DD000FFF7AEFF062F09D8DFE807F0042E343B9B
:106DE000444F1F004946204601F03CF82B7A052B02
:106DF00005D06B7A5BB92749204601F033F820466D
:106E000001F024F884F80C8005B0BDE8F083224A34
:106E10002249204601F026F8EDE7D6E90413F2688E
:106E20000393B3680291CDE900324946D6E90023C5
:106E3000204601F017F8D9E732684946204601F0AC
:106E400011F8D3E7D6E900234946204601F00AF8B5
:106E5000CCE7B3680093D6E900234946204601F009
:106E600001F8C3E7D6E9023201920093D6E9002384
:106E70004946204600F0F6FFB8E7D6E90321B3689B
:106E80000291CDE900324946D6E90023204600F0C0
:106E9000E9FFABE714EF020098E70200A0E7020069
:106EA000082900D970472DE9F04F9B4683B0002494
:106EB0001B7B8BF80C400D46064659461046904603
:106EC0000193DFF8D0902C4FFFF732FF05E0325DE1
:106ED000013400F0C7FF082C09D0A54239465846B6
:106EE000F5D84946013400F0BDFF082CF5D12349FF
:106EF000DFF8A490224C234F584600F0B3FF4FF028
:106F0000000A0DE0D15D11F0970F08BF2E22214637
:106F100058460AF1010A00F0A5FFBAF1080F10D097
:106F2000554505D916F80A207E2AEBD92E22EEE720
:106F3000494658460AF1010A00F094FFBAF1080FD9
:106F4000EED198F80830052B02D098F8093063B9D3
:106F50000D49584600F086FF584600F077FF019B28
:106F60008BF80C3003B0BDE8F08F084A084958464A
:106F700000F078FFECE700BFB0E70200BCE70200DA
:106F8000C0E7020095F6020014EF020098E7020045
:106F9000A0E70200B8E70200ACE702002DE9F04FDD
:106FA0003D4B93F800E087B0BEF1000F5FD00027A3
:106FB000DFF8F08002973C46012506E0029B013392
:106FC00002939DF80840A64551D9344BD8F80010DB
:106FD0001E68D8F8042016F83400A0F1200BC0F188
:106FE000200305FA0BFB25FA03F34BEA030305FA2A
:106FF00000FC01EA0C0902EA030A06EBC40759EA9D
:107000000A0B0397DAD021EA0C0122EA0303C8E94C
:10701000001302F081F916F83430214AC3F1200C34
:10702000D2E90067A3F1200E614600FA0EF405FADA
:107030000EF225FA01F105FA03FE20FA0CFC0A43D0
:107040000EEA060144EA0C0404913A4000FA03F106
:10705000009101940592DDE90412DDE900BC62456E
:1070600008BF594506D00C4B93F800E0A6E707B0DF
:10707000BDE8F08F03994A68002AF4D04978A1F15D
:107080000101B1FA81F14909091AB1FA81F14909FD
:1070900018469047E7E700BF2C33002068330020F4
:1070A00058330020603300202DE9F8438046224801
:1070B00000F03AFCE0B9214D4FF0010CD5E9002376
:1070C000A8F12004C8F120012CFA01F10CFA04F413
:1070D0000C430CFA08F902EA090603EA040756EA27
:1070E000070107D022EA090223EA0404C5E90024C3
:1070F000BDE8F883404602F00FF9114B1E68A8B9AD
:10710000586826EA090620EA0400D5E900211E6035
:107110000C4E586042EA09020C432A6031686C60E8
:107120000548BDE8F843002200F0A8BB586849EACA
:1071300006062043E9E700BF343300206033002017
:107140005833002030330020042A3BD92DE9F04188
:1071500082B0144605460E4601F076FF68B31E491C
:107160001E4A1F4B0D601F481F491C6016700023EC
:107170000022741EC0E90023C1E90023E4B21EB35B
:10718000DFF8708005EBC4040027032602E0AC4260
:107190001AD01C46A37820788DF80530424601A904
:1071A0008DF806708DF8046001F058FFA4F1080313
:1071B0000028ECD002B0BDE8F08101F0F7FE002815
:1071C000CDD0F7E707207047084A0948002100F0B2
:1071D00043FB02B0BDE8F081683300202C3300206F
:1071E0003033002058330020603300209D6F0200B0
:1071F00054E80200A970020070B5084D2B785BB10D
:10720000074E00243368012113F8340002F018F807
:107210002B780134A342F5D8002070BD2C33002018
:107220006833002000B585B00346002101AA44F26E
:107230000100CDE90111039300F004F805B05DF8F9
:1072400004FB00BF10B572B6FFF75CFDFFF76AF9EB
:107250000028FBD1104B114C1149E41AE408240416
:1072600044F00100FFF798FA0E4B1B68DB0700D5CE
:1072700000BE0D4944F00200FFF78EFABFF34F8FB6
:107280000A490B4BCA6802F4E0621343CB60BFF3B8
:107290004F8F00BFFDE700BF40F8020068F8020012
:1072A00058E80200F0ED00E064E8020000ED00E0C4
:1072B0000400FA0559B142B1531E1A4005D182604B
:1072C00001608380C26010467047092070470E201D
:1072D000704700BF10B48468C26803468088121BE0
:1072E000904203D204205DF8044B7047DA681C68B2
:1072F00002400020A154DA680132DA605DF8044BE4
:10730000704700BF03468068DA6890420DD010B421
:1073100098689A881C6802400020A25C0A709A68EB
:1073200001329A605DF8044B70470520704700BF3A
:10733000F8B52049204B0024C1F84041C1F8444130
:10734000C1F84841C1F84C41C1F80041C1F80441BD
:107350001B6833B31948D1F8045501681A686D1ACF
:1073600025F07F45AA4227460DD8197CDE69AD1A63
:10737000144419B1D3E905201F7490471EB1334658
:107380001A68AA42F1D90E490E4A0B7812789A422D
:1073900008D00D490D4A41F823404FF48013C2F83C
:1073A0000031F8BD531CDBB2022B08BF00230B7069
:1073B000EFE700BF001001408C340020883400202B
:1073C00085340020843400207C34002000E100E07B
:1073D0002DE9F04FB34AB44913780978994285B042
:1073E00000F088810133DBB2022B08BF0023AF48D5
:1073F0001370AF4A0568DFF8D08252F82310D8F82E
:1074000000606B1823F07F430360002E00F0C18101
:1074100000200746044684463346AE4613E0D8684B
:10742000DD69C3F800C0891A144438B10EEB0402B8
:1074300022F07F42C3E90120DF611F460120002DB9
:1074400000F05F812B461A688A42E8D9002800F0D4
:107450008B81C8F800309946521A1A6001230093B4
:10746000944B954EDFF864A243F0010301934D461F
:107470004FF0000B002F31D0D7E901303C46FF69B7
:107480008A4ADFF84CC21268991A21F07F4161459F
:1074900000F2DD800B18236000220121C4E90122E3
:1074A000E2612174002D00F0F3802A689A4280F096
:1074B000E880294605E0D1F800E09E4580F0CF80C5
:1074C00072460846C9699C469B1A0029F3D123607D
:1074D000E161C4612C462546002FCDD17078337808
:1074E000984247D09C460CEB4C0CB27806EBCC0C87
:1074F000591CCBB29A429CF80420337004BF00237D
:107500003370022ADCF8084024D0032A18D0012A5C
:10751000E6D1227C002AE3D1DCF80C306360DCF891
:107520001000A060DCF81410E1609AF800E0DCF8CC
:107530001810A161BEF1000FA2D0626013469FE750
:10754000002DCDD000232B74ED69002DFBD1C8F8A0
:107550000050C3E755B1AC4200F0BC802A4601E0C0
:10756000944239D01146D269002AF9D100222274FE
:107570009842B7D1BBF1000F01D1A94541D0002DF0
:1075800044D04A4A4D4B1468D3F804654C4FD5F8A3
:1075900000803A78351B25F07F450335002A00F03E
:1075A000B580464AA8452CBF4444641924F07F4462
:1075B000C2F84045D2F804359B1BA41B23F07F433F
:1075C00024F07F440333A34200F2B98000238AF8F9
:1075D000003005B0BDE8F08F8C427DD0E0692268B4
:1075E000C861002858D0AC46036813440360AC451A
:1075F00052D0002233787078227465464FF0010B28
:10760000B6E7009B002BE1D0002DBAD12B4E2D4ABE
:10761000284C4FF400314FF480330127C2F880101A
:107620003C43C6F848334FF43C60C6F808337760F3
:10763000A0471E4BB7604FF43C601D60A047204B35
:107640001D7000238AF8003005B0BDE8F08FD31A12
:1076500023F07F4383420BD2C31A23601CE772449A
:10766000A2EB0C020A602360E161C4612C4632E7A0
:1076700000230122C4E90033A360E36122743DB119
:107680002A68C8F80040D31A2B60E561254623E735
:10769000C8F8004025461FE700223378707822742E
:1076A00066E700BF84340020853400208834002041
:1076B0007C34002080E802006C3300200010014080
:1076C0007934002000E100E08C3400207834002080
:1076D000FEFF7F0029462A46D5F81CC0C8F800C026
:1076E000BCF1000F42D0D0691268C86100287FF455
:1076F0007BAF7CE7DFF8B4800027D8F800900097D4
:10770000AEE6A946C8F800500090A9E62349244AED
:107710004FF48030C3F844034FF00109C3F8040369
:107720004FF40030C1F8800142F001020860C3F854
:1077300000904FF43C60904787F8009031E7184B79
:10774000D2F80415C2F8401543F001034FF43C6031
:107750009847124B4FF40032C3F8002100238AF8F7
:10776000003005B0BDE8F08FB14675E6CDE90221E5
:107770000C4A0D4801239360C0F800C08AF800301D
:107780004FF43C60019B9847DDE90221D8F800C026
:10779000A9E70123B1463746009361E600E100E026
:1077A00080E8020000100140883400208C34002062
:1077B0002DE9F8431F4D204E204FDFF898804FF4FD
:1077C00080334FF400324FF001090024C6F88020C6
:1077D00047EA0907C5F848334FF43C60C5F8083359
:1077E000C5F80490B847C5F808904FF43C60C8F855
:1077F0000040B847124A134B13491C601470134BD6
:10780000134A0C700B2114701C8099704FF4801275
:10781000C023C6F8802186F814333260C5F80845C5
:1078200086F81133D5F80435C8F800302046BDE895
:10783000F88300BF0010014000E100E080E8020092
:10784000793400208C340020843400206C330020F4
:107850008534002088340020074B9B783BB142B12F
:1078600038B10368187C10B959745A617047082000
:1078700070470720704700BF6C3300202DE9F043AC
:10788000264EB37883B0002B3AD00446002837D078
:1078900004290D4638D9436993B3437C0027012B53
:1078A0000DF107000CBF8846B84691468DF8077069
:1078B00000F0E4F97378B0783278591CC9B2884284
:1078C00008BF39468A4223D003EB430306EBC303C8
:1078D0000120134A18719C60D2F804259DF8070016
:1078E0007170C3E90325C3E9058900F0EDF90D4B7B
:1078F0004FF480123846C3F8002103B0BDE8F0838E
:10790000082003B0BDE8F083072003B0BDE8F08392
:107910009DF8070000F0D8F90420EEE76C33002052
:107920000010014000E100E070B51B4EB37882B05A
:107930004BB3044638B343692BB3002505740DF1EE
:1079400007008DF8075000F099F97378B078317816
:107950005A1CD2B2904208BF2A46914216D003EB7D
:10796000430306EBC30302219DF807009C601971D5
:10797000727000F0A9F9094B4FF480122846C3F841
:10798000002102B070BD082002B070BD9DF8070054
:1079900000F09AF90420F4E76C33002000E100E0E5
:1079A00030B50478012C83B004D0022C2DD0F4B172
:1079B00003B030BD4368374D19782846FFF78AFC7D
:1079C000002837D1AA68EB689A4205D0324B8DF86F
:1079D00000001B6868469847A968EB68AA885B1A8C
:1079E0009A4240D22D4B01221A7003B030BD2C496F
:1079F0002C48FFF787FC58B3274B03221B688DF8F0
:107A000000206846984703B030BD274B274D1A78B1
:107A1000C168AA5C01918DF800409AB9244903F12C
:107A20000C00012202F0CEF91B4B68461B689847F8
:107A300003B030BD184B01901B688DF800406846BC
:107A40009847C9E71A49181D012202F05FFCEBE7CD
:107A50001548164A0378D35CB3B1114901220430AA
:107A600002F0F2FBA4E71048104A0378D35C2BB174
:107A70000F490122043002F049FC99E70C49012228
:107A80000C3002F09FF993E7054901220C3002F017
:107A900025F98DE79434002090340020A434002090
:107AA000BC340020A8340020E82900201C3F00201E
:107AB000B83400202DE9F041334D8AB02A60002906
:107AC00056D08A8880460D46304809681C46FFF724
:107AD000F1FB10B10AB0BDE8F081AA89A9682C4871
:107AE000FFF7E8FB0028F5D12A4E98F810C02A4F7E
:107AF0000FCE02AD0FC596E80F0098F81160BCF1EB
:107B0000000C85E80F0018BF4FF0010CD8F80430C6
:107B10000193002ED8F81430D8F808508DF824407E
:107B200014BF0E220022D8F80C40D8F800608DF85F
:107B30001D200893194A019B8DF81CC002A93846E4
:107B4000CDE904450396029301F08CF90028C1D1D8
:107B5000D8F80030124A01331070BBD0114A3B787C
:107B6000D35C4BB11049381D012202F0CFFBB1E7C5
:107B700007200AB0BDE8F0810B4907F10C00012293
:107B800002F020F9A6E700BF9034002094340020D2
:107B9000A834002088E80200E8290020A17902002A
:107BA000A43400201C3F0020B834002070B5114DD3
:107BB000014611482E78FFF7A5FB04460EB9204672
:107BC00070BD0E480E4A0378D35C00222A7053B170
:107BD0000C490430012202F099FB0028EFD0FFF796
:107BE00021FB204670BD074901220C3002F0EAF863
:107BF000F3E700BFA434002094340020E8290020DB
:107C00001C3F0020B834002070B501461548FFF72E
:107C100061FB044608B1204670BD134D134E2B780E
:107C2000F35CA3B1281D02F063FB0028F3D11049D7
:107C30000C48FFF767FB0028EDD12B780C49F35C6B
:107C400001224BB1BDE870400A4802F0FDBA05F1CF
:107C50000C0002F0ABF8E8E7BDE87040064802F01F
:107C60003DB800BFA8340020E82900201C3F0020B8
:107C7000BC340020EC290020F429002070B4EFF37C
:107C8000108472B60D4B9A68AAB90D490D4E0125A4
:107C90009D60D1F8805035401D60C1F88060D1F8FA
:107CA00084505D604FF0FF33C1F88430027004B936
:107CB00062B670BC704701230370F8E7103F0020E4
:107CC00000E100E0FC06FFBD094B9A687AB170B98B
:107CD00010B4EFF3108172B6064A1C6814605C6839
:107CE0005460986001B962B65DF8044B7047704704
:107CF000103F002000E100E010B4034653E8000FFD
:107D00000A4643E8002494F0000FF7D15DF8044BD5
:107D1000704700BF10B4034653E8002F02EB010088
:107D200043E8000494F0000FF6D15DF8044B70476F
:107D300010B4034653E8002FA2EB010043E800040F
:107D400094F0000FF6D15DF8044B704710B4034671
:107D5000012253E8001F41EA020043E8000494F0C6
:107D6000000FF6D15DF8044B704700BF10B4034616
:107D7000002253E8000F00EA020143E8001494F0E7
:107D8000000FF6D15DF8044B704700BFB8B130B4B6
:107D9000D0E90112521A0468D2B2531E2160DBB23C
:107DA00042B101680A685C1E551C0D601370E3B295
:107DB000FF2BF6D103680020187130BC70470E20ED
:107DC000704700BFF0B583B0044600250DF10700F1
:107DD0008DF80750FFF752FFD4E900311A688A4244
:107DE00010D9511E19602168A3680F6812F8015C50
:107DF0000A79268AE068DB1BDBB29A4206FB05059E
:107E000038BF0B719DF80700FFF75EFF284603B0EF
:107E1000F0BD00BF30B5054683B000230DF107006B
:107E20000C468DF80730FFF729FF2A681368591CA4
:107E30001160E9682A8A641AB4FBF2F41C709DF898
:107E40000700FFF741FF03B030BD00BF826842B1B9
:107E500010B5044643690168006998470023A36090
:107E600010BD70470EB400B582B0039921B104ABC8
:107E700001AA019300F0ACF802B05DF804EB03B086
:107E8000704700BF2DE9F04F164683B0B142DDE9DF
:107E90000C920F4605469A46C0F095800B464FF06F
:107EA0000108B3FBF6F39E4208F10108F9D9D04569
:107EB00038BFD04612F00103019302D1B9F1000F8F
:107EC0005ED1AA68012403E00AF1FF3A06FB04F43C
:107ED000BAF1010FF8D8B7FBF4F39E42F6D9DFF8F8
:107EE000ECA007E0B442B4FBF6F31AD3AA681C4630
:107EF000B7FBF3F31AF803B0BBF10A0F04FB1377D7
:107F000028D02B68511CA96003F802B0D5E90132D2
:107F10009A42E7D32846FFF799FFB4FBF6F3B44241
:107F2000E4D2019B9BB1B9F1000F10D02024C845C9
:107F300009F1FF390BD2AB682A68591CA960D454E7
:107F4000D5E901329A4214D2B9F1000FEFD103B052
:107F5000BDE8F08F511C2B68A9604FF00D019954BA
:107F6000D5E901329A42CCD32846FFF76FFFAA68C1
:107F7000C7E72846FFF76AFFB9F1000FD7D1E6E758
:107F800093071AD42024AA68C84502F1010199D2A6
:107F90002B68A9609C54D5E901329A4209F1FF3956
:107FA00003D2B9F1000FEFD18CE72846FFF74EFF5F
:107FB000AA68B9F1000FE7D184E7BAF1000F0CBF4E
:107FC00030242024DFE74FF0010870E7A8E8020022
:107FD000002900F054822DE9F04FDFF8B8950C78B5
:107FE00085B0064690460D464FF00D0A10E00A2C6B
:107FF000B36800F0AD803268591CB160D454D6E942
:1080000001329A4280F0A0802C78002C00F087800A
:108010000135002C00F08380252CE8D1294600276B
:108020000D4611F8012B2D2A00F08880302A00F02F
:1080300088802B2A7AD02A2A00F09980A2F1300376
:10804000092B4FF000040BD804EB840402EB44042A
:1080500015F8012FA2F13003092BA4F13004F3D954
:108060002E2A00F09080002301E015F8012F02F085
:10807000FB016829F9D0252A00F07781583AD1B25E
:10808000202947D8202A45D8DFE812F035014400DE
:1080900044004400440044004400440044004400C0
:1080A0004400430113014400440044004400130110
:1080B000440044004400440044004400D200440012
:1080C0004400A20044009400440044003501012013
:1080D0009842024638BF1A460292002C40F0508166
:1080E000B80740F16E81002B40F04E821C46BBF178
:1080F000000FC0F20A827A0700F11A8207F0030229
:10810000022A00F0EA81CDE9004759460A223046AA
:10811000FFF7B8FE01352C78002C7FF479AF337B64
:10812000002B40F01C8105B0BDE8F08F0D4611F822
:10813000012B2D2A47F004077FF478AF47F00107A1
:108140006EE747F002076BE73046FFF77FFE5BE71D
:108150003268591CB16002F803A0D6E901239342AA
:10816000FFF449AF3046FFF771FEB36843E7D8F834
:1081700000301A1DC8F800206A781C682E2A05F104
:1081800001057FF470AF6A78A2F13003092B05F185
:1081900001054FF000033FF66AAF03EB830302EBE8
:1081A000430315F8012FA2F130010929A3F130038F
:1081B000F3D95CE7D8F80020111DC8F80010116849
:1081C0003046CDE900470A22FFF75CFE0135A2E701
:1081D000D8F800301A1DC8F8002017F00107D3F8AE
:1081E00000B040F0F080BBF1000F03D0584605F01E
:1081F0006DF90746BC4240F24381002C00F04081FB
:10820000202205E0BC4200F03B81002C00F03881C8
:10821000B1683368481CB0605A54D6E901309842BE
:1082200004F1FF34EED33046FFF710FE2022E9E7D9
:10823000D8F80020131DC8F80030B36831681768FB
:10824000581C3022B060CA54D6E90123934280F012
:10825000EF803268581C7821B060D154D6E90132E1
:108260009A4280F0E0800F2F03D93B461B090F2B69
:10827000FCD84FF0805406E00F2C4FEA14137FF621
:1082800049AFB2681C46B7FBF4F319F803B0BBF171
:108290000A0F04FB137754D03368511CB16003F804
:1082A00002B0D6E901329A42E6D33046FFF7CEFD5E
:1082B000E2E7D8F80020111DC8F80010D2F800B08D
:1082C0008BEAEB72A2EBEB72092A7FF700AFDFF8C3
:1082D000C8C2012011466329ACFB02E200F1010093
:1082E0004FEAD202F6DC9842024638BF1A460292A2
:1082F000002C45D1F4E6D8F80020111DC8F8001074
:1083000011683046CDE900471022FFF7BBFD01356B
:1083100001E7D8F800301A1DC8F800201C78B368AF
:108320000A2C00F011813268591CB160D454D6E98E
:1083300001329A42FFF4EEAE3046FFF787FD013579
:10834000E9E63368511CB16003F802A0D6E90132B6
:108350009A42A1D33046FFF779FDB2689CE73046D8
:1083600005B0BDE8F04FFFF771BDB3683168581C28
:10837000B060CA54D6E901329A42DDD20135CAE66C
:10838000BBF1000F59DB7A0757D4B80702D5002B91
:108390003FF4ADAEF9073FF5AAAE94B120220299A1
:1083A000A142BFF4A4AEB168481CB060306842542A
:1083B000D6E90101814204F1FF3480F0D480002C21
:1083C000EDD1002493E69BF80030002B00F0E08014
:1083D000B0685F46CBF101020A2B02EB070B3CD0E1
:1083E000411CB16031680B54D6E90130984226D265
:1083F00017F8013F002BEFD15C457FF68BAE2027AD
:1084000002E05C453FF486AEB2683368511CB1604F
:108410009F54D6E901329A4204F1FF34F1D3304639
:10842000FFF714FDEDE73046FFF710FDB2681AE7DD
:108430003046FFF70BFDB3680BE7013CA5E730467C
:108440000292FFF703FD17F8013F002BD4D0029AE8
:10845000B0680A2B02EB070BC2D1411CB160316836
:1084600001F800A0D6E901108842B9D33046CDE921
:108470000232FFF7EBFCDDE90232B068B0E770478B
:108480009BF80040002C3FF445AE0A2CB0680ED09B
:108490003368421CB2601C54D6E90130984214D2B1
:1084A0001BF8014F002C3FF435AE0A2CF0D1336895
:1084B000421CB26003F800A0D6E901309842E7D32D
:1084C0003046FFF7C3FCB068E2E73046FFF7BEFC7A
:1084D0001BF8014F002CD8D11CE6002B7FF413AE03
:1084E0008CB130220299A142BFF40DAEB168481C94
:1084F000B06030684254D6E90101814204F1FF3492
:108500003BD2002CEED10024FDE5B1684A1CB260DC
:1085100032682D205054D6E901219142CBF1000B55
:10852000FFF4ECAD30460393FFF790FC039BE5E5C9
:10853000B1684A1CB26032682B205054D6E9012140
:108540009142FFF4DBADEDE73268591CB16002F8EF
:1085500003A0D6E901239342FFF4E5AE3046FFF7CE
:1085600075FCB368DFE630460393FFF76FFC039BAF
:108570002022002C7FF413AF23E730460393FFF74C
:1085800065FC039B3022BCE7F9073FF5B0AD18E767
:108590009B4631E7A8E80200CDCCCCCCFFF7F6BB78
:1085A0002DE9F041058A0331043D4E198046B6FBA2
:1085B000F5F6FFF707FCA0B3F6B24FF48073013E67
:1085C0000446C580C0F8008083802BD00346002578
:1085D00008E06279AE4202F1010262713860C0F8CF
:1085E00000801FD040461F46FFF7ECFB01350346D5
:1085F0000028EED16779791E17D0224601339942BF
:108600001268FBD1D2F800805FB12668002501E036
:1086100034463668214601354046FFF7FBFBAF4242
:10862000F6D800242046BDE8F08120682146FFF7F7
:10863000F1FBF6E704300121FFF76CBB2DE9F041B7
:10864000012104460430FFF773FB10F0FF0301D053
:10865000BDE8F0816779791E16D022460133994230
:108660001268FBD1D2F80080002FF1D026680025D7
:1086700001E034463668214601354046FFF7CAFB23
:10868000AF42F6D8BDE8F08120682146BDE8F04150
:10869000FFF7C0BB2DE9F8430546C688407914466C
:1086A00006FB00F2043A04EB030C1F1D624538BFC1
:1086B000D41ABE428846B7FBF6F106FB117002D809
:1086C00001392D68FCD1371AA74228BF27469CB133
:1086D0004FF000090430E41B28443A4608EB090136
:1086E00004F004FEA642B9442D6837464FF000005E
:1086F00028BF2746002CEDD1BDE8F8832DE9F843CB
:108700000546C6884079144606FB00F2043A04EB9D
:10871000030C1F1D624538BFD41ABE428846B7FB02
:10872000F6F106FB117002D801392D68FCD1371A19
:10873000A74228BF27469CB14FF0000904302918F2
:10874000E41B3A4608EB090004F0D0FDA642B94408
:108750002D6837464FF0000028BF2746002CEDD18A
:10876000BDE8F88333DF704741DF7047064A074BA7
:1087700010B5002414701C60BFF35F8F04490548D6
:1087800000F0A2F8204610BDC9340020CC340020EF
:10879000C4E80200C034002000B583B000230DF10E
:1087A00007008DF80730FFF769FAF1EE103A23F071
:1087B0009F03E1EE103ABFF35F8F0B4B4022C3F8EB
:1087C00084219DF80700FFF77FFA04F089FB28B9A0
:1087D00020BF40BF20BF03B05DF804FBFFF7C4FF1C
:1087E00003B05DF804FB00BF00E100E0F8B5294DDF
:1087F000044601212846FFF77FFABFF35F8FD8B9FF
:10880000042C41D0244B1A786ABB244E01223470C8
:108810001A70234C636883B1274603E000F05EF8CA
:10882000636853B11B683078984703463846002B7D
:10883000F4D1BFF35F8F2B60F8BDFEF763FAFDF74D
:1088400071FE0028FBD13378023B012B0FD904F0D5
:1088500047FBD8B94FF080430122C3F80025BFF38E
:108860004F8F20BFFDE7BFF35F8F2860F8BDBFF3D8
:108870004F8F0C490C4BCA6802F4E0621343CB6083
:10888000BFF34F8F00BFFDE7044EC2E7FFF76AFF5B
:10889000E0E700BFCC340020C9340020C8340020F9
:1088A000C034002000ED00E00400FA0582680023D7
:1088B000936082681361826853618268D3608268C2
:1088C000536082681360704701600B6843604A68B8
:1088D000934204BF00234360704700BF436843B125
:1088E000026891680B4443605268934204BF0023BE
:1088F00043607047114910B4A1F5947205E052F835
:108900003330984238BF21460CD28C1AE30F03EB68
:10891000E4035B10914202EBC304F0D808485DF811
:10892000044B704702D904F10802EEE76068044B7B
:108930005DF8044B002808BF18467047F8ED0200A8
:10894000BCEC020070B5161E07DD0C468D1914F83C
:10895000010BFFF759F9A542F9D1304670BD00BFB0
:1089600010B50C462046FFF721F90528FAD0012062
:1089700010BD00BF10B44FF080414FF08052002076
:10898000C1F80C015E4BC1F81001C1F83805D2F8EE
:108990000414C3F82015D2F80814C3F82415D2F82B
:1089A0000C14C3F82815D2F81014C3F82C15D2F8FB
:1089B0001414C3F83015D2F81814C3F83415D2F8CB
:1089C0001C14C3F84015D2F82014C3F84415D2F88B
:1089D0002414C3F84815D2F82814C3F84C15D2F85B
:1089E0002C14C3F85015D2F83014C3F85415D2F82B
:1089F0003414C3F86015D2F83814C3F86415D2F8EB
:108A00003C04C3F86805D2F840043E49C3F86C053D
:108A10000968D2F84424C3F87025082924D04FF0FF
:108A20008043D3F80024D20744BF6FF00102C3F89B
:108A30000024354AD2F8883043F47003C2F88830F5
:108A4000BFF34F8FBFF36F8F4FF01023D3F8002287
:108A5000002A23DBD3F80432002B1FDB2B4B2C4ADC
:108A60001A605DF8044B70472A4B1B68002BD6D167
:108A700029482A4A2A4C04602A492B4BFB20C2F879
:108A800018050A681B68294822F00F0203F00F033B
:108A900013434FF400720B600260C0E7244A0123C5
:108AA000C2F80435D2F80034002BFBD04FF010236D
:108AB00012211F4AC3F80012D2F80034002BFBD059
:108AC0004FF0102312211A4AC3F80412D2F80034CE
:108AD000002BFBD000231649C2F80435D1F800342E
:108AE000002BFBD0BFF34F8F0749124BCA6802F42B
:108AF000E0621343CB60BFF34F8F00BFFDE700BFC1
:108B000000C000403001001000ED00E0FC29002012
:108B10000090D003340100108C56004000F000405B
:108B200048810300E40E00405802001040960240C5
:108B300000E001400400FA05074B1B5C1F2B8ABFB5
:108B4000064A4FF0A04203F01F03D2F80405D840B4
:108B5000C04300F001007047FCED0200000300502C
:108B6000064B1A5C1F2A86BF054902F01F024FF010
:108B7000A04101239340C1F80C357047FCED020081
:108B800000030050064B1A5C1F2A86BF054902F0FD
:108B90001F024FF0A04101239340C1F808357047F0
:108BA000FCED0200000300504FF0A04310B44FF45E
:108BB00080404FF400544FF400414FF48032C3F82A
:108BC0000845C3F80805C3F80815C3F808255DF87B
:108BD000044B70474FF0A04310B44FF480404FF463
:108BE00000544FF400414FF48032C3F80C45C3F8F1
:108BF0000C05C3F80C15C3F80C255DF8044B704741
:108C00000A4B185C1F288ABF09494FF0A04100F0A9
:108C10001F00D1F804350122824022EA03001340EC
:108C2000C1F80805C1F80C35704700BFFCED020023
:108C300000030050074B1B5C1F2B8ABF064A4FF0F6
:108C4000A04203F01F03D2F81005D840C04300F043
:108C500001007047F8ED0200000300500B2809D016
:108C60000C2809D0182809D019280CBF03204FF070
:108C7000FF30704700207047012070470220704786
:108C8000014B185C704700BFF8ED0200C20730B41A
:108C90000ED483070AD54FF0A0430C22C3F82C272B
:108CA000C3F83027C3F86027C3F8642730BC704787
:108CB0004FF0A0430322C3F834274FF40055C3F804
:108CC00038274FF48044C3F83C274FF40041C3F8E1
:108CD00040274FF48032C3F80855C3F80845C3F85D
:108CE0000815C3F80825D4E710B568B90E4CA36879
:108CF000012262703BB1D3E900230020A2609847B3
:108D0000A368002BF7D110BD0128FCD1064C2369C4
:108D1000A070002BF7D0D3E90023012022619847EF
:108D20002369002BF7D110BDD034002070B910B5E5
:108D3000074CA368012262703BB1D3E900230020F5
:108D4000A2609847A368002BF7D110BD704700BF01
:108D5000D034002030B5012883B004D003281DD0C2
:108D6000B0B103B030BD224C00230DF107008DF8E7
:108D70000730FEF783FF23784BB3E3689DF80700C5
:108D800001330122E360A270FEF79EFF03B030BD05
:108D9000184B0122C3F8802003B030BD144C00F002
:108DA000B1F800230DF107008DF80730FEF766FFDC
:108DB000E368013BE360E5682DB19DF80700FEF72D
:108DC00083FF03B030BD00F0AFF8A570F5E70A48A7
:108DD0006360A3602361E36000F088F804F080F82A
:108DE00010B101232370C8E700F08CF8F9E700BF49
:108DF000D034002000E100E0E98C020030B585B0FD
:108E0000047845688DF80040D0E90240064A074BD7
:108E1000039053F82130019552F821108DF8084045
:108E20006846984705B030BDE4340020EC3400209B
:108E300030B585B0047845688DF80040D0E902402F
:108E4000064A074B039053F82130019552F8211040
:108E50008DF808406846984705B030BDE4340020DE
:108E6000EC3400202DE9F047DFF8748090F800E042
:108E70004B7F08F80E300D46074616460FCD88B0DA
:108E80006C460FC495E80F003D78DFF85890DFF886
:108E900058C018F8055049F82E6084E80F004CF8C7
:108EA0002E00CDF810E05DB1002E0B4A694607F1A7
:108EB000040008BF324601F0BFF808B0BDE8F087F3
:108EC000002E064A694607F10C0008BF324600F042
:108ED00011FE08B0BDE8F087FD8D0200318E020062
:108EE0001C3F0020EC340020E4340020044A1379B5
:108EF00023B9012110609180184670478520704782
:108F0000F4340020074B1A68D20704D4C021012290
:108F100083F800131A604FF080430122C3F818252C
:108F2000704700BF00E100E0044B01221A604FF0DF
:108F30008042D2F81834DB03FBD470470C000040A9
:108F400010B5174B1A6882B062B10021154A19603A
:108F50001B68507900934FF080410123009CC1F8B9
:108F6000083398B1104B1A68BAB100221A601B6816
:108F700001934FF0804202210A4B0198C2F8081376
:108F80001B68012002B0BDE81040184711685371FA
:108F90008847054B1A68002AE7D102B010BD00BF10
:108FA00000010040F43400200401004030B5224CA0
:108FB00094F86A5083B0002D3AD14FF0FF304FF053
:108FC000FF314FF0FF33C4E90001C4E90C01C4E9EB
:108FD0000E01C4E91001C4E91201C4E91401C4E995
:108FE00016010622294604F16400C4E90233C4E9EB
:108FF0000433C4E90633C4E90833C4E90A332366F9
:1090000004F082F90D4A0E4B0E491D60C02082F813
:109010000603402010601B68019301984FF0004345
:109020000122284684F86A20C1F8043303B030BD19
:10903000082003B030BD00BF0035002000E100E093
:109040007C61004000600040034B93F86A000038E8
:1090500018BF0120704700BF00350020F0B4754BE9
:109060001D1895F93040002C61DA8C78A707C4F3FD
:10907000400C53D41C6A013400F0D5805C6A013482
:1090800000F0CA800C260A2453F82450013552D02F
:10909000651CB5423FD253F82570013700F0B4800B
:1090A000A51CB54237D253F82570013700F0AC80CB
:1090B000E71CB7422FD253F8275001353AD0271D6D
:1090C000B74228D253F82750013533D0671DB74235
:1090D00021D253F8275001352CD0A71DB7421AD200
:1090E00053F82750013525D0E71DB74213D253F866
:1090F000275001351ED004F10807B7420BD253F8B0
:109100002750013516D00934B44204D2DC6A013448
:1091100008BF0B240FD00420F0BC70471C6801343A
:1091200074D05C6801346DD008260224ACE70820B6
:10913000F0BC70473C461E1865B243F8242086F800
:109140003050BCF1000F02D11C4484F858008A78DA
:1091500054071AD4D60744D41F284C7887BF364EFC
:1091600000F01F0202464FF0A04602F5E072A40094
:1091700046F82240314EC40800F0070C375D01224A
:1091800002FA0CF23A4332558A7812F002021CD0ED
:10919000AB0003F1804303F5C0430978D3F81045D1
:1091A00024F44F3424F44074C3F810450202090437
:1091B000D3F8100501F4403102F47C520A43024313
:1091C000C3F810250020F0BC7047083D2B440878F8
:1091D00093F8601041EA801183F860101046F0BCEB
:1091E00070471F2887BF144A00F01F0404464FF041
:1091F000A04202EB8402D2F8004724F00204C2F835
:109200000047B7E7012496E72C4694E7002485F849
:1092100030401A6025469AE7092685F830605A6280
:109220003446354690E7082685F830601A623446A1
:10923000354689E7003500200003005064350020E2
:1092400070B4324C251883B095F93030072B22DDED
:10925000234493F858309B09032B46D0012B0CBFB5
:109260004FF400324FF440321F288ABF284B4FF092
:10927000A04300F01F0003EB8000D0F8003723F478
:109280004033C0F80037D0F800371A43C0F8002741
:1092900003B070BC7047DAB2072AF9D8980000F121
:1092A000804000F5C04003F140029200D0F8106504
:1092B00092B202F1804202F5C04246F00106C0F8C7
:1092C00010650020106012680192019A0029DFD019
:1092D00095F9302054F82220002AD9D00D490122D6
:1092E00002FA03F3C1F80433D2E71F288ABF084A01
:1092F0004FF0A04200F01F03D2F8102598BF03469C
:10930000DA4002F0010202321204ADE7003500201B
:1093100000030050006000401F288ABF054B4FF03B
:10932000A04300F01F00D3F8103523FA00F000F03E
:1093300001007047000300502DE9F047002388B07A
:10934000CDE90233C94A1168012900F04B821E465B
:10935000C74B1A68012A00F03782C64B1A68012AE7
:1093600000F02482C44B1A68012A00F01182C34B1A
:109370001A68012A00F0FE81C14B1A68012A00F028
:10938000EB81C04B1A68012A00F0D881BE4B1A68E5
:10939000012A08D0BD4B1A68012A00F02F8216BBA3
:1093A00008B0BDE8F087BA4AD2F804231706F1D511
:1093B00000221A6019680091196E0098012903F1C2
:1093C000600346F080060ED11A601B6801934FF0CF
:1093D000A042019BD2F81025AE4B0292D3F8103573
:1093E000039346F00046AC4F00240125A30003F18F
:1093F00080432E4203F5C0434FEA45050BD0D3F816
:10940000100557F82420D3F81015C0F30520C1F338
:10941000014102B190470134082CE7D1002EBFDA98
:109420009D4C9C4F4FF0FF304FF0FF31CDE90601CE
:1094300094F960000DF110080023451CC8F80430B1
:1094400004934FF0010600F0F780C0F3C20908ABA7
:1094500003EB090E00F007031EF8082C06FA03F3CD
:1094600012EA03055FFA80FC00F03F0021D02218C9
:109470004FEA9C1192F9302054F82220002A00F083
:109480003781032900F036811F2800F2EB80054662
:109490004FF0A04C0CEB850C1EF8185CDCF800E7D4
:1094A0001D40CEF3014E40F0D180BEF1030F00F01D
:1094B000B78194F96100411C33D0C0F3C20E08ABF0
:1094C00003EB0E0C00F007031CF8081C06FA03F36C
:1094D0001942C2B200F03F0023D004EB0009910909
:1094E00099F9309054F82990B9F1000F00F01281E9
:1094F000032900F012811F2800F2F68086464FF003
:10950000A04202EB8E021CF818ECD2F800C71EEA4B
:10951000030FCCF3014C40F0DA80BCF1030F00F0F4
:10952000918194F96200421C33D0C0F3C20E08ABA3
:1095300003EB0E0C00F007031CF8081C06FA03F3FB
:109540001942C2B200F03F0023D004EB0009910998
:1095500099F9309054F82990B9F1000F00F0D080BB
:10956000032900F0D0801F2800F2A58086464FF026
:10957000A04202EB8E021CF818ECD2F800C71EEADB
:10958000030FCCF3014C40F08980BCF1030F00F0D5
:109590006D8194F96300431C33D0C0F3C20E08AB55
:1095A00003EB0E0C00F007031CF8081C06FA03F38B
:1095B0001942C2B200F03F0023D004EB0009910928
:1095C00099F9309054F82990B9F1000F00F0AC806F
:1095D000032900F0AC801F288BBFBE464FF0A04E81
:1095E00002F01F0202460EEB82021CF818ECD2F8C1
:1095F00000C71EEA030FCCF3014C60D1BCF1030F8E
:109600001CD0002D3FF4CCAE4FF0A042029BD2F80C
:109610001015D7F810058B4203D1039B83423FF40A
:10962000BFAEDDE90423CDE9021094F96000451CCA
:10963000CDE906237FF409AF00253AE7032900F0BE
:109640002981B9F1000FDCD0C847DAE7BEF1020F7B
:10965000F2D1032900F039810025002A3FF429AF17
:10966000904726E70CF01F05BC4613E70061004059
:1096700004610040086100400C610040106100403E
:1096800014610040186100401C6100407C61004092
:10969000006000400003005000350020BCF1020FC4
:1096A0007FF477AF032900F00D81B9F1000F3FF48B
:1096B00070AFC8476DE702F01F0E3A4659E7BCF19C
:1096C000020F9ED10329BCD14FF4403CE4E0BCF131
:1096D000020F7FF426AF032900F0F180B9F1000FEB
:1096E0003FF41FAFC8471CE702F01F0E3A4608E7D9
:1096F0000329A1D118F809501D4308F80950C3E601
:1097000003297FF446AF18F80EA04AEA030A08F8C6
:109710000EA028E703297FF404AF18F80EA04AEA48
:10972000030A08F80EA0E6E603297FF46AAF18F8EA
:109730000EA04AEA030A08F80EA04CE7644AD2F8E1
:10974000042352067FF522AE00221A601B680093A4
:10975000009B46F0400619E65D4AD2F804239106C4
:109760007FF50FAE00221A601B680093009B46F045
:10977000200606E6564AD2F80423D0067FF5FCAD53
:1097800000221A601B680093009B46F01006F3E568
:109790004F4AD2F8042314077FF5E9AD00221A607E
:1097A0001B680093009B46F00806E0E5484AD2F8A3
:1097B000042355077FF5D6AD00221A601B6800937D
:1097C000009B46F00406CDE5414AD2F804239707F2
:1097D0007FF5C3AD00221A601B680093009B46F022
:1097E0000206BAE53A49D1F8046316F001063FF4DF
:1097F000AFAD136013680093009BA9E500221A60C7
:109800001B6801934FF0A042019BD2F81025314B09
:109810000292D3F810350393002E3FF401AEE0E539
:1098200003297FF41AAF4FF40035DCF8003723F436
:109830004033CCF80037DCF800372B43CCF8003746
:1098400001250AE703297FF449AF4FF4003CD2F821
:10985000003723F44033C2F80037D2F8003701351F
:109860004CEA0303EDB2C2F8003737E703297FF46F
:109870001CAF4FF4003CD2F8003723F44033C2F859
:109880000037D2F8003701354CEA0303EDB2C2F8D5
:1098900000370AE74FF4003CD2F8003723F4403396
:1098A000C2F80037D2F80037013543EA0C03EDB2B5
:1098B000C2F80037B9F1000F7FF4C6AEA4E64FF44A
:1098C000403CC4E74FF4403CD5E74FF44035ACE7AB
:1098D0000060004000030050014B1B68184700BFA8
:1098E0006C350020114B98421DD130B583B0002358
:1098F0000DF107008DF807300D46FEF7BFF90C4B50
:109900001C794CB99DF807001D6001221A71FEF701
:10991000DBF9204603B030BD9DF80700FEF7D4F90F
:10992000112003B030BD0020704700BF0020004070
:109930006C35002030B56D4AD2F8043399058BB0F0
:1099400068D5D2F82431002B64D00023C2F824312A
:10995000D2F8243103934FF40171654B0398C2F898
:10996000081393F8291009B9012151605F490222B7
:109970008DF81820D1F88024C1F880249869D9681E
:10998000099200240025CDE90710C3E90645D3E973
:10999000001206A89047554AD2F81C31C3B1544B67
:1099A000186A596988426AD293F8280000F0FF04C7
:1099B000002864D1C2F81C41D2F81C11029102990E
:1099C0009C68186A196A205C01311962C2F81C058A
:1099D000464AD2F84431DBB10021454BC2F844116C
:1099E000D2F8440193F829100090009809B10121A0
:1099F00011609A6962B1586AD96800229A6101229D
:109A0000CDE907108DF8182006A8D3E90012904779
:109A10000BB030BD354AD2F804335B07BBD5D2F862
:109A20000831002BB7D0324B996900293CD0002176
:109A3000C2F80811D2F8081104910499D868596A3B
:109A4000D2F8182542545A6A996901325A625A6A00
:109A50008A42A0D1DA69002A2FD0DD685C6A1869D1
:109A60009A6101210022D860DA615A628DF81810DB
:109A7000CDE90754D3E9001206A890478BE71B4AAB
:109A80000020C2F81C01D2F81C210192019A002981
:109A90009ED09A688DF8180008915861079206A820
:109AA000D3E90012904793E7C2F80811D2F80801F1
:109AB00005900598D2F81825C9E793F8292012B91E
:109AC0000A4A01215160094A4FF40171C2F8081392
:109AD000596ADA6808910024012007928DF818006D
:109AE000D3E900129C6106A8904754E7002000408B
:109AF000783500202DE9F041DFF8DC8106792C2350
:109B000003FB068382B093F82A30002B40F09A8042
:109B100005460C4600686B491746FFF7E3FE002830
:109B200040F08C802368591C19D01F2B4FF0010284
:109B30008ABF65494FF0A04103F01F0302FA03F307
:109B4000C1F8083523681F2B86BF03F01F035E4A48
:109B50004FF0A04203F5E073032142F8231063683D
:109B60005A1C0BD01F2B86BF03F01F03564A4FF021
:109B7000A04203F5E073002142F823102B68A2698C
:109B8000C3F82425217D637D2A680B43C2F86C3518
:109B9000D4E900122B68C3F81425C3F80C15237DF3
:109BA000012B5BD02C2303FB06F308EB0302576069
:109BB000226948F8032077B32A68237F434C0021A9
:109BC000C2F81C11D2F81C2100922A68009FC2F82A
:109BD0004411D2F844112A6801910199C2F8044352
:109BE0002A6842F3073100294FEA12322EDB01F1D5
:109BF000604101F561415B01DBB281F800332B6804
:109C0000334C43F307325209C3F30433012101FA01
:109C100003F344F822302C23296803FB068604242E
:109C200000230122C6E90633C1F8004586F82A2040
:109C300086F82930736102B0BDE8F081112002B0CE
:109C4000BDE8F081082002B0BDE8F081214902F0B2
:109C50000F025B011144DBB20B76D0E7A368591CFD
:109C60000BD01F2B86BF03F01F0317494FF0A041F5
:109C700003F5E073002241F82320E3685A1C1AD050
:109C80001F2B8ABF10494FF0A04103F01F03012290
:109C900002FA03F3C1F80835E3681F2B88BF03F00D
:109CA0001F0303F5E0738CBF07494FF0A041032267
:109CB00041F82320E3682A68A168C2F80835C2F891
:109CC00010156FE735990200000300508000020074
:109CD00000E100E0FCEC00E0783500202DE9F041E7
:109CE000314E05792C2303FB05630446586984B083
:109CF00000284CD11862996083F828005A612268C4
:109D0000C2F81C01D2F81C11226802910121029FA5
:109D100091602268D3F808C0C2F81C01D2F81C1167
:109D2000019101991F6A196A1CF8077001311962C3
:109D3000C2F81C755A6812B104B0BDE8F0811A6A05
:109D40005F692168BA421BD2864602E093F8282058
:109D50000ABBD1F81C21002AF8D0C1F81CE1D1F8C7
:109D60001C210392039AD3F820801A6A1CF80880F9
:109D700001321A62C1F81C851A6ABA42E9D3216815
:109D8000D1F81C31002BFBD00123CB6004E0112063
:109D900004B0BDE8F0810F202C2303FB05650023F0
:109DA0006B6104B0BDE8F081783500200379044A86
:109DB0002C2101FB03235869003818BF012070478C
:109DC00078350020F0B4504F06792C2303FB06733E
:109DD00086B05D68044625B103684FF40170C3F88E
:109DE00008032C2303FB0673986990B1D8690028F7
:109DF0007CD11961DA612C2303FB06735A683AB3EC
:109E000023684FF40172C3F80423002006B0F0BCAD
:109E1000704793F829509A61D9605862D861002D33
:109E2000E9D12368C3F82451D3F82421236801928F
:109E3000019AC3F80851D3F808212368029201223D
:109E400002991A602C2303FB06735A68002AD7D1A3
:109E50002168C1F84421D1F844210392039A226871
:109E6000D2F82411D2F80851D2F8440155B900288B
:109E700033D10029F4D02C2303FB06760023B361F1
:109E80000320C3E70029F6D148BB9969C2F808014D
:109E900081B1D2F8081104910499DD68596AD2F8A9
:109EA00018256A545A6A996901325A625A6A91426B
:109EB000D5D806E0D2F8081105910599D2F81825F1
:109EC0005B6A2C2303FB0676002296F82930B261E8
:109ED000A3B1236801221A6098E70029CBD12C2373
:109EE00003FB06760023B3610F208FE755B123688B
:109EF0004FF40172C3F80423112087E7236801227D
:109F00005A6083E7112081E77835002030B5484B4F
:109F1000D3F8242189B0002A57D00022C3F8242185
:109F2000D3F82421029202228DF81020029AD3F84D
:109F30008014404AC3F880140791D3F83C15D368C5
:109F40000691002400250593C2E90645116853686F
:109F500004A89847364BD3F844214AB10021354A2A
:109F6000C3F84411D3F84401916901900198D9B91B
:109F70002F4BD3F82021AAB10021C3F82011D3F828
:109F800020012C4A00900098506958B1D3F84C0534
:109F9000936806908DF810105161059304A8D2E9DA
:109FA0000013984709B030BDD3F83C35D16806930B
:109FB00000240025012305918DF81030C2E90645E3
:109FC000D2E9001304A89847D2E7D3F8101100296A
:109FD000C0D0C3F81021D3F810111648039103998B
:109FE0008469D3F83C15A142B4D1C469A4B1D3F8B3
:109FF0000052846125F02005C3F80052D0E90343E4
:10A00000C26101220691C3600168436805948DF81E
:10A01000102004A898479DE7C26884610123CDE918
:10A0200005218DF81030D0E9001304A8984791E776
:10A0300000200040A83500202DE9F04307797C4E30
:10A0400007EBC70306EB830385B093F82030002BA2
:10A0500040F0AD8004460D46006876499046FFF713
:10A0600041FC002840F09F802B68591C4FEAC7092B
:10A0700019D01F2B4FF001028ABF6F494FF0A0414A
:10A0800003F01F0302FA03F3C1F808352B681F2BF6
:10A0900086BF03F01F03684A4FF0A04203F5E07348
:10A0A000032142F823106B685A1C0BD01F2B86BF6C
:10A0B00003F01F03604A4FF0A04203F5E073002154
:10A0C00042F823102368AA69C3F82425297D6A7DF4
:10A0D00023680A43C3F86C25D5E900312268C2F829
:10A0E0000C35C2F814152B7D012B6CD009EB07023F
:10A0F00006EB8203C3F804802B6946F82230B8F1DE
:10A10000000F3FD021682B7F4C4D0022C1F8102159
:10A11000D1F8101100912168DDF800C0C1F82021AC
:10A12000D1F8201101912168DDF804C0C1F8242183
:10A13000D1F8241102912168DDF808C0C1F844214A
:10A14000D1F84411226803910399C2F8045322689C
:10A1500042F3073100294FEA12322CDB01F1604152
:10A1600001F561415B01DBB281F800332368344DB6
:10A1700043F307325209C3F30433012101FA03F315
:10A1800045F822304F44226806EB8706002301245D
:10A190000821C2F80015C6E9063386F8204073612D
:10A1A00005B0BDE8F083112005B0BDE8F0830820BC
:10A1B00005B0BDE8F083234902F00F025B011144B2
:10A1C000DBB20B76D2E7AB68591C0BD01F2B86BFD6
:10A1D00003F01F0318494FF0A04103F5E07300227C
:10A1E00041F82320EB685A1C1AD01F2B8ABF124952
:10A1F0004FF0A04103F01F03012202FA03F3C1F85C
:10A200000835EB681F2B88BF03F01F0303F5E073CD
:10A210008CBF09494FF0A041032241F82320EB688D
:10A220002268A968C2F80835C2F810155EE700BFB9
:10A23000A83500200D9F020000030050100302000B
:10A2400000E100E0FCEC00E0F0B401F06044B4F1A7
:10A25000005F82B02CD10579244E05EBC50406EBD6
:10A26000840403466069EF00002839D16261A1606F
:10A270001A68C2F82001D2F820C11A68CDF804C0CB
:10A28000DDF804C0C2F85801D2F8582100921A68CB
:10A29000DDF800C0D4F814C0C2F84415C2F848C5AF
:10A2A0001A6801219160626832B102B0F0BC704757
:10A2B000102002B0F0BC70471B6800E0A0B9D3F8D2
:10A2C0002021D3F85801002AF8D0002818BF0F2009
:10A2D0007B1906EB830300225A6102B0F0BC704781
:10A2E000112002B0F0BC70470F20F1E7A835002024
:10A2F0000379054A03EBC30302EB83035869003873
:10A3000018BF0120704700BFA835002001F060434E
:10A31000B3F1005F5ED1F0B40479474D04EBC4069D
:10A3200005EB860682B07668E30026B107684FF435
:10A33000047CC7F808C3234405EB83039C694CBB2A
:10A340009A61DC61D9600368C3F81041D3F81061E9
:10A3500003680196019EC3F84441D3F84441036861
:10A360000094009CC3F83415C3F838250368012213
:10A370001A60047904EBC40305EB8303E6005B6811
:10A3800053B303684FF40472C3F80423002002B0EF
:10A39000F0BC7047DC69002C37D11961DA610368C1
:10A3A000C3F81041D3F8106103680196019EC3F809
:10A3B0004441D3F8444103680094009CC3F8341529
:10A3C000C3F838250268D2F8003243F02003C2F8FF
:10A3D0000032CEE710207047036801E0E9B910BBF6
:10A3E000D3F81021D3F84411D3F82401002AF5D072
:10A3F000344400284FF0000305EB840518BF032008
:10A40000994218BF0F20AB61C1E796B103684FF4C2
:10A410000472C3F804231120B9E7344405EB840522
:10A420000F20AA61B3E7344405EB84050320A9613A
:10A43000ADE71120ABE700BFA83500200220FEF7F2
:10A44000DFBB00BF2DE9F0470D460646FEF706FCD0
:10A45000032805D8012D04461AD0022D27D00DB1AE
:10A46000BDE8F0871B48FDF75FFA1B4B1B4A04EB66
:10A4700044010B44125D9D78AA42F1D1002DEFD02A
:10A48000174B1B68002BEBD02846BDE8F047184758
:10A49000114F00EB4003FA18FD5C53784FEA400877
:10A4A0005BB9A04447440D4BBA781A55E6E70A4B0E
:10A4B00000EB40041C446578E0E7DFF8289005488D
:10A4C0004A464FF40041FDF7D9F90028E9D189F84F
:10A4D0000060E6E7F0350020303600204C360020E2
:10A4E00044360020CC35002010B50078FEF7B6FBCE
:10A4F00003280BD8064B00EB40001844407828B1E5
:10A50000044B1B6813B1BDE81040184710BD00BFD5
:10A51000303600204436002038B5C04D2B78044634
:10A520006BB1BF4B1B7800202870002B4DD0FEF77D
:10A5300029FB0120FEF726FB0320FEF723FB172C47
:10A5400000F26A81DFE814F0F700630063009F0007
:10A55000B200C500D70097005000440050004400EE
:10A560007A0018001800180018001800E5002401EF
:10A5700081000C015C005C00AA48FDF7D5F9D4F11C
:10A580001104054600F03281002840F02F81012C93
:10A5900014D0C82303FB04F44FF4FA704FF40043C3
:10A5A0000021C3FB04014FF47A72002303F034FF4F
:10A5B0002A4601469B48FDF761F905460220FEF751
:10A5C000CFFA974B01221A701FE0FEF7EDFAB6E7BB
:10A5D00001202870FEF714FBBDE8384092480022A5
:10A5E0004FF48041FDF74AB901202870FEF708FBBF
:10A5F000BDE838408C48002240F6CD41FDF73EB919
:10A60000FEF7E8FA894B00251C70284638BD00206B
:10A61000FEF792FA002840F0CF80FEF7A1FA41F64B
:10A620009A1143F23333022C18BF19467F4B7E48F0
:10A630001C70BDE838400022FDF720B9FEF7CAFAC9
:10A640007A4B0C221A700025DFE7754B1B78002B24
:10A6500000F0DF800020FEF795FA0120FEF792FA65
:10A660000320FEF78FFA0120FEF77AFA6F4B1422CF
:10A670001A700025C9E70020FEF772FA6B4B07221B
:10A680001A700025C1E70020FEF756FA002840F0B6
:10A69000A780FEF765FA41F69A11644B62480324DD
:10A6A0001C70BDE838400022FDF7E8B80020FEF736
:10A6B00043FA002840F08E80FEF752FA43F233311D
:10A6C0005A4B594804241C70BDE838400022FDF75D
:10A6D000D5B80020FEF730FA002877D1FEF740FA0F
:10A6E000524B514805241C70BDE83840002241F609
:10A6F0009A11FDF7C3B80020FEF782FA4B4B4A4887
:10A7000006241C70BDE83840002240F6CD41FDF71C
:10A71000B5B8434B1B78002B78D00020FEF732FAF7
:10A720000120FEF72FFA0320FEF72CFA3F4B1222EE
:10A730001A70002569E73A4B1B78002B60D0002087
:10A74000FEF720FA0120FEF71DFA0320FEF71AFAA1
:10A750003548FDF7E9F8354B002205461A7054E7F5
:10A760002F4B1B78002B48D00020FEF70BFA01205E
:10A77000FEF708FA0320FEF705FA0020FEF7F0F9CD
:10A780000120FEF7EDF9294B15221A7000253CE750
:10A79000234B1B78BBB30020FEF7F4F90120FEF732
:10A7A000F1F90320FEF7EEF90020FEF7D9F91F4B6F
:10A7B00013221A70002528E70020FEF7E3F9022C87
:10A7C0004EF2666118BF4FF400312FE70020FEF70C
:10A7D000D9F985E70020FEF7D5F94FF400316FE78E
:10A7E0000020FEF7CFF946F2666156E70220FEF739
:10A7F000C9F90B4B00221A7007E7FEF7D5F9BCE741
:10A80000FEF7D2F9A4E7FEF7CFF9CDE7FEF7CCF9D2
:10A810008CE7FEF7C9F926E70025F6E6403600206A
:10A82000CD350020D03500201036002048360020DD
:10A83000044B1B68DB0700D47047034B1878FFF705
:10A840006BBE00BF3C36002048360020032801D9EB
:10A8500000207047FEF7EEB9044B1B6813F00103AC
:10A8600001D118467047FFF757BE00BF3C360020A5
:10A8700038B5244B244A196081070446106004D47B
:10A8800010F001052CD1284638BD204B20480E255C
:10A890000F2210211D701125DA7099715D7240F23E
:10A8A00066620421FCF750FC054630B1E207EAD5A8
:10A8B0000120FEF7EBF9284638BDFCF79DFC054664
:10A8C0000028F3D10146134A1348FCF7C5FFE307FC
:10A8D0000546D8D50120FEF7D9F9002DD3D102E0E5
:10A8E0000120FEF7D3F90D4A0D480021FCF7B4FF13
:10A8F00005460028C7D1BDE838400A4A0A48012168
:10A90000FCF7AABF443600203C3600203036002039
:10A910002CEE0200E9A4020050EE020031A8020071
:10A9200054EE02003DA402004CEE0200032806D8BB
:10A93000012A06D001291BD0022908D071B10720B5
:10A940007047012911D002294FF00002F6D10B4BBC
:10A9500000EB4000034400205A707047074B00EBA7
:10A960004000034408469A70704700F10E02D2B2CC
:10A9700000EB400301490020CA54704730360020E4
:10A98000032801D90620704708B5FEF779F91F287A
:10A9900086BF0A4B00F01F004FF0A04303EB80037B
:10A9A0000020D3F8002722F44032C3F80027D3F860
:10A9B000002742F44032C3F8002708BD00030050CE
:10A9C00010B50388102B07D0112B04D1254B186824
:10A9D0000138186030B110BD224C216811B301312B
:10A9E000216010BD01220221FFF7A0FF40B107281E
:10A9F00006D01D4B1B68002BEDD0BDE8104018475A
:10AA0000072202210120FFF791FF08B10728F0D1AA
:10AA1000002108460A22FFF789FF0028DBD007281B
:10AA2000E7D1D8E701220846FFF780FF38B10728B1
:10AA300005D00D4B1B6803B198472168CFE707226B
:10AA400002210120FFF772FF08B10728F1D104228B
:10AA500002210020FFF76AFF0028EED00728E8D186
:10AA6000EBE700BF543600205036002008B5002028
:10AA7000FFF786FF10B1062800D008BD0120FFF7C0
:10AA80007FFF0028F9D0062808BF002008BD00BFBE
:10AA9000184B10B5186031B101200C46FFF7D6FEF7
:10AAA000F8B102232370144B186808B1002010BDC0
:10AAB00001220221FFF73AFF08B10728F7D1072248
:10AAC00002210120FFF732FF08B10728EFD1002152
:10AAD00008460A22FFF72AFF0028E7D00728E5D01A
:10AAE00010BDFFF7B3FE10B10B232370DBE720701E
:10AAF000D9E700BF503600205436002038B5044650
:10AB00000D4670B103688B4205DD4068FFF7F6FF24
:10AB10006060204638BD8068FFF7F0FFA0602046E7
:10AB200038BD0C2002F0C4FBC0E90054846038BD7D
:10AB300068B138B5064D04466068FFF7F9FF216833
:10AB4000284602F093FCA468002CF5D138BD70476C
:10AB500058EE020038B5044608B30346002002E070
:10AB6000EAB1184613461A68914205D0D3E901208C
:10AB7000F6DBA0B10246F4E79C4238D0D3E90112DB
:10AB8000F9B18AB145689D4227D08260114652686A
:10AB9000002AFBD158684860C3E901220CE01D4837
:10ABA00002F064FC204638BD42689A424FF0000231
:10ABB0000CBF416081605A60184602F081FB20465C
:10ABC00038BD416802B399420CBF426082600022E6
:10ABD0009A60184602F074FBE4E741600A4689680F
:10ABE0000029FBD198689060C3E90111E4E7D3E93B
:10ABF0000140224611469268002AFBD1886018461F
:10AC000002F05EFB204638BD99420CBF4260826074
:10AC1000D2E700BF60EE020075DF704776DF704755
:10AC20007FDF70478FDF70470146014801F0A6BF04
:10AC30005037002010B503883B2B82B0044631D832
:10AC40000F2B2DD9103B2B2B2AD8DFE803F0163A17
:10AC50002941292929292929294A292929512959D3
:10AC60002929292929292929292929292929292954
:10AC70002929292929292929293881882A4800228E
:10AC800002F092F800284BD10720FFF7E5FD0028DD
:10AC900043D1A188254800F0E1FE08B1FCF7C2FAD3
:10ACA00002B010BD562BFBD1214802F0DFFBA0887B
:10ACB0001321FFF7B3FF0028F0D102B010BD1D48EB
:10ACC000F3E7027A81881C4802F0D0FB02B010BD85
:10ACD000002380881A468521FFF7A2FF0028DFD0D5
:10ACE000DCE7037A022BDBD1144802F0BFFBD7E785
:10ACF00000F108018088FFF78FFF0028D0D0CDE752
:10AD00000F4802F0B3FB0023A088ADF8043001A97E
:10AD1000FFF788FF0028C3D0C0E7FCF783FAB8E745
:10AD2000FCF780FAB0E700BF50370020042A00206B
:10AD300000EF0200E8EE02007CEE0200B0EE02003E
:10AD4000D0EE02000A8840F677239A4200D070477E
:10AD500010B50C46064802F089FBA288054B064850
:10AD6000033A92B21A80BDE81040114602F07EBB51
:10AD700018EF0200002A002038EF02002DE9F04F02
:10AD80000378012B89B0044605D0022B51D05BB16A
:10AD900009B0BDE8F08F884802F068FB6068FCF7F6
:10ADA00041FA09B0BDE8F08F844EDFF81C8230888C
:10ADB0004044FCF7FBFE338801339BB208EB0302EF
:10ADC000338012F8012C0A2A05D00D2A03D07C4AC0
:10ADD00012889A42DCD87B48DFF8ECB1DFF8F8A1A2
:10ADE000DFF8F89102F042FB32885946504601F0F4
:10ADF00099FF1328074602D030F008037FD133882B
:10AE00004BB1714D002415F8010BFCF7FDFE3388A2
:10AE100001349C42F7DB484602F028FB98F80030EA
:10AE20003A2B0FD0132FDFD00023338009B0BDE8B9
:10AE3000F08F664802F01AFB6068FCF7F3F909B07E
:10AE4000BDE8F08F624802F011FB98F80130692BE1
:10AE50005DD0702B56D0642BE4D13288931E002B2A
:10AE6000D8BF00233CDD033A022A40F2A380D8F881
:10AE7000022001929A08012A17D0D8F806100291F0
:10AE8000022A12D0D8F80A100391032A0DD0D8F85C
:10AE90000E100491042A08D0052AD8F8121018BF01
:10AEA000D8F81620059118BF0692990723F00302DF
:10AEB00016D0911C08A8104418F8014000F81C4C4A
:10AEC000501C98420CDA08AC424420449942D47891
:10AED00000F81C4C04DA08A80144127901F81C2C73
:10AEE00008AA134401A8002203F81C2C02F0A4F9BC
:10AEF000384C01462068FFF72DFE206092E7FCF7F2
:10AF000091F97CE7334B1868FFF712FE8AE7328825
:10AF1000931E002BD8BF00233BDD033A022A47D9FA
:10AF2000D8F8022001929A08012A17D0D8F8061002
:10AF30000291022A12D0D8F80A100391032A0DD0E8
:10AF4000D8F80E100491042A08D0052AD8F8121057
:10AF500018BFD8F81620059118BF0692980723F05D
:10AF6000030216D0911C08A8104418F8014000F8FC
:10AF70001C4C501C83420CDD08AC424420448B42E4
:10AF8000D47800F81C4C04DD08A80144127901F8BB
:10AF90001C2C08AA134401A8002203F81C2C02F060
:10AFA0004BF90C4C01462068FFF7A8FD206039E7FB
:10AFB0000022D7E700227CE7CCEF02004C370020CC
:10AFC000002A002064EF02005836002098EF0200AB
:10AFD00088EF0200C43700205037002014EF020031
:10AFE00010B504460020FFF737FC10B92CB1012042
:10AFF00010BDFCF717F9002CF9D1FFF737FD002839
:10B00000F5D0FCF70FF9012010BD00BF042805D0D2
:10B010000A2802D10020FDF7E9BB704708B5064BAE
:10B0200013215888FFF7FAFD30F0080300D108BD5E
:10B03000BDE80840FCF7F6B8503700200378062B2F
:10B0400007D030B5072B85B017D0042B04D005B03E
:10B0500030BD406878B97047114802F007FA1148CE
:10B0600001F01EFCC0B90120FFF7F6FB0028EED06E
:10B0700005B0BDE83040FCF7D5B844680A48A5796A
:10B08000E378A27861780295657901952479009436
:10B0900002F0ECF905B030BDFCF7C4F8E3E700BFFF
:10B0A0002CF0020074370020FCEF02002DE9F04183
:10B0B0000B78012B0C4604D0022B41D063B3BDE8C2
:10B0C000F0818F892C488E6802F0D0F9002F50D083
:10B0D000DFF8B8800025705DFCF796FD044688B95E
:10B0E0000135BD42F7D1013D735D0D2BE7D10A203B
:10B0F000FCF78AFD1128E2D10A20FCF785FD112812
:10B10000F5D0DCE7112C29464046E4D002F0AEF938
:10B110002046FCF787F8E3E70546184802F0A6F951
:10B12000618804F10E02284601F03EFEF0B928467F
:10B1300001F0D6FDB8B9BDE8F041114802F096B96A
:10B14000104802F093F9104801F0AAFB40B9012021
:10B15000FFF782FB0028B2D0BDE8F041FCF762B8EF
:10B16000FCF760F8F3E7FCF75DF8E4E7FCF75AF862
:10B17000DDE74FF0FF35B7E788F0020040F002004E
:10B1800058F00200C8F00200743700209CF0020062
:10B1900008B50B490B4801F0F1F928B90948F72126
:10B1A00001F004FA40B908BDFCF73CF80548F72166
:10B1B00001F0FCF90028F6D0BDE80840FCF732B8F1
:10B1C00045AD02006037002000B54FF400418BB060
:10B1D0000020FBF74DF900287ED1FBF739F9FCF789
:10B1E000E7FA002840F0A580534D544B00930FCD53
:10B1F00004AC0FC495E80300514D524A84E80300A3
:10B2000007234FF4807404A86946CDE902540194E1
:10B21000FCF750FC002840F089804B490120FFF7E3
:10B2200027FB00287FD104A90020FFF731FC00286C
:10B2300076D1464800F092FB00286ED1FDF796FAD1
:10B24000002867D101F0C0FD002860D1002304A9C7
:10B250000120049301F098FE002855D104A801F0C4
:10B2600073FF00284DD1FFF793FF394B3948049302
:10B2700004A901F0CBFC002840D1102200210DEBE5
:10B28000020002F041F80123334A34488DF81430AB
:10B2900004A98DF81C3001F0ADFA60BB304A2F488C
:10B2A000032101F079FA18BB2C480022042101F097
:10B2B00091FAD0B92B4802F0D9F8284801F0F0FAF9
:10B2C00080B90120FFF7C8FA48B9FBF72BF900282D
:10B2D000FBD1FDF761FAF8E7FBF7A4FF7DE7FBF789
:10B2E000A1FFF2E7FBF79EFFEBE7FBF79BFFE1E730
:10B2F000FBF798FFD8E7FBF795FFCFE7FBF792FF47
:10B30000BBE7FBF78FFFAEE7FBF78CFFA6E7FBF78A
:10B3100089FF9BE7FBF786FF94E7FBF783FF8DE749
:10B32000FBF780FF85E7FBF77DFF7CE7FBF77AFF04
:10B3300073E7FBF777FF57E7FCF00200C837002000
:10B34000C83800207DAD02000DB0020029AC02001B
:10B35000ADB00200503700203DB00200743700202D
:10B3600014F10200D8F002002DE9F04FDFF8B0919F
:10B3700000EB400509EBC50583B0EE6A012E0746D8
:10B380008A4690464FEA400407D0022E4FD056B36B
:10B390000026304603B0BDE8F08FAE6AD5F824B081
:10B3A0005E457DD9013EA6EB0B062D6A464528BFBA
:10B3B0004646A5EB0B0296427ED27B1C03EB430371
:10B3C00009EBC303324658685146584401F08EFFDA
:10B3D000274409EBC70906EB0B023046C9F82420C5
:10B3E00003B0BDE8F08FAB6AD5F824B05B459CBFD5
:10B3F0002A6A9B18013BA3EB0B039845C9D8044468
:10B4000009EBC4040137256AA5EB0B0607EB4707D8
:10B41000B04509EBC7096FD2D9F804004246584439
:10B4200001F064FF08EB0B0363624646B1E70137A6
:10B4300007EB47076C6AFF000026AB6AA34203F1E3
:10B44000FF3222D9131B2A6A434509EB0701A2EBFD
:10B45000040B28BF43469B45486828BF9B462044B1
:10B4600051465A4601F042FF2B6A5C449C425E44BE
:10B47000A8EB0B08DA440DD06C62B8F1000F88D04D
:10B48000AB6AA34203F1FF32DCD82A6A1344013BC2
:10B490001B1BD9E700246C62B8F1000FCDD178E70F
:10B4A0002D6A2E44013EA6EB0B06464528BF4646B4
:10B4B000A5EB0B02964280D307F1010808EB480880
:10B4C00009EBC8085146D8F804000192584401F02D
:10B4D0000DFF751B019AD8F804005D440AEB0201C8
:10B4E0002A4601F003FF274409EBC7093046C9F893
:10B4F000245003B0BDE8F08FD9F804005844C34489
:10B500003246ABEB050501F0F1FE0AEB0601D9F876
:10B5100004002A4601F0EAFE4646656239E700BFAC
:10B52000203F002038B5114C114B1248E361102523
:10B530004FF40073104A11492362E064002325652B
:10B54000E01D0225A3626362E362A3656365E365B0
:10B55000A261A264C4E9045501F0B0FF0849204685
:10B5600001F0ACFF2023A37138BD00BF203F0020B5
:10B57000D8390020C839002018F1020024F1020057
:10B5800028F1020064DF7047F0B587B005460E462B
:10B590001046102302AA0DF103018DF80330FFF7C6
:10B5A000F1FF8DB380BB9DF80320042A4ED0102AF2
:10B5B00047D0022A2BD007B0F0BD002423469E427C
:10B5C00006D92F5D0233013F9CB2BFB2002C42D19D
:10B5D0009DF80540644508BF00230DD0A6B10023A7
:10B5E00001E09E4210D9E95C01310B449BB2E9189D
:10B5F00018464978A142F4D19E4205D92F5C023306
:10B60000013F9CB2BFB234BB002007B0F0BD40F296
:10B610000323ADF8043095F801C09DF80470674528
:10B62000CBD0002ED4D0002301E0B342D0D2EC5CCA
:10B63000013423449BB2E9181C464978B942F4D13D
:10B64000BDE740F20763ADF80430E4E740F205439C
:10B65000ADF80430DFE7002FD6D0002605E09DF8D6
:10B6600003201644B6B2BE42CED23019284402A9F5
:10B6700001F02EFE0028F2D1012007B0F0BD00BF7E
:10B680009BDF70479DDF70479EDF7047F0B5324CFF
:10B6900090F8C6322568C3EB0314C3EB8403174646
:10B6A000A1B05A0000EB4303F5B12C4C9B780E4639
:10B6B000A17899423ED0012D16D9A17999423FD067
:10B6C000022D11D0A17A994240D0032D0CD0A17B3C
:10B6D00099420BD0042D07D0A17C99421ED0052D94
:10B6E00002D0A17D99421FD021B0F0BDB4F80CC0AA
:10B6F000815A8C45EED11A4B1C68002CF4D07C2268
:10B70000002101A801F000FE012301A8ADF8067098
:10B7100002968DF80430A04721B0F0BDB4F810C0F7
:10B72000815A8C45DBD1E6E7A18A835A9942E2D05F
:10B7300021B0F0BD30F802C021888C45BBD1DAE7DA
:10B74000B4F804C0815A8C45BAD1D4E7B4F808C023
:10B75000815A8C45B9D1CEE7E03B0020E83E00207D
:10B76000D83B00202DE9F04FDFF81C8190F8C6E2AD
:10B77000D8F80040CEEB0E13CEEB8303944683B093
:10B7800000EB4302FCB10F4659003C4B92789D7888
:10B79000954263D0012C16D99D79954263D0022C35
:10B7A00011D09D7A954263D0032C0CD09D7B95429D
:10B7B0000CD0042C07D09D7C954243D0052C02D0A0
:10B7C0009D7D954243D003B0BDE8F08F9E89455AD8
:10B7D000AE42EED12A4BD3F800A0BAF1000FF2D05E
:10B7E000DFF8A890D9F80060052EECD8254D05EBC0
:10B7F000C61B762202FB0E01F3010BF10400ABF82D
:10B8000002C0019301F072FD0136002F019BCBF8BD
:10B810007CA014BF00220222A642EA54C9F80060AC
:10B82000D1D10024EB6F28469847D8F80030013476
:10B830009C4205F18005F5D30023C9F8003003B020
:10B84000BDE8F08F1E8A455AAE42B7D1C2E79A8A48
:10B85000435A9A42BED003B0BDE8F08F465A1D88C5
:10B86000AE4297D1B6E7465A9D88AE4297D1B1E72E
:10B870001E89455AAE4297D1ACE700BFE83E002092
:10B88000D83B0020E43B0020E03B0020E43E0020C9
:10B890002DE9F04390F8C68290F8C532C8EB081441
:10B8A000C8EB840800EB480E03EBC3049EF8047059
:10B8B000640004EB48045D1C0A34BD4283B00444B8
:10B8C00041D0BB4237D24FEA4806122515FB03652B
:10B8D00000F11C080544B04407F1FF3C9C45248955
:10B8E00011D06E8C0134B44217D0013EADF8066021
:10B8F000ADF8044000230B70104601A9FFF7C4FE09
:10B9000003B0BDE8F083BEF80860B44219D001343A
:10B91000ADF80440ADF80660ECE703EBC30408EBB8
:10B9200044045E1C5FFA86F94F45334680F8C562D1
:10B9300005F11205D2D8012300200B7003B0BDE839
:10B94000F0830024EDE72389BEF808008342F2D09B
:10B950000133ADF80430ADF80600CBE770B130B478
:10B960000246074D07480849084C0A6000232B602F
:10B97000036001251846257030BC70470E207047C3
:10B98000E03B0020E43E0020D83B0020DC3B0020D0
:10B99000002857D02D4B1B782BB370B42C4C2D4B5B
:10B9A0002268002A50D081789D788D421DD0012ACE
:10B9B00034D99D798D4222D0022A31D09D7A8D4290
:10B9C00022D0032A2CD09D7B8D4222D0042A27D05E
:10B9D0009D7C8D422CD0052A22D09D7D8D422CD07D
:10B9E000042070BC70470820704706881D88AE424E
:10B9F000DDD11949096889B1002070BC70479E8863
:10BA00000588AE42D8D1F4E71E890588AE42D8D168
:10BA1000EFE79E890588AE42D8D1EAE7052ADFD84C
:10BA2000511C006843F822002160002070BC704760
:10BA30001E8A0588AE42CED1DBE79D8A01888D4201
:10BA4000CED1D6E70E2070470121EAE7DC3B00208B
:10BA5000E03B0020E83E0020D83B0020B0B31C4B68
:10BA60001B7843B31B4B1B682BB370B590F8C752C0
:10BA7000044615BB0E464FF43372294601F044FCD0
:10BA8000154A164B10682060A4F8CA6284F8C9529F
:10BA900084F8C65284F8C5522246304601211D6002
:10BAA000FFF7EEFD11280AD020B9012384F8C8025F
:10BAB00084F8C73270BD08207047112070BD012383
:10BAC00084F8C73284F8C832284670BD0E2070470B
:10BAD000DC3B0020E03B0020E83E0020E43E00206C
