:020000022000DC
:1060000000000420BD620200E5620200E7620200B7
:10601000E9620200EB620200ED6202000000000093
:10602000000000000000000000000000EF6202001D
:10603000F162020000000000F3620200F56202005B
:10604000718B0200F76202007D950200F762020088
:10605000F7620200F7620200DD8F0200F7620200C1
:10606000F7620200F7620200F7620200F7620200C4
:10607000F7620200F7620200F7620200F7620200B4
:10608000F7620200C9730200F7620200F7620200C1
:1060900069740200F7620200A9B60200F76202000A
:1060A000F7620200F7620200F7620200F762020084
:1060B000F7620200F762020000000000000000002A
:1060C000F7620200F7620200F7620200F762020064
:1060D000F7620200F7620200F7620200F762020054
:1060E000F7620200F7620200F7620200000000009F
:1060F00000000000F762020000000000F7620200EA
:10610000000000000000000000000000000000008F
:10611000000000000000000000000000000000007F
:10612000000000000000000000000000000000006F
:10613000000000000000000000000000000000005F
:10614000000000000000000000000000000000004F
:10615000000000000000000000000000000000003F
:10616000000000000000000000000000000000002F
:10617000000000000000000000000000000000001F
:10618000000000000000000000000000000000000F
:1061900000000000000000000000000000000000FF
:1061A00000000000000000000000000000000000EF
:1061B00000000000000000000000000000000000DF
:1061C00000000000000000000000000000000000CF
:1061D00000000000000000000000000000000000BF
:1061E00000000000000000000000000000000000AF
:1061F000000000000000000000000000000000009F
:1062000010B5054C237833B9044B13B10448AFF3F0
:1062100000800123237010BD8823002000000000AF
:10622000F8C6020008B5034B1BB103490348AFF39E
:10623000008008BD000000008C230020F8C602008A
:10624000A3F5803A704700BF174B002B08BF134BD4
:106250009D46FFF7F5FF00218B460F461348144A71
:10626000121A05F0E7FB0E4B002B00D098470D4BA0
:10627000002B00D098470020002104000D000D489D
:10628000002802D00C48AFF3008005F0A1FB2000ED
:10629000290003F0EBFF05F087FB00BF00000800BA
:1062A00000000000000000000000042088230020FF
:1062B000482D002000000000000000000649074AA9
:1062C000074B9B1A03DD043BC858D050FBDC02F09F
:1062D000EFF9FFF7B9FF0000D8C70200E022002065
:1062E00088230020FEE7FEE7FEE7FEE7FEE7FEE785
:1062F000FEE7FEE7FEE7FEE7F0B595B000241D4699
:106300000E460846174602F0ADF8304623460822EE
:10631000099505A91A9D08970D950A948DF82C40AA
:106320000C9402F003F99DF814308DF81140DDE96A
:10633000061003F00302012ACDE9020128D0022A47
:1063400004D0304602F092F815B0F0BDBDF81650FA
:10635000C3F3C2038DF81030C5F389150827082D43
:106360002C4628BF08243B4622460EA9304602F0A0
:10637000DDF82D1B214608AB02AA0EA8274400F029
:10638000FFFD002DEBD1304602F070F815B0F0BDE6
:10639000BDF81470059DC7F38312C3F3C2040EA9A0
:1063A0003046920008238DF81040C7F3831702F09F
:1063B000BDF8C5F3952508AB3A4628460EA90093CB
:1063C00002AB00F065FD304602F050F815B0F0BDAC
:1063D000014B01221A707047E8230020704700BF6C
:1063E00000B583B0044B0093044A4023FFF784FFB9
:1063F00003B05DF804FB00BF01640200A823002085
:1064000038B50E480E4D03780E4CEB5C0025257018
:10641000D2B253B1043003F0C5FD58B90A4B1B7812
:1064200013B12378002BFCD038BD0C3003F032FBC5
:106430000028F3D000F080FFF0E700BFE02200204A
:10644000442D0020E8230020A42300202DE97043E0
:1064500019481A4A0378D35C88B02BB3043003F090
:106460001FFD174D0FCD6C460FC495E80F004FF080
:10647000EB7684E80F004FF006084FF0FF394FF03D
:10648000FF344FF0FF350C48069600226946CDE9EF
:106490000089CDE9024502F0FDFA48B9094B002216
:1064A0001A7008B0BDE870830C3003F075FAD8E7B5
:1064B00000F042FFF2E700BFE0220020442D002060
:1064C00070BA0200A4230020F0B5154D0FCD89B09D
:1064D0006C460FC495E80F004FF0EB7C84E80F008A
:1064E00006264FF0FF374FF0FF344FF0FF350D4ACF
:1064F0000D48CDF818C06946CDE90067CDE90245E1
:1065000002F0C8FA20B9094B01221A7009B0F0BD97
:1065100000F012FF054B01221A7009B0F0BD00BF58
:1065200070BA0200D1630200E0220020A423002000
:1065300008B5FFF7C9FF0448042100F025FC034B10
:1065400001225A7108BD00BFC0C70200F42200201A
:1065500038B50C4B0C48002400250022C3E9004547
:10656000FF21C3F81824996083F82024C3F8142469
:1065700001F02CFF044610B9044802F04DF8204603
:1065800038BD00BFC02400204CC70200C8BA0200BA
:1065900099B10E4B0E495B1ADB0815D030B40022BE
:1065A0000C4D02E0013293420BD035F82240844278
:1065B000F8D151F8320030BC7047054951F830002D
:1065C0007047002030BC704718467047C0C70200B3
:1065D00060C7020084230020094B013903EBC0008F
:1065E00003290BD8DFE801F00402080604207047F5
:1065F000022070474079704700797047002070474B
:1066000060C702002DE9F047954CD4E900239A4277
:1066100084B063D00023C4F81834BFF34F8FD4E99B
:10662000013503EA0501CA1C04EB820614F8222096
:10663000500719D52768327802F00302012A43D0A7
:10664000022A03D17288023303EB921305EA030195
:10665000D4F81804CA1C04EB820628B99F4239D921
:1066600014F822205207E6D404EB81015A1CC968B1
:1066700001912A4004EB820201F00301D2680292E8
:10668000022903F102062DD0012900F09580D4F8EB
:1066900010543DB12B6828469B689847EB681D68ED
:1066A000002DF7D16F48704B7049C01AC008000424
:1066B00040F0020000F0E0F8D4E90030C01A18BF42
:1066C000012004B0BDE8F08732880233C2F38312A0
:1066D0001344BBE7676004B0BDE8F087002004B056
:1066E000BDE8F087BDF806306148C3F38919B9F1F8
:1066F000500FC84628BF4FF0500868F38F1308F1B9
:106700000801ADF8063001F063FE07460028BED050
:1067100001F0A8FE0023082201A9384601F0D2FEAC
:1067200025EA06030133B8EB830F4FEA830A7DD9CC
:10673000BAF1000F00F08D8005EA06010331A8EBE5
:106740000A0804EB81010823524638465FFA88F8AC
:1067500001F0B8FE474942460AF10803384601F005
:10676000B1FE09F1030906EB9906D4F81834002BA1
:106770006BD1D4F8105465B1EB685A792846394684
:10678000002A5ED02B681B689847EB681D68002DB7
:10679000F2D1384601F06AFE00230DF103008DF8B6
:1067A000033001F049F9D4F8183403B966609DF854
:1067B000030001F067F97FE7BDF804302C48C3F30C
:1067C0008312062A28BF0622911C62F389138900CE
:1067D000ADF8043001F0FCFD074600283FF457AF48
:1067E00001F040FE0023082201A9384601F06AFEAC
:1067F000BDF8043013F4707FB7D04FF00008314675
:1068000029404FEA88030331083304EB8101042255
:10681000384601F057FEBDF8043008F10108C3F313
:106820008313434506F10106E9D89EE705EA060110
:10683000033104EB810142460823384601F042FE51
:106840008FE71D68002D97D1A3E7384601F00EFEB3
:1068500032E7084942460823384601F033FE80E714
:10686000C024002088C7020060C70200B0BA02003E
:106870004CC70200CC2400202DE9F04F644C87B0B7
:10688000002306460DF10B008DF80B30A568019131
:1068900001F0D2F8D4E9012327681A440132D21B4F
:1068A000012A00F2858004F21C4804F5836A04F290
:1068B00014491BE0BDF80E30C3F389130333090CF0
:1068C0000BEB930B4846009101F068F90099002802
:1068D0003ED04046C4F804B001F034F9D4E90113C5
:1068E000226819440131891A012962D801214046E0
:1068F00001F028F9504601F041F9484601F03EF90F
:10690000D4E9013C03EA0C02D11C04EB810014F829
:1069100021E01EF0040F0EF0040129D104EB8202E5
:10692000591CD268039201EA0C0104EB810102F0C8
:106930000302012AC96803F1020B32D0022AB9D03E
:1069400000214846009101F029F900990028C0D1A2
:106950004046C1E743880BEB93130CEA0302D11CBA
:1069600004EB810014F8211001F004010029D5D0B6
:1069700090F800E00EF0030EBEF1010F0BD0BEF157
:10698000020F03F1020B02F1030EE3D004EB8E00C1
:106990000029EDD1C2E702880233C2F38312134407
:1069A000DBE7BDF80C30C3F38313090C9B4489E784
:1069B0003A4613400333023205219DF80B0044F898
:1069C0002310226001F05EF80021124801F090F8D7
:1069D00080F31000F1007B1C2B40019A01F038017C
:1069E0003D4004EB830341F001010004033540EA1C
:1069F000164641EA8221DE6044F8251094F82034DE
:106A00001BB1FFF7FFFD0028FBD107B0BDE8F08FF9
:106A1000C0240020DC2800202DE9F04F684C89B00C
:106A2000002307460DF11300CDE902128DF8133053
:106A3000A56801F001F8D4E9012326681A4401325F
:106A4000921B022A00F2858004F21C4804F5836A36
:106A500004F214491BE0BDF81630C3F38913033365
:106A6000090C0BEB930B4846019101F097F8019943
:106A700000283ED04046C4F804B001F063F8D4E9E1
:106A80000113226819440131891A022962D80121AF
:106A9000404601F057F8504601F070F8484601F0C2
:106AA0006DF8D4E9013C03EA0C02D11C04EB81002F
:106AB00014F821E01EF0040F0EF0040129D104EBBC
:106AC0008202591CD268059201EA0C0104EB810193
:106AD00002F00302012AC96803F1020B32D0022A34
:106AE000B9D000214846019101F058F801990028D9
:106AF000C0D14046C1E743880BEB93130CEA030275
:106B0000D11C04EB810014F8211001F004010029CC
:106B1000D5D090F800E00EF0030EBEF1010F0BD0BF
:106B2000BEF1020F03F1020B02F1030EE3D004EBFE
:106B30008E000029EDD1C2E702880233C2F383122E
:106B40001344DBE7BDF81430C3F38313090C9B44F3
:106B500089E7324613400333033245219DF8130081
:106B600044F82310226000F08DFFB31C2B4004EB8F
:106B70008303039A1348DA60002100F0B9FF80F321
:106B80001000F900731C2B40029A01F038013540C7
:106B900004EB830341F041010004033540EA174749
:106BA00041EA8221DF6044F8251094F820341BB1BB
:106BB000FFF728FD0028FBD109B0BDE8F08F00BF2A
:106BC000C0240020DC2800202DE9F04F6C4C89B057
:106BD000002607460DF11300CDE9011203938DF84D
:106BE0001360A56800F028FFD4E9012326681A4441
:106BF0000132921B032A00F2858004F21C4804F53E
:106C0000836A04F214491BE0BDF81630C3F38913FC
:106C10000333090C0BEB930B4846009100F0BEFFC9
:106C2000009900283ED04046C4F804B000F08AFF26
:106C3000D4E90113226819440131891A032962D861
:106C40000121404600F07EFF504600F097FF484685
:106C500000F094FFD4E9013C03EA0C02D11C04EBE0
:106C6000810014F821E01EF0040F0EF0040129D178
:106C700004EB8202591CD268059201EA0C0104EB74
:106C8000810102F00302012AC96803F1020B32D02C
:106C9000022AB9D000214846009100F07FFF0099F8
:106CA0000028C0D14046C1E743880BEB93130CEAA0
:106CB0000302D11C04EB810014F8211001F004013F
:106CC0000029D5D090F800E00EF0030EBEF1010FC0
:106CD0000BD0BEF1020F03F1020B02F1030EE3D061
:106CE00004EB8E000029EDD1C2E702880233C2F323
:106CF00083121344DBE7BDF81430C3F38313090C8C
:106D00009B4489E7324613400333043285219DF8C2
:106D1000130044F82310226000F0B4FEB21C2A4095
:106D2000F31C2B4004EB820204EB830C029BD36028
:106D30000021039B1348CCF80C3000F0D9FE80F3FF
:106D40001000F900731C2B40019A01F03801354006
:106D500004EB830341F081010004033540EA174747
:106D600041EA8221DF6044F8251094F820341BB1F9
:106D7000FFF748FC0028FBD109B0BDE8F08F00BF49
:106D8000C0240020DC28002030B4154DD5F81014A4
:106D90000446002071B10B4601E01B6853B1DB686B
:106DA0001A798242F9D101300A28F3D14FF0FF302D
:106DB00030BC7047E3681871D5F810344BB1DA680D
:106DC000E36812681A60D5F81034DB681C6030BCC8
:106DD0007047C5F81044E268136030BC704700BFCC
:106DE000C024002038B5094BD3F81044012583F89E
:106DF00020544CB1E3685D71236820465B68984776
:106E0000E3681C68002CF5D138BD00BFC024002009
:106E100030B5C38885B004460D461BBB217A0529D1
:106E20001ED0627A82B9134AA08852F821200392B8
:106E30000021FFF7ADFB039A0F490346284605B032
:106E4000BDE8304000F026BFA088FFF7C5FB0B4B24
:106E50000B4953F82020284600F01CFF217AE2E776
:106E600005B030BD074A00920749084A284600F09D
:106E700011FFD3E7A0BB020000BB02007CBB0200F5
:106E8000FCBA0200F4BA0200DCBA0200D4BA020072
:106E90002DE9F04385B04FF0000C0C9C814694F82E
:106EA0000C8084F80CC00E461746184621461D4635
:106EB000FFF7AEFF062F09D8DFE807F0042E343BBA
:106EC000444F1F004946204600F0E4FE2B7A052B74
:106ED00005D06B7A5BB92749204600F0DBFE2046DF
:106EE00000F0CCFE84F80C8005B0BDE8F083224AA7
:106EF0002249204600F0CEFEEDE7D6E90413F26801
:106F00000393B3680291CDE900324946D6E90023E4
:106F1000204600F0BFFED9E732684946204600F01F
:106F2000B9FED3E7D6E900234946204600F0B2FE79
:106F3000CCE7B3680093D6E900234946204600F029
:106F4000A9FEC3E7D6E9023201920093D6E90023F5
:106F50004946204600F09EFEB8E7D6E90321B36813
:106F60000291CDE900324946D6E90023204600F0DF
:106F700091FEABE70CBB0200F4BA0200FCBA0200BF
:106F8000082900D970472DE9F04F9B4683B00024B3
:106F90001B7B8BF80C400D46064659461046904622
:106FA0000193DFF8D0902C4FFFF732FF05E0325D00
:106FB000013400F06FFE082C09D0A542394658462E
:106FC000F5D84946013400F065FE082CF5D1234977
:106FD000DFF8A490224C234F584600F05BFE4FF0A0
:106FE000000A0DE0D15D11F0970F08BF2E22214657
:106FF00058460AF1010A00F04DFEBAF1080F10D010
:10700000554505D916F80A207E2AEBD92E22EEE73F
:10701000494658460AF1010A00F03CFEBAF1080F51
:10702000EED198F80830052B02D098F8093063B9F2
:107030000D49584600F02EFE584600F01FFE019BF9
:107040008BF80C3003B0BDE8F08F084A0849584669
:1070500000F020FEECE700BF10BB02001CBB0200EA
:1070600020BB0200F1C502000CBB0200F4BA020012
:10707000FCBA020018BB020008BB02002DE9F04F69
:107080003D4B93F800E087B0BEF1000F5FD00027C2
:10709000DFF8F08002973C46012506E0029B0133B1
:1070A00002939DF80840A64551D9344BD8F80010FA
:1070B0001E68D8F8042016F83400A0F1200BC0F1A7
:1070C000200305FA0BFB25FA03F34BEA030305FA49
:1070D00000FC01EA0C0902EA030A06EBC40759EABC
:1070E0000A0B0397DAD021EA0C0122EA0303C8E96C
:1070F000001301F063FF16F83430214AC3F1200C6D
:10710000D2E90067A3F1200E614600FA0EF405FAF9
:107110000EF225FA01F105FA03FE20FA0CFC0A43EF
:107120000EEA060144EA0C0404913A4000FA03F125
:10713000009101940592DDE90412DDE900BC62458D
:1071400008BF594506D00C4B93F800E0A6E707B0FE
:10715000BDE8F08F03994A68002AF4D04978A1F17C
:107160000101B1FA81F14909091AB1FA81F149091C
:1071700018469047E7E700BF7C290020B829002087
:10718000A8290020B02900202DE9F8438046224894
:1071900000F016FCE0B9214D4FF0010CD5E90023B9
:1071A000A8F12004C8F120012CFA01F10CFA04F432
:1071B0000C430CFA08F902EA090603EA040756EA46
:1071C000070107D022EA090223EA0404C5E90024E2
:1071D000BDE8F883404601F0F1FE114B1E68A8B9E6
:1071E000586826EA090620EA0400D5E900211E6055
:1071F0000C4E586042EA09020C432A6031686C6008
:107200000548BDE8F843002200F084BB586849EA0D
:1072100006062043E9E700BF84290020B0290020AA
:10722000A829002080290020042A3BD92DE9F0411B
:1072300082B0144605460E4601F01EFD68B31E4995
:107240001E4A1F4B0D601F481F491C60167000230B
:107250000022741EC0E90023C1E90023E4B21EB37A
:10726000DFF8708005EBC4040027032602E0AC427F
:107270001AD01C46A37820788DF80530424601A923
:107280008DF806708DF8046001F000FDA4F108038C
:107290000028ECD002B0BDE8F08101F09FFC00288E
:1072A000CDD0F7E707207047084A0948002100F0D1
:1072B0001FFB02B0BDE8F081B82900207C29002026
:1072C00080290020A8290020B02900207D7002001C
:1072D000B4BB02008971020070B5084D2B785BB118
:1072E000074E00243368012113F8340001F0C0FD7B
:1072F0002B780134A342F5D8002070BD7C290020F2
:10730000B829002070B5094D2B7853B1084E0024E0
:10731000336813F8340001F017FE2B780134A342D0
:10732000F6D8BDE87040034800F04ABB7C29002035
:10733000B82900208429002000B585B0034600212B
:1073400001AA44F20100CDE90111039300F004F811
:1073500005B05DF804FB00BF10B572B6FFF742FD43
:10736000FFF750F90028FBD1104B114C1149E41ADA
:10737000E408240444F00100FFF77EFA0E4B1B687A
:10738000DB0700D500BE0D4944F00200FFF774FA98
:10739000BFF34F8F0A490B4BCA6802F4E0621343F4
:1073A000CB60BFF34F8F00BFFDE700BF60C7020097
:1073B00088C70200B8BB0200F0ED00E0C4BB0200C9
:1073C00000ED00E00400FA05F8B52049204B002448
:1073D000C1F84041C1F84441C1F84841C1F84C41AD
:1073E000C1F80041C1F804411B6833B31948D1F812
:1073F000045501681A686D1A25F07F45AA42274690
:107400000DD8197CDE69AD1A144419B1D3E90520F1
:107410001F7490471EB133461A68AA42F1D90E492B
:107420000E4A0B7812789A4208D00D490D4A41F85D
:1074300023404FF48013C2F80031F8BD531CDBB277
:10744000022B08BF00230B70EFE700BF00100140C4
:10745000DC2A0020D82A0020D52A0020D42A0020A7
:10746000CC2A002000E100E02DE9F04FB34AB449F6
:1074700013780978994285B000F088810133DBB236
:10748000022B08BF0023AF481370AF4A0568DFF82E
:10749000D08252F82310D8F800606B1823F07F4395
:1074A0000360002E00F0C181002007460446844698
:1074B0003346AE4613E0D868DD69C3F800C0891AC8
:1074C000144438B10EEB040222F07F42C3E90120DC
:1074D000DF611F460120002D00F05F812B461A68F6
:1074E0008A42E8D9002800F08B81C8F8003099461C
:1074F000521A1A6001230093944B954EDFF864A250
:1075000043F0010301934D464FF0000B002F31D0A3
:10751000D7E901303C46FF698A4ADFF84CC212685D
:10752000991A21F07F41614500F2DD800B1823603C
:1075300000220121C4E90122E2612174002D00F042
:10754000F3802A689A4280F0E880294605E0D1F865
:1075500000E09E4580F0CF8072460846C9699C468F
:107560009B1A0029F3D12360E161C4612C462546B2
:10757000002FCDD170783378984247D09C460CEBE1
:107580004C0CB27806EBCC0C591CCBB29A429CF84E
:107590000420337004BF00233370022ADCF8084053
:1075A00024D0032A18D0012AE6D1227C002AE3D174
:1075B000DCF80C306360DCF81000A060DCF814101C
:1075C000E1609AF800E0DCF81810A161BEF1000F4C
:1075D000A2D0626013469FE7002DCDD000232B740C
:1075E000ED69002DFBD1C8F80050C3E755B1AC429E
:1075F00000F0BC802A4601E0944239D01146D2699D
:10760000002AF9D1002222749842B7D1BBF1000FB1
:1076100001D1A94541D0002D44D04A4A4D4B1468B0
:10762000D3F804654C4FD5F800803A78351B25F027
:107630007F450335002A00F0B580464AA8452CBF97
:107640004444641924F07F44C2F84045D2F804351C
:107650009B1BA41B23F07F4324F07F440333A342EE
:1076600000F2B98000238AF8003005B0BDE8F08F41
:107670008C427DD0E0692268C861002858D0AC46B1
:10768000036813440360AC4552D00022337870780D
:10769000227465464FF0010BB6E7009B002BE1D04A
:1076A000002DBAD12B4E2D4A284C4FF400314FF407
:1076B00080330127C2F880103C43C6F848334FF4AA
:1076C0003C60C6F808337760A0471E4BB7604FF4A4
:1076D0003C601D60A047204B1D7000238AF80030DD
:1076E00005B0BDE8F08FD31A23F07F4383420BD25D
:1076F000C31A23601CE77244A2EB0C020A602360E9
:10770000E161C4612C4632E700230122C4E9003361
:10771000A360E36122743DB12A68C8F80040D31A1F
:107720002B60E561254623E7C8F8004025461FE7A2
:10773000002233787078227466E700BFD42A0020D4
:10774000D52A0020D82A0020CC2A0020E0BB020045
:10775000BC29002000100140C92A002000E100E0FF
:10776000DC2A0020C82A0020FEFF7F0029462A4686
:10777000D5F81CC0C8F800C0BCF1000F42D0D069D9
:107780001268C86100287FF47BAF7CE7DFF8B48023
:107790000027D8F800900097AEE6A946C8F8005038
:1077A0000090A9E62349244A4FF48030C3F84403EB
:1077B0004FF00109C3F804034FF40030C1F8800111
:1077C00042F001020860C3F800904FF43C6090471B
:1077D00087F8009031E7184BD2F80415C2F840152D
:1077E00043F001034FF43C609847124B4FF40032D2
:1077F000C3F8002100238AF8003005B0BDE8F08FFF
:10780000B14675E6CDE902210C4A0D48012393608B
:10781000C0F800C08AF800304FF43C60019B9847E4
:10782000DDE90221D8F800C0A9E70123B1463746B7
:10783000009361E600E100E0E0BB020000100140BF
:10784000D82A0020DC2A00202DE9F8431F4D204EC5
:10785000204FDFF898804FF480334FF400324FF020
:1078600001090024C6F8802047EA0907C5F8483313
:107870004FF43C60C5F80833C5F80490B847C5F824
:1078800008904FF43C60C8F80040B847124A134BC8
:1078900013491C601470134B134A0C700B211470A5
:1078A0001C8099704FF48012C023C6F8802186F89E
:1078B00014333260C5F8084586F81133D5F804351D
:1078C000C8F800302046BDE8F88300BF0010014032
:1078D00000E100E0E0BB0200C92A0020DC2A002011
:1078E000D42A0020BC290020D52A0020D82A002034
:1078F000074B9B783BB142B138B10368187C10B993
:1079000059745A617047082070470720704700BFBC
:10791000BC2900202DE9F043264EB37883B0002B1C
:107920003AD00446002837D004290D4638D9436997
:1079300093B3437C0027012B0DF107000CBF884651
:10794000B84691468DF8077000F076F87378B078F5
:107950003278591CC9B2884208BF39468A4223D0BE
:1079600003EB430306EBC3030120134A18719C6029
:10797000D2F804259DF807007170C3E90325C3E917
:10798000058900F07FF80D4B4FF480123846C3F89C
:10799000002103B0BDE8F083082003B0BDE8F08308
:1079A000072003B0BDE8F0839DF8070000F06AF8F7
:1079B0000420EEE7BC2900200010014000E100E0B7
:1079C00070B51B4EB37882B04BB3044638B34369ED
:1079D0002BB3002505740DF107008DF8075000F05A
:1079E0002BF87378B07831785A1CD2B2904208BF25
:1079F0002A46914216D003EB430306EBC303022150
:107A00009DF807009C601971727000F03BF8094BFB
:107A10004FF480122846C3F8002102B070BD082040
:107A200002B070BD9DF8070000F02CF80420F4E7C8
:107A3000BC29002000E100E070B4EFF3108472B6BE
:107A40000D4B9A68AAB90D490D4E01259D60D1F8DC
:107A5000805035401D60C1F88060D1F884505D6071
:107A60004FF0FF33C1F88430027004B962B670BCC5
:107A7000704701230370F8E7382D002000E100E093
:107A8000FC06FFBD094B9A687AB170B910B4EFF3E8
:107A9000108172B6064A1C6814605C685460986075
:107AA00001B962B65DF8044B70477047382D00206D
:107AB00000E100E04A09012301F01F0100EB820010
:107AC00003FA01F100F022B801F01F020123490975
:107AD000934000EB8100D94300F026B84B0901F038
:107AE0001F0150F82300C84000F00100704700BF9C
:107AF00010B4034653E8000F0A4643E8002494F00C
:107B0000000FF7D15DF8044B704700BF10B4034677
:107B100053E8002F42EA010043E8000494F0000F0C
:107B2000F6D15DF8044B704710B4034653E8002FBC
:107B300002EA010043E8000494F0000FF6D15DF87A
:107B4000044B704710B4034653E8002F02EB0100CA
:107B500043E8000494F0000FF6D15DF8044B704741
:107B600010B4034653E8002FA2EB010043E80004E1
:107B700094F0000FF6D15DF8044B704710B4034643
:107B8000012253E8001F41EA020043E8000494F098
:107B9000000FF6D15DF8044B704700BF10B40346E8
:107BA000002253E8000F00EA020143E8001494F0B9
:107BB000000FF6D15DF8044B704700BFB8B130B488
:107BC000D0E90112521A0468D2B2531E2160DBB20E
:107BD00042B101680A685C1E551C0D601370E3B267
:107BE000FF2BF6D103680020187130BC70470E20BF
:107BF000704700BFF0B583B0044600250DF10700C3
:107C00008DF80750FFF718FFD4E900311A688A424F
:107C100010D9511E19602168A3680F6812F8015C21
:107C20000A79268AE068DB1BDBB29A4206FB05056F
:107C300038BF0B719DF80700FFF724FF284603B0FB
:107C4000F0BD00BF30B5054683B000230DF107003D
:107C50000C468DF80730FFF7EFFE2A681368591CB1
:107C60001160E9682A8A641AB4FBF2F41C709DF86A
:107C70000700FFF707FF03B030BD00BF826842B1C5
:107C800010B5044643690168006998470023A36062
:107C900010BD70470EB400B582B0039921B104AB9A
:107CA00001AA019300F0ACF802B05DF804EB03B058
:107CB000704700BF2DE9F04F164683B0B142DDE9B1
:107CC0000C920F4605469A46C0F095800B464FF041
:107CD0000108B3FBF6F39E4208F10108F9D9D0453B
:107CE00038BFD04612F00103019302D1B9F1000F61
:107CF0005ED1AA68012403E00AF1FF3A06FB04F40E
:107D0000BAF1010FF8D8B7FBF4F39E42F6D9DFF8C9
:107D1000ECA007E0B442B4FBF6F31AD3AA681C4601
:107D2000B7FBF3F31AF803B0BBF10A0F04FB1377A8
:107D300028D02B68511CA96003F802B0D5E90132A4
:107D40009A42E7D32846FFF799FFB4FBF6F3B44213
:107D5000E4D2019B9BB1B9F1000F10D02024C8459B
:107D600009F1FF390BD2AB682A68591CA960D454B9
:107D7000D5E901329A4214D2B9F1000FEFD103B024
:107D8000BDE8F08F511C2B68A9604FF00D0199548C
:107D9000D5E901329A42CCD32846FFF76FFFAA6893
:107DA000C7E72846FFF76AFFB9F1000FD7D1E6E72A
:107DB00093071AD42024AA68C84502F1010199D278
:107DC0002B68A9609C54D5E901329A4209F1FF3928
:107DD00003D2B9F1000FEFD18CE72846FFF74EFF31
:107DE000AA68B9F1000FE7D184E7BAF1000F0CBF20
:107DF00030242024DFE74FF0010870E7E8BB0200E1
:107E0000002900F054822DE9F04FDFF8B8950C7886
:107E100085B0064690460D464FF00D0A10E00A2C3C
:107E2000B36800F0AD803268591CB160D454D6E913
:107E300001329A4280F0A0802C78002C00F08780DC
:107E40000135002C00F08380252CE8D1294600273D
:107E50000D4611F8012B2D2A00F08880302A00F001
:107E600088802B2A7AD02A2A00F09980A2F1300348
:107E7000092B4FF000040BD804EB840402EB4404FC
:107E800015F8012FA2F13003092BA4F13004F3D926
:107E90002E2A00F09080002301E015F8012F02F057
:107EA000FB016829F9D0252A00F07781583AD1B230
:107EB000202947D8202A45D8DFE812F035014400B0
:107EC0004400440044004400440044004400440092
:107ED00044004301130144004400440044001301E2
:107EE000440044004400440044004400D2004400E4
:107EF0004400A200440094004400440035010120E5
:107F00009842024638BF1A460292002C40F0508137
:107F1000B80740F16E81002B40F04E821C46BBF149
:107F2000000FC0F20A827A0700F11A8207F00302FA
:107F3000022A00F0EA81CDE9004759460A2230467C
:107F4000FFF7B8FE01352C78002C7FF479AF337B36
:107F5000002B40F01C8105B0BDE8F08F0D4611F8F4
:107F6000012B2D2A47F004077FF478AF47F0010773
:107F70006EE747F002076BE73046FFF77FFE5BE7EF
:107F80003268591CB16002F803A0D6E9012393427C
:107F9000FFF449AF3046FFF771FEB36843E7D8F806
:107FA00000301A1DC8F800206A781C682E2A05F1D6
:107FB00001057FF470AF6A78A2F13003092B05F157
:107FC00001054FF000033FF66AAF03EB830302EBBA
:107FD000430315F8012FA2F130010929A3F1300361
:107FE000F3D95CE7D8F80020111DC8F8001011681B
:107FF0003046CDE900470A22FFF75CFE0135A2E7D3
:10800000D8F800301A1DC8F8002017F00107D3F87F
:1080100000B040F0F080BBF1000F03D0584603F0F1
:1080200011FD0746BC4240F24381002C00F0408124
:10803000202205E0BC4200F03B81002C00F038819A
:10804000B1683368481CB0605A54D6E90130984290
:1080500004F1FF34EED33046FFF710FE2022E9E7AB
:10806000D8F80020131DC8F80030B36831681768CD
:10807000581C3022B060CA54D6E90123934280F0E4
:10808000EF803268581C7821B060D154D6E90132B3
:108090009A4280F0E0800F2F03D93B461B090F2B3B
:1080A000FCD84FF0805406E00F2C4FEA14137FF6F3
:1080B00049AFB2681C46B7FBF4F319F803B0BBF143
:1080C0000A0F04FB137754D03368511CB16003F8D6
:1080D00002B0D6E901329A42E6D33046FFF7CEFD30
:1080E000E2E7D8F80020111DC8F80010D2F800B05F
:1080F0008BEAEB72A2EBEB72092A7FF700AFDFF895
:10810000C8C2012011466329ACFB02E200F1010064
:108110004FEAD202F6DC9842024638BF1A46029273
:10812000002C45D1F4E6D8F80020111DC8F8001045
:1081300011683046CDE900471022FFF7BBFD01353D
:1081400001E7D8F800301A1DC8F800201C78B36881
:108150000A2C00F011813268591CB160D454D6E960
:1081600001329A42FFF4EEAE3046FFF787FD01354B
:10817000E9E63368511CB16003F802A0D6E9013288
:108180009A42A1D33046FFF779FDB2689CE73046AA
:1081900005B0BDE8F04FFFF771BDB3683168581CFA
:1081A000B060CA54D6E901329A42DDD20135CAE63E
:1081B000BBF1000F59DB7A0757D4B80702D5002B63
:1081C0003FF4ADAEF9073FF5AAAE94B12022029973
:1081D000A142BFF4A4AEB168481CB06030684254FC
:1081E000D6E90101814204F1FF3480F0D480002CF3
:1081F000EDD1002493E69BF80030002B00F0E080E6
:10820000B0685F46CBF101020A2B02EB070B3CD0B2
:10821000411CB16031680B54D6E90130984226D236
:1082200017F8013F002BEFD15C457FF68BAE20277E
:1082300002E05C453FF486AEB2683368511CB16021
:108240009F54D6E901329A4204F1FF34F1D330460B
:10825000FFF714FDEDE73046FFF710FDB2681AE7AF
:108260003046FFF70BFDB3680BE7013CA5E730464E
:108270000292FFF703FD17F8013F002BD4D0029ABA
:10828000B0680A2B02EB070BC2D1411CB160316808
:1082900001F800A0D6E901108842B9D33046CDE9F3
:1082A0000232FFF7EBFCDDE90232B068B0E770475D
:1082B0009BF80040002C3FF445AE0A2CB0680ED06D
:1082C0003368421CB2601C54D6E90130984214D283
:1082D0001BF8014F002C3FF435AE0A2CF0D1336867
:1082E000421CB26003F800A0D6E901309842E7D3FF
:1082F0003046FFF7C3FCB068E2E73046FFF7BEFC4C
:108300001BF8014F002CD8D11CE6002B7FF413AED4
:108310008CB130220299A142BFF40DAEB168481C65
:10832000B06030684254D6E90101814204F1FF3463
:108330003BD2002CEED10024FDE5B1684A1CB260AE
:1083400032682D205054D6E901219142CBF1000B27
:10835000FFF4ECAD30460393FFF790FC039BE5E59B
:10836000B1684A1CB26032682B205054D6E9012112
:108370009142FFF4DBADEDE73268591CB16002F8C1
:1083800003A0D6E901239342FFF4E5AE3046FFF7A0
:1083900075FCB368DFE630460393FFF76FFC039B81
:1083A0002022002C7FF413AF23E730460393FFF71E
:1083B00065FC039B3022BCE7F9073FF5B0AD18E739
:1083C0009B4631E7E8BB0200CDCCCCCCFFF7F6BB37
:1083D0002DE9F041058A0331043D4E198046B6FB74
:1083E000F5F6FFF707FCA0B3F6B24FF48073013E39
:1083F0000446C580C0F8008083802BD0034600254A
:1084000008E06279AE4202F1010262713860C0F8A0
:1084100000801FD040461F46FFF7ECFB01350346A6
:108420000028EED16779791E17D022460133994290
:108430001268FBD1D2F800805FB12668002501E008
:1084400034463668214601354046FFF7FBFBAF4214
:10845000F6D800242046BDE8F08120682146FFF7C9
:10846000F1FBF6E704300121FFF76CBB2DE9F04189
:10847000012104460430FFF773FB10F0FF0301D025
:10848000BDE8F0816779791E16D022460133994202
:108490001268FBD1D2F80080002FF1D026680025A9
:1084A00001E034463668214601354046FFF7CAFBF5
:1084B000AF42F6D8BDE8F08120682146BDE8F04122
:1084C000FFF7C0BB2DE9F8430546C688407914463E
:1084D00006FB00F2043A04EB030C1F1D624538BF93
:1084E000D41ABE428846B7FBF6F106FB117002D8DB
:1084F00001392D68FCD1371AA74228BF27469CB105
:108500004FF000090430E41B28443A4608EB090107
:1085100003F082FAA642B9442D6837464FF00000B6
:1085200028BF2746002CEDD1BDE8F8832DE9F8439C
:108530000546C6884079144606FB00F2043A04EB6F
:10854000030C1F1D624538BFD41ABE428846B7FBD4
:10855000F6F106FB117002D801392D68FCD1371AEB
:10856000A74228BF27469CB14FF0000904302918C4
:10857000E41B3A4608EB090003F04EFAA642B94460
:108580002D6837464FF0000028BF2746002CEDD15C
:10859000BDE8F88341DF7047064A074B10B5002459
:1085A00014701C60BFF35F8F0449054800F042F867
:1085B000204610BDE82A0020EC2A002004BC02005E
:1085C000E02A002000B583B000230DF107008DF8EC
:1085D0000730FFF731FAF1EE103A23F09F03E1EE96
:1085E000103ABFF35F8F0B4B4022C3F884219DF8F4
:1085F0000700FFF747FA03F051F828B920BF40BF42
:1086000020BF03B05DF804FBFFF7C4FF03B05DF8C3
:1086100004FB00BF00E100E08268002393608268F1
:108620001361826853618268D36082685360826894
:108630001360704701600B6843604A68934204BF4F
:1086400000234360704700BF436843B102689168EC
:108650000B4443605268934204BF00234360704759
:10866000114910B4A1F5947205E052F833309842E4
:1086700038BF21460CD28C1AE30F03EBE4035B10E6
:10868000914202EBC304F0D808485DF8044B7047F0
:1086900002D904F10802EEE76068044B5DF8044B70
:1086A000002808BF1846704738C10200FCBF02000E
:1086B00010B44FF080414FF080520020C1F80C01FF
:1086C0005E4BC1F81001C1F83805D2F80414C3F8A4
:1086D0002015D2F80814C3F82415D2F80C14C3F8E6
:1086E0002815D2F81014C3F82C15D2F81414C3F8B6
:1086F0003015D2F81814C3F83415D2F81C14C3F886
:108700004015D2F82014C3F84415D2F82414C3F845
:108710004815D2F82814C3F84C15D2F82C14C3F815
:108720005015D2F83014C3F85415D2F83414C3F8E5
:108730006015D2F83814C3F86415D2F83C04C3F8B5
:108740006805D2F840043E49C3F86C050968D2F8C0
:108750004424C3F87025082924D04FF08043D3F86F
:108760000024D20744BF6FF00102C3F80024354A49
:10877000D2F8883043F47003C2F88830BFF34F8FCB
:10878000BFF36F8F4FF01023D3F80022002A23DBB2
:10879000D3F80432002B1FDB2B4B2C4A1A605DF8F8
:1087A000044B70472A4B1B68002BD6D129482A4A14
:1087B0002A4C04602A492B4BFB20C2F818050A6892
:1087C0001B68294822F00F0203F00F0313434FF4F4
:1087D00000720B600260C0E7244A0123C2F804352E
:1087E000D2F80034002BFBD04FF0102312211F4A87
:1087F000C3F80012D2F80034002BFBD04FF0102346
:1088000012211A4AC3F80412D2F80034002BFBD00C
:1088100000231649C2F80435D1F80034002BFBD0F0
:10882000BFF34F8F0749124BCA6802F4E06213434B
:10883000CB60BFF34F8F00BFFDE700BF00C000401B
:108840003001001000ED00E0FC2200200090D00379
:10885000340100108C56004000F0004048810300B5
:10886000E40E0040580200104096024000E0014033
:108870000400FA05064B1A5C1F2A86BF054902F060
:108880001F024FF0A04101239340C1F80C357047FF
:1088900038C1020000030050064B1A5C1F2A86BF35
:1088A000054902F01F024FF0A04101239340C1F897
:1088B0000835704738C1020000030050C20730B4C9
:1088C0000ED483070AD54FF0A0430C22C3F82C27FF
:1088D000C3F83027C3F86027C3F8642730BC70475B
:1088E0004FF0A0430322C3F834274FF40055C3F8D8
:1088F00038274FF48044C3F83C274FF40041C3F8B5
:1089000040274FF48032C3F80855C3F80845C3F830
:108910000815C3F80825D4E710B568B90E4CA3684C
:10892000012262703BB1D3E900230020A260984786
:10893000A368002BF7D110BD0128FCD1064C236998
:10894000A070002BF7D0D3E90023012022619847C3
:108950002369002BF7D110BDF02A002070B910B5A3
:10896000074CA368012262703BB1D3E900230020C9
:10897000A2609847A368002BF7D110BD704700BFD5
:10898000F02A002030B5012883B004D003281DD080
:10899000B0B103B030BD224C00230DF107008DF8BB
:1089A0000730FFF749F823784BB3E3689DF80700D9
:1089B00001330122E360A270FFF764F803B030BD19
:1089C000184B0122C3F8802003B030BD144C00F0D6
:1089D000B1F800230DF107008DF80730FFF72CF8F0
:1089E000E368013BE360E5682DB19DF80700FFF700
:1089F00049F803B030BD00F0AFF8A570F5E70A48BC
:108A00006360A3602361E36000F088F802F046FE33
:108A100010B101232370C8E700F08CF8F9E700BF1C
:108A2000F02A002000E100E01989020030B585B08D
:108A3000047845688DF80040D0E90240064A074BAB
:108A4000039053F82130019552F821108DF8084019
:108A50006846984705B030BD042B00200C2B002041
:108A600030B585B0047845688DF80040D0E9024003
:108A7000064A074B039053F82130019552F8211014
:108A80008DF808406846984705B030BD042B00209B
:108A90000C2B00202DE9F047DFF8748090F800E0FF
:108AA0004B7F08F80E300D46074616460FCD88B0AE
:108AB0006C460FC495E80F003D78DFF85890DFF85A
:108AC00058C018F8055049F82E6084E80F004CF89B
:108AD0002E00CDF810E05DB1002E0B4A694607F17B
:108AE000040008BF324601F0D3F808B0BDE8F087B3
:108AF000002E064A694607F10C0008BF324600F016
:108B000057FE08B0BDE8F0872D8A0200618A020096
:108B1000442D00200C2B0020042B0020044A137944
:108B200023B9012110609180184670478520704755
:108B3000142B0020074B1A68D20704D4C02101224D
:108B400083F800131A604FF080430122C3F8182500
:108B5000704700BF00E100E0044B01221A604FF0B3
:108B60008042D2F81834DB03FBD470470C0000407D
:108B700010B5174B1A6882B062B10021154A19600E
:108B80001B68507900934FF080410123009CC1F88D
:108B9000083398B1104B1A68BAB100221A601B68EA
:108BA00001934FF0804202210A4B0198C2F808134A
:108BB0001B68012002B0BDE81040184711685371CE
:108BC0008847054B1A68002AE7D102B010BD00BFE4
:108BD00000010040142B00200401004030B5224C5D
:108BE00094F86A5083B0002D3AD14FF0FF304FF027
:108BF000FF314FF0FF33C4E90001C4E90C01C4E9BF
:108C00000E01C4E91001C4E91201C4E91401C4E968
:108C100016010622294604F16400C4E90233C4E9BE
:108C20000433C4E90633C4E90833C4E90A332366CC
:108C300002F000FF0D4A0E4B0E491D60C02082F865
:108C40000603402010601B68019301984FF0004319
:108C50000122284684F86A20C1F8043303B030BDED
:108C6000082003B030BD00BF202B002000E100E051
:108C70007C61004000600040034B93F86A000038BC
:108C800018BF0120704700BF202B0020F0B4754BA7
:108C90001D1895F93040002C61DA8C78A707C4F3D1
:108CA000400C53D41C6A013400F0D5805C6A013456
:108CB00000F0CA800C260A2453F82450013552D003
:108CC000651CB5423FD253F82570013700F0B480DF
:108CD000A51CB54237D253F82570013700F0AC809F
:108CE000E71CB7422FD253F8275001353AD0271D41
:108CF000B74228D253F82750013533D0671DB74209
:108D000021D253F8275001352CD0A71DB7421AD2D3
:108D100053F82750013525D0E71DB74213D253F839
:108D2000275001351ED004F10807B7420BD253F883
:108D30002750013516D00934B44204D2DC6A01341C
:108D400008BF0B240FD00420F0BC70471C6801340E
:108D500074D05C6801346DD008260224ACE708208A
:108D6000F0BC70473C461E1865B243F8242086F8D4
:108D70003050BCF1000F02D11C4484F858008A78AE
:108D800054071AD4D60744D41F284C7887BF364ED0
:108D900000F01F0202464FF0A04602F5E072A40068
:108DA00046F82240314EC40800F0070C375D01221E
:108DB00002FA0CF23A4332558A7812F002021CD0C1
:108DC000AB0003F1804303F5C0430978D3F81045A5
:108DD00024F44F3424F44074C3F81045020209040B
:108DE000D3F8100501F4403102F47C520A430243E7
:108DF000C3F810250020F0BC7047083D2B440878CC
:108E000093F8601041EA801183F860101046F0BCBE
:108E100070471F2887BF144A00F01F0404464FF014
:108E2000A04202EB8402D2F8004724F00204C2F808
:108E30000047B7E7012496E72C4694E7002485F81D
:108E400030401A6025469AE7092685F830605A6254
:108E50003446354690E7082685F830601A62344675
:108E6000354689E7202B002000030050842B00208A
:108E700070B4324C251883B095F93030072B22DDC1
:108E8000234493F858309B09032B46D0012B0CBF89
:108E90004FF400324FF440321F288ABF284B4FF066
:108EA000A04300F01F0003EB8000D0F8003723F44C
:108EB0004033C0F80037D0F800371A43C0F8002715
:108EC00003B070BC7047DAB2072AF9D8980000F1F5
:108ED000804000F5C04003F140029200D0F81065D8
:108EE00092B202F1804202F5C04246F00106C0F89B
:108EF00010650020106012680192019A0029DFD0ED
:108F000095F9302054F82220002AD9D00D490122A9
:108F100002FA03F3C1F80433D2E71F288ABF084AD4
:108F20004FF0A04200F01F03D2F8102598BF03466F
:108F3000DA4002F0010202321204ADE7202B0020D9
:108F40000003005000600040194B034493F9303097
:108F5000072B13DD1F288ABF164B4FF0A04300F0EC
:108F60001F0003EB8000D0F8003723F44033C0F833
:108F70000037D0F80037C0F800377047DAB2072A58
:108F800014D810B49A0002F1804202F5C0420A4C93
:108F9000D2F81005012120F0010001FA03F3C2F814
:108FA0001005C4F808335DF8044B7047704700BFE4
:108FB000202B002000030050006000401F288ABFC3
:108FC000054B4FF0A04300F01F00D3F8103523FAF3
:108FD00000F000F001007047000300502DE9F04759
:108FE000002388B0CDE90233C94A1168012900F095
:108FF0004B821E46C74B1A68012A00F03782C64BC7
:109000001A68012A00F02482C44B1A68012A00F071
:109010001182C34B1A68012A00F0FE81C14B1A6805
:10902000012A00F0EB81C04B1A68012A00F0D881B8
:10903000BE4B1A68012A08D0BD4B1A68012A00F0FD
:109040002F8216BB08B0BDE8F087BA4AD2F80423D5
:109050001706F1D500221A6019680091196E009860
:10906000012903F1600346F080060ED11A601B68E7
:1090700001934FF0A042019BD2F81025AE4B029213
:10908000D3F81035039346F00046AC4F0024012579
:10909000A30003F180432E4203F5C0434FEA450588
:1090A0000BD0D3F8100557F82420D3F81015C0F3CF
:1090B0000520C1F3014102B190470134082CE7D1EA
:1090C000002EBFDA9D4C9C4F4FF0FF304FF0FF3128
:1090D000CDE9060194F960000DF110080023451C4C
:1090E000C8F8043004934FF0010600F0F780C0F395
:1090F000C20908AB03EB090E00F007031EF8082CA9
:1091000006FA03F312EA03055FFA80FC00F03F0061
:1091100021D022184FEA9C1192F9302054F82220D5
:10912000002A00F03781032900F036811F2800F261
:10913000EB8005464FF0A04C0CEB850C1EF8185C3C
:10914000DCF800E71D40CEF3014E40F0D180BEF1C7
:10915000030F00F0B78194F96100411C33D0C0F3D4
:10916000C20E08AB03EB0E0C00F007031CF8081C42
:1091700006FA03F31942C2B200F03F0023D004EB19
:109180000009910999F9309054F82990B9F1000F2C
:1091900000F01281032900F012811F2800F2F680EE
:1091A00086464FF0A04202EB8E021CF818ECD2F873
:1091B00000C71EEA030FCCF3014C40F0DA80BCF18B
:1091C000030F00F0918194F96200421C33D0C0F388
:1091D000C20E08AB03EB0E0C00F007031CF8081CD2
:1091E00006FA03F31942C2B200F03F0023D004EBA9
:1091F0000009910999F9309054F82990B9F1000FBC
:1092000000F0D080032900F0D0801F2800F2A58054
:1092100086464FF0A04202EB8E021CF818ECD2F802
:1092200000C71EEA030FCCF3014C40F08980BCF16B
:10923000030F00F06D8194F96300431C33D0C0F339
:10924000C20E08AB03EB0E0C00F007031CF8081C61
:1092500006FA03F31942C2B200F03F0023D004EB38
:109260000009910999F9309054F82990B9F1000F4B
:1092700000F0AC80032900F0AC801F288BBFBE46F5
:109280004FF0A04E02F01F0202460EEB82021CF8C5
:1092900018ECD2F800C71EEA030FCCF3014C60D1E2
:1092A000BCF1030F1CD0002D3FF4CCAE4FF0A04218
:1092B000029BD2F81015D7F810058B4203D1039BFF
:1092C00083423FF4BFAEDDE90423CDE9021094F9F7
:1092D0006000451CCDE906237FF409AF00253AE77D
:1092E000032900F02981B9F1000FDCD0C847DAE783
:1092F000BEF1020FF2D1032900F039810025002AC6
:109300003FF429AF904726E70CF01F05BC4613E752
:109310000061004004610040086100400C610040B1
:109320001061004014610040186100401C61004061
:109330007C6100400060004000030050202B0020B2
:10934000BCF1020F7FF477AF032900F00D81B9F172
:10935000000F3FF470AFC8476DE702F01F0E3A46AA
:1093600059E7BCF1020F9ED10329BCD14FF4403C18
:10937000E4E0BCF1020F7FF426AF032900F0F18096
:10938000B9F1000F3FF41FAFC8471CE702F01F0EF2
:109390003A4608E70329A1D118F809501D4308F8F7
:1093A0000950C3E603297FF446AF18F80EA04AEA35
:1093B000030A08F80EA028E703297FF404AF18F881
:1093C0000EA04AEA030A08F80EA0E6E603297FF495
:1093D0006AAF18F80EA04AEA030A08F80EA04CE794
:1093E000644AD2F8042352067FF522AE00221A60A6
:1093F0001B680093009B46F0400619E65D4AD2F8D0
:10940000042391067FF50FAE00221A601B680093BB
:10941000009B46F0200606E6564AD2F80423D00602
:109420007FF5FCAD00221A601B680093009B46F09C
:109430001006F3E54F4AD2F8042314077FF5E9AD8F
:1094400000221A601B680093009B46F00806E0E5C6
:10945000484AD2F8042355077FF5D6AD00221A609A
:109460001B680093009B46F00406CDE5414AD2F804
:10947000042397077FF5C3AD00221A601B68009391
:10948000009B46F00206BAE53A49D1F8046316F0AB
:1094900001063FF4AFAD136013680093009BA9E58C
:1094A00000221A601B6801934FF0A042019BD2F882
:1094B0001025314B0292D3F810350393002E3FF460
:1094C00001AEE0E503297FF41AAF4FF40035DCF874
:1094D000003723F44033CCF80037DCF800372B4357
:1094E000CCF8003701250AE703297FF449AF4FF490
:1094F000003CD2F8003723F44033C2F80037D2F8EA
:10950000003701354CEA0303EDB2C2F8003737E704
:1095100003297FF41CAF4FF4003CD2F8003723F44A
:109520004033C2F80037D2F8003701354CEA030364
:10953000EDB2C2F800370AE74FF4003CD2F800372A
:1095400023F44033C2F80037D2F80037013543EA3C
:109550000C03EDB2C2F80037B9F1000F7FF4C6AECC
:10956000A4E64FF4403CC4E74FF4403CD5E74FF449
:109570004035ACE70060004000030050014B1B6821
:10958000184700BF8C2B0020114B98421DD130B5DD
:1095900083B000230DF107008DF807300D46FEF76C
:1095A0004BFA0C4B1C794CB99DF807001D60012249
:1095B0001A71FEF767FA204603B030BD9DF8070028
:1095C000FEF760FA112003B030BD0020704700BFE5
:1095D000002000408C2B0020034B984203D1034B0A
:1095E00000221A601A717047002000408C2B002066
:1095F00030B56D4AD2F8043399058BB068D5D2F8EE
:109600002431002B64D00023C2F82431D2F8243155
:1096100003934FF40171654B0398C2F8081393F854
:10962000291009B9012151605F4902228DF81820E3
:10963000D1F88024C1F880249869D968099200245F
:109640000025CDE90710C3E90645D3E9001206A8B5
:109650009047554AD2F81C31C3B1544B186A596926
:1096600088426AD293F8280000F0FF04002864D1F1
:10967000C2F81C41D2F81C11029102999C68186A28
:10968000196A205C01311962C2F81C05464AD2F8F9
:109690004431DBB10021454BC2F84411D2F84401FA
:1096A00093F829100090009809B1012111609A697E
:1096B00062B1586AD96800229A610122CDE9071087
:1096C0008DF8182006A8D3E9001290470BB030BDE2
:1096D000354AD2F804335B07BBD5D2F80831002BEA
:1096E000B7D0324B996900293CD00021C2F808114B
:1096F000D2F8081104910499D868596AD2F818254B
:1097000042545A6A996901325A625A6A8A42A0D10D
:10971000DA69002A2FD0DD685C6A18699A61012134
:109720000022D860DA615A628DF81810CDE907542A
:10973000D3E9001206A890478BE71B4A0020C2F825
:109740001C01D2F81C210192019A00299ED09A682E
:109750008DF8180008915861079206A8D3E9001205
:10976000904793E7C2F80811D2F8080105900598D0
:10977000D2F81825C9E793F8292012B90A4A01211D
:109780005160094A4FF40171C2F80813596ADA6846
:1097900008910024012007928DF81800D3E90012E7
:1097A0009C6106A8904754E700200040982B0020B9
:1097B0002DE9F041DFF8DC8106792C2303FB0683D9
:1097C00082B093F82A30002B40F09A8005460C4670
:1097D00000686B491746FFF7D7FE002840F08C80E1
:1097E0002368591C19D01F2B4FF001028ABF65490D
:1097F0004FF0A04103F01F0302FA03F3C1F808354C
:1098000023681F2B86BF03F01F035E4A4FF0A04260
:1098100003F5E073032142F8231063685A1C0BD050
:109820001F2B86BF03F01F03564A4FF0A04203F5DB
:10983000E073002142F823102B68A269C3F82425A5
:10984000217D637D2A680B43C2F86C35D4E9001290
:109850002B68C3F81425C3F80C15237D012B5BD0AE
:109860002C2303FB06F308EB03025760226948F838
:10987000032077B32A68237F434C0021C2F81C11D0
:10988000D2F81C2100922A68009FC2F84411D2F835
:1098900044112A6801910199C2F804432A6842F3ED
:1098A000073100294FEA12322EDB01F1604101F548
:1098B00061415B01DBB281F800332B68334C43F329
:1098C00007325209C3F30433012101FA03F344F8C8
:1098D00022302C23296803FB06860424002301225E
:1098E000C6E90633C1F8004586F82A2086F82930F3
:1098F000736102B0BDE8F081112002B0BDE8F081D3
:10990000082002B0BDE8F081214902F00F025B019E
:109910001144DBB20B76D0E7A368591C0BD01F2B88
:1099200086BF03F01F0317494FF0A04103F5E07312
:10993000002241F82320E3685A1C1AD01F2B8ABF4B
:1099400010494FF0A04103F01F03012202FA03F374
:10995000C1F80835E3681F2B88BF03F01F0303F528
:10996000E0738CBF07494FF0A041032241F8232048
:10997000E3682A68A168C2F80835C2F810156FE7D5
:10998000F1950200000300508000020000E100E0B9
:10999000FCEC00E0982B0020F8B53A4F04790268FF
:1099A0002C2303FB047300215B68C2F8001583B10C
:1099B0000368354AC3F808230268344D42F307337D
:1099C0005B092033C2F30432012101FA02F245F8A7
:1099D000232003684FF0FF3CD3F80C65D3F81455EF
:1099E000D3F80825D3F81015C3F814C5C3F80CC56F
:1099F00003686645C3F808C5C3F810C50CD01F2E10
:109A000086BF06F01F06224B4FF0A04306F5E07616
:109A10004FF0020C43F826C06E1C0BD01F2D86BFE2
:109A200005F01F051A4B4FF0A04305F5E07502261F
:109A300043F825604D1C0BD01F2986BF01F01F0184
:109A4000134B4FF0A04301F5E071022543F821507C
:109A5000531C0BD01F2A86BF02F01F020C4B4FF085
:109A6000A04302F5E072022143F822100068FFF7DC
:109A7000B3FD2C2303FB0474002384F82A306360B5
:109A8000F8BD00BF982B00208402020000E100E036
:109A9000000300502DE9F041314E05792C2303FBE2
:109AA00005630446586984B000284CD11862996057
:109AB00083F828005A612268C2F81C01D2F81C11F0
:109AC000226802910121029F91602268D3F808C0A8
:109AD000C2F81C01D2F81C11019101991F6A196A80
:109AE0001CF8077001311962C2F81C755A6812B16E
:109AF00004B0BDE8F0811A6A5F692168BA421BD2DE
:109B0000864602E093F828200ABBD1F81C21002ADF
:109B1000F8D0C1F81CE1D1F81C210392039AD3F8C4
:109B200020801A6A1CF8088001321A62C1F81C856C
:109B30001A6ABA42E9D32168D1F81C31002BFBD054
:109B40000123CB6004E0112004B0BDE8F0810F20B8
:109B50002C2303FB056500236B6104B0BDE8F08195
:109B6000982B002030B5484BD3F8242189B0002A27
:109B700057D00022C3F82421D3F8242102920222D4
:109B80008DF81020029AD3F88014404AC3F880144C
:109B90000791D3F83C15D36806910024002505935E
:109BA000C2E906451168536804A89847364BD3F8B4
:109BB00044214AB10021354AC3F84411D3F8440185
:109BC000916901900198D9B92F4BD3F82021AAB1FE
:109BD0000021C3F82011D3F820012C4A00900098EE
:109BE000506958B1D3F84C05936806908DF8101061
:109BF0005161059304A8D2E90013984709B030BD1C
:109C0000D3F83C35D1680693002400250123059143
:109C10008DF81030C2E90645D2E9001304A8984730
:109C2000D2E7D3F810110029C0D0C3F81021D3F81F
:109C300010111648039103998469D3F83C15A14289
:109C4000B4D1C469A4B1D3F80052846125F02005D1
:109C5000C3F80052D0E90343C26101220691C360F8
:109C60000168436805948DF8102004A898479DE783
:109C7000C26884610123CDE905218DF81030D0E957
:109C8000001304A8984791E700200040C82B00204B
:109C90002DE9F04307797C4E07EBC70306EB8303FE
:109CA00085B093F82030002B40F0AD8004460D467F
:109CB000006876499046FFF767FC002840F09F80D7
:109CC0002B68591C4FEAC70919D01F2B4FF001020E
:109CD0008ABF6F494FF0A04103F01F0302FA03F35C
:109CE000C1F808352B681F2B86BF03F01F03684A95
:109CF0004FF0A04203F5E073032142F823106B6894
:109D00005A1C0BD01F2B86BF03F01F03604A4FF075
:109D1000A04203F5E073002142F823102368AA69EA
:109D2000C3F82425297D6A7D23680A43C3F86C257E
:109D3000D5E900312268C2F80C35C2F814152B7D24
:109D4000012B6CD009EB070206EB8203C3F80480F9
:109D50002B6946F82230B8F1000F3FD021682B7FE5
:109D60004C4D0022C1F81021D1F81011009121684A
:109D7000DDF800C0C1F82021D1F82011019121683F
:109D8000DDF804C0C1F82421D1F824110291216822
:109D9000DDF808C0C1F84421D1F8441122680391CC
:109DA0000399C2F80453226842F3073100294FEAAD
:109DB00012322CDB01F1604101F561415B01DBB244
:109DC00081F800332368344D43F307325209C3F35B
:109DD0000433012101FA03F345F822304F4422688D
:109DE00006EB8706002301240821C2F80015C6E906
:109DF000063386F82040736105B0BDE8F08311207A
:109E000005B0BDE8F083082005B0BDE8F083234924
:109E100002F00F025B011144DBB20B76D2E7AB68B4
:109E2000591C0BD01F2B86BF03F01F0318494FF09E
:109E3000A04103F5E073002241F82320EB685A1C8F
:109E40001AD01F2B8ABF12494FF0A04103F01F0305
:109E5000012202FA03F3C1F80835EB681F2B88BF13
:109E600003F01F0303F5E0738CBF09494FF0A041D5
:109E7000032241F82320EB682268A968C2F808355C
:109E8000C2F810155EE700BFC82B0020659B0200DA
:109E9000000300501003020000E100E0FCEC00E0D1
:109EA000F8B506793B4C026806EBC60304EB830366
:109EB00000215B68C2F80015F70083B10368364AD9
:109EC000C3F808230268354D42F307335B0920339A
:109ED000C2F30432012101FA02F245F8232003689B
:109EE0004FF0FF3ED3F80CC5D3F81455D3F808252E
:109EF000D3F81015C3F80CE5C3F814E50368F4456E
:109F0000C3F808E5C3F810E50DD0BCF11F0F86BFFC
:109F10000CF01F0C224B4FF0A0430CF5E07C4FF0EF
:109F2000020E43F82CE06B1C0CD01F2D86BF05F0F1
:109F30001F051B4B4FF0A04305F5E0754FF0020CD9
:109F400043F825C04D1C0BD01F2986BF01F01F010F
:109F5000134B4FF0A04301F5E071022543F8215067
:109F6000531C0BD01F2A86BF02F01F020C4B4FF070
:109F7000A04302F5E072022143F822103E4404EBB4
:109F800086040068FFF728FB002384F82030636014
:109F9000F8BD00BFC82B00201003020000E100E064
:109FA00000030050F0B401F06044B4F1005F82B0EF
:109FB0002CD10579244E05EBC50406EB8404034639
:109FC0006069EF00002839D16261A1601A68C2F8A7
:109FD0002001D2F820C11A68CDF804C0DDF804C011
:109FE000C2F85801D2F8582100921A68DDF800C072
:109FF000D4F814C0C2F84415C2F848C51A68012143
:10A000009160626832B102B0F0BC7047102002B0BB
:10A01000F0BC70471B6800E0A0B9D3F82021D3F84A
:10A020005801002AF8D0002818BF0F207B1906EB32
:10A03000830300225A6102B0F0BC7047112002B0C5
:10A04000F0BC70470F20F1E7C82B002072DF70478B
:10A0500073DF704776DF70477ADF70477CDF7047C9
:10A060007FDF70478FDF7047B1DF7047FDF764B95E
:10A0700008B5037803B108BD054B3B211888FFF7ED
:10A08000E9FF0028F7D0BDE80840FDF755B900BF4B
:10A090001A2300200B2801D0FDF74EB9104B1148B0
:10A0A000C01AC008000410B540F003000C460E4969
:10A0B000FCF7E2FB0D4B0E491888224601F040FAEE
:10A0C00030F0080207D043F20202904203D043F27C
:10A0D0000142904200D110BDBDE81040FDF72CB9FF
:10A0E00060C7020088C7020068C102001A2300206E
:10A0F000402C002008B502206AB1FEF7BBFB0948DE
:10A10000094B0A49C01AC0080004BDE8084040F0E5
:10A110000300FCF7B1BBFEF7BFFB0248024B04494A
:10A12000F0E700BF88C7020060C7020084C10200D8
:10A1300098C10200FDF700B910B50388212B82B049
:10A14000044630D80F2B2CD9103B112B29D8DFE82F
:10A1500003F04609286228282828282828282828A3
:10A160002828283C3A4B3B483B49C01AC008000409
:10A1700040F00300FCF780FB0120FEF78DFB374B1E
:10A180004FF6FF721A80FDF7BDF800285DD1344B01
:10A1900001211878FFF75CFF002853D10020FEF75B
:10A1A00069FB02B010BD522B3FD0562B09D1A088BD
:10A1B0001321FFF74FFF0028F3D0FDF7BDF802B0E1
:10A1C00010BD3B2BF3D002B010BD00238088ADF84A
:10A1D000043001A9FFF746FF0028E2D0EDE71C4B51
:10A1E0001C482049C01AC008000440F00300FCF7D6
:10A1F00043FB0120FEF73EFB0020FEF74DFB174B13
:10A20000A1881948198001F08FF8C0B9FDF764F8EA
:10A210000028C6D0D1E7114A0023108885211A46AC
:10A22000FFF71EFF0028BCD0C7E70C4A00231088A8
:10A2300019461A46FFF718FF0028B2D0BDE7FDF710
:10A240007BF8E3E7FDF778F8A8E7FDF775F89EE7F8
:10A2500060C7020088C70200B8C102001A230020AC
:10A2600018230020ACC10200582C002000B54FF488
:10A270000041A7B00020FCF76BF9002840F0E28015
:10A28000FCF756F90120FEF719FBFDF7DDFA00286F
:10A2900040F00881854840F266620121FCF7C4FF66
:10A2A000002840F0FC80FEF777F9002840F0F480A9
:10A2B00001F068F9002840F0EC80002317A9012084
:10A2C000179301F03BFA002840F0E08017A801F056
:10A2D000F3FA002840F0D780112375488DF820301C
:10A2E00001F0B0FB724982B208A8FFF7B7FE002860
:10A2F00040F0C6800822002117A801F09BFB6D4B9F
:10A30000179317A84FF0C8731893FFF7A5FE0028FE
:10A3100040F0B3806848002100F0F8FE002840F0CB
:10A32000A980664B66481793002217A9089200F08F
:10A33000E9FF002840F09B80624B6348089308A91E
:10A3400001F096F8002840F08F805F4B5F4C9B7CBB
:10A350008DF806303C2241F22353002108A8ADF8C5
:10A36000043001F067FB022040F201633C2200212F
:10A370008DF8200017A8ADF8223001F05BFB2246D3
:10A38000012501AB52F8041BADF86C5008A81C93D2
:10A3900000F02CF9002864D1A1684D4A17A800F0FC
:10A3A00025F900285AD11822002102A801F042FB09
:10A3B000012000234FF4807540248DF808004349A4
:10A3C0004448ADF8143002AA0393ADF81C5004942D
:10A3D000FFF73CFE00283ED11C22002117A801F007
:10A3E00029FB00233C4A1793ADF86A308DF86C3096
:10A3F0003A4B4FF420254FF42034032117A8CDE920
:10A400001854CDE91C238DF8681000F023FCF8B92E
:10A41000334B34483449C01AC008000440F00300EC
:10A42000FCF72AFA2B4B01211878FFF711FE60B9CF
:10A430000020FEF71FFAFCF7E5F80028FBD1FEF735
:10A44000C1F8F8E7FCF778FF1AE7FCF775FFEFE7CC
:10A45000FCF772FFDCE7FCF76FFFBDE7FCF76CFF72
:10A46000A1E7FCF769FF97E7FCF766FF6DE7FCF7EC
:10A4700063FF61E7FCF760FF53E7FCF75DFF49E727
:10A48000FCF75AFF36E7FCF757FF25E7FCF754FFC8
:10A490001CE7FCF751FF10E7FCF74EFF08E7FCF75D
:10A4A0004BFF00E7FCF748FFF4E600BF0023002065
:10A4B000C8C102005000A0002C2C00206DA002009A
:10A4C000582C0020F5A00200402C0020082300207A
:10A4D000142300201823002071A0020035A10200DF
:10A4E00060C7020088C70200D8C102006DDF704754
:10A4F00079DF70477DDF704764DF70472DE9F04FEB
:10A5000087B00746119D00882C880394BDF8484009
:10A51000DDF840A0CDE90142002858D04FF00009F5
:10A5200088461E46CB4604E03A880BF1010B934562
:10A530002CDAD8F8002052F82B00059000220DF1FB
:10A54000130105A8FFF7D8FF044658BB9DF8132058
:10A55000B242E9D1B9F1000F28D02A88019B9119A4
:10A56000994239DC52440DF1130105A84FF001095D
:10A57000FFF7C2FF002834D129889DF813200A4430
:10A580002A803A880BF1010B9345D2DBB9F1000F19
:10A590001DD02B88039A013B9B1A9BB2FF2B1BD823
:10A5A0000AF80230204607B0BDE8F08F2A88019BE8
:10A5B000511C324402329A4289B20DDC029B29803E
:10A5C0000AF801302A88013292B22A80CAE70024B0
:10A5D000204607B0BDE8F08F0C24204607B0BDE848
:10A5E000F08F0446204607B0BDE8F08F2DE9F04714
:10A5F00000231788138090F82D3088B01446054644
:10A600000E46002B40F00081AA78002A40F0F58029
:10A61000E978A1B1DA1CBA4200F2F2800222F254C7
:10A62000238801339BB201222380F25423881344F0
:10A630009BB22380F154238813449BB223806A6821
:10A64000AAB1D91CB94200F2DB80022192F90020A4
:10A65000F154238801339BB20A212380F1542388CB
:10A6600001339BB22380F2542388013323802B894A
:10A67000002B40F0F3802B8A002B40F02B812B8B9A
:10A68000002B40F046812B6A002B44D02088821D8D
:10A69000BA4200F2B5801A88052A40F299816FF417
:10A6A000486802EB080189B24FF27D3C614540F2F7
:10A6B0008F815988052940F28B816FF4486E8E4452
:10A6C0001FFA8EFEE64540F283814FF6FF7C62451D
:10A6D00004D0614502D08A4200F27A8105223254C8
:10A6E0002288013292B212212280B1542288013292
:10A6F00092B222801988B1543244090A51702288DA
:10A70000023292B222805B88B35432441B0A5370E7
:10A710002388023323806B6A002B2FD09988B4F8EA
:10A7200000C0881C0CF102020244BA4268D8FE281C
:10A7300066D8033106F80C102288013292B2FF214C
:10A740002280B1542288013292B222801988B154F9
:10A750003244090A51702088023080B220809A88E1
:10A7600062B199680593002900F03281304401F00C
:10A7700053F9059B9A8823881344238095F82C303D
:10A78000002B40F0E380287800283AD02B88012B5A
:10A7900000F01E8123889A1CBA4231D8012804D1C6
:10A7A0006978023119448F422AD3023FFF1ABFB29F
:10A7B000B01806A9ADF81870FFF79CFE08BB2B78FF
:10A7C000022B00F00D816978BDF818209142C0F08D
:10A7D00003819742C0F0008117460922FE2F0FD84F
:10A7E0002388791CF154238801339BB22380F254CF
:10A7F000238801331F44278003E00433BB424CD934
:10A800000C2008B0BDE8F087082FF9D906A8FFF79B
:10A810006DFE0028F5D123880822F25423880133E5
:10A820009BB21B222380F2542088013080B220800A
:10A83000062230440DF1190101F0EEF823889DF84D
:10A84000182006339BB212F0FE0218BF01222380AB
:10A85000F254238801339BB22380D5E605F1080822
:10A86000022305F10C01CDE90147009640461A4646
:10A870000591FFF743FE0028C3D1CDE901470599B3
:10A880000096404610230622FFF738FE0028B8D174
:10A890002B8A002B3FF4F3AE1CE006A8FFF728FE3E
:10A8A0000028AED12388BDF818200321F154238855
:10A8B00001339BB219212380F154238801339BB2C9
:10A8C000F1182380F254130A4B70238802339BB291
:10A8D00023809DE605F1100805F11401CDE901473B
:10A8E00000964046022303220591FFF707FE002849
:10A8F00087D1CDE9014705990096404610230722EC
:10A90000FFF7FCFD00287FF47CAF2B8B002B3FF47E
:10A91000BAAE05F1180805F11C01CDE90147009612
:10A920004046022314220591FFF7E8FD00287FF43A
:10A9300068AFCDE9014705990096404610231522DE
:10A94000FFF7DCFD00283FF49EAE5AE7A96A002914
:10A950003ED04FF000094B464FF0160A2BE02388FB
:10A96000F054238801339BB2238006F803A0238888
:10A9700001339BB2238031F82220F2543344120A6F
:10A980005A702088023080B22080B8F80420304409
:10A990004AB1D8F80810D9B101F03EF8B8F804204F
:10A9A00023881344238095F82C205FFA89F39A4278
:10A9B0007FF6E9AEA96A03EB430201EB820809F1D5
:10A9C0000109B8F80430D81C0233FE2BC7D917E7A9
:10A9D000072008B0BDE8F087012B08D00822FDE66B
:10A9E000BDF818309F42F9D31F460922F6E68F4280
:10A9F000F4D30F460822F1E675DF704776DF704723
:10AA00007ADF70477BDF704770B51B4D2B8884B2AF
:10AA1000A34282B011D1194E297A327B91420ED3D2
:10AA2000337C00222A72DBB9736933B10022ADF89E
:10AA300006408DF8042001A8984702B070BD184662
:10AA400005F10A01FFF7D8FF28B11128F5D0B36945
:10AA5000002BF1D1F1E72B7A01332B7202B070BDDC
:10AA60003B212046FFF7CAFF30F00803DCD0B36972
:10AA7000002BD9D09847D7E7802C0020642C0020E9
:10AA8000F0B50288122A83B003463ED015D8102AAA
:10AA900073D0112A0FD16C4C828823889A420AD134
:10AAA0006068FCF78DFF18B1684B9B6903B198474C
:10AAB0004FF6FF73238003B0F0BD502AFBD1634DE6
:10AAC000C188EA899142F6D1028A022AF3D15E4C0A
:10AAD000828826889642EED1123000F08BF9002849
:10AAE00000F09C80637A002B40F09F80D5E9011331
:10AAF000277A60683246002F18BF1946FCF70AFF14
:10AB00000028D8D0AB693BBBD5E74F4C8288218861
:10AB10009142D0D14089658985421FD8A589854257
:10AB20001CD3E0899D8940F2F313984294BF031A25
:10AB3000C31AAB4212D800F2F310A8420ED3434B13
:10AB40005B694FF480722281002BB4D00122ADF8F2
:10AB500006108DF8042001A89847ACE73B4D267AF3
:10AB60006068D5E90113002E18BF194600236372EF
:10AB7000FCF7D0FE0028C5D19DE7C67B012E9AD1F7
:10AB8000314C21884FF6FF7291423FD1304D82887F
:10AB9000228003CDC4F80A00C4F80E10598A6089D7
:10ABA00000258842257222D8A08988421FD3E189D6
:10ABB000988A40F2F313994294BF4B1ACB1A8342FE
:10ABC00015D801F2F311814211D3204D6672EB8941
:10ABD000002B7FF470AF6B69002B3FF46CAF012149
:10ABE000ADF806208DF8041001A8984763E7174DCB
:10ABF000EB8900216172002B7FF45DAF60686968AA
:10AC0000FCF788FE00283FF456AF7BE70F4B9B69AB
:10AC1000002B3FF450AF042098474CE76068FCF7E6
:10AC2000CFFE00283FF447AF6CE76B690022227229
:10AC3000002B3FF440AF0122ADF806608DF80420F0
:10AC400001A8984737E700BF802C0020642C002023
:10AC5000942C002070B3F8B5054606460FCD164F6C
:10AC60003C460FC4844695E80700144D3D6084E8D7
:10AC70000700BCF1000F17D06046FFF7C1FE90B986
:10AC800033681868596803C50D4B0E490E4A1846BB
:10AC90004FF6FF7440F8041F1C800021FCF728FECB
:10ACA000002818BF0320F8BD2846FFF7ABFE002898
:10ACB000EAD0F8BD0E207047642C0020942C0020B0
:10ACC000802C00209C2C002009AA02002DE9F047CE
:10ACD00003888788112B98B007D01A2B044650D0D0
:10ACE000102B09D018B0BDE8F0873A483946FCF778
:10ACF000EBFE18B0BDE8F087374A9368DB4300935A
:10AD000051686846FCF710FF009B0193019B83B3D9
:10AD100000252E46314601A8FCF7E0FE28B118AB0D
:10AD200003EB4503013523F8286C0136142EF1D1CD
:10AD30000D950DF1340CBCE80F0002AE0FC6BCE857
:10AD40000F000FC69CE8070086E807008DB10DF1E3
:10AD50000A08DFF898A008EB450538F8029F1F4E57
:10AD6000304649460436FCF7AFFEB245F8D1A84557
:10AD7000F3D1132F15D90420FCF7DEFA18B0BDE883
:10AD8000F087037A16481F2B4FEA1314394618D957
:10AD9000FCF790FE022C1348394616D0FCF78AFEC9
:10ADA000A0E70C483946FCF785FE0C483946FCF70D
:10ADB00081FEE37B012B95D00B483946FCF77AFEE8
:10ADC00090E7FCF781FE07483946FCF77DFE18B096
:10ADD000BDE8F087C42C0020BC2C0020C02C002033
:10ADE000CC2C0020D02C0020C82C0020342D00209A
:10ADF000AADF7047007800F001007047F0B58B784B
:10AE000091B0012B0C460988ADF80C1038BF012316
:10AE1000054616466846032200218DF80E3000F0E4
:10AE200009FE637C0022013B8DF80020042B09D829
:10AE3000DFE813F0CF00D300D700DB0005002223AA
:10AE40008DF80030A37C0022013B8DF80120042BFB
:10AE500009D8DFE813F0CE00D200D600DA000500F2
:10AE600022238DF80130E77B237B207C217D9DF818
:10AE7000022043EAC70343EA001322F01902002923
:10AE800003F0190343EA020314BF0222012262F312
:10AE9000420309A81C2200218DF8023000F0CAFDEF
:10AEA000637B13F0300F73D1627BA37B8DF824207A
:10AEB0000021142204A88DF8253000F0BBFDA36802
:10AEC000A288CDF814D003A90491ADF81C201BB1C1
:10AED000E2880893ADF81820A369002B36D001AFA3
:10AEE00003220021384600F0A5FDA2691388ADF8C1
:10AEF0002C305388ADF82E3051680D97137B0A9192
:10AF0000013B00218DF80410042B2DD8DFE803F05D
:10AF100095999D89290022238DF80530977A137A17
:10AF2000D07A917B9DF8062043EAC70343EA0013D9
:10AF300022F01902002903F0190343EA020314BFA7
:10AF40000222012262F342038DF80630E36903B165
:10AF50000C93334604AA09A92846FFF749FF11B00C
:10AF6000F0BD22238DF80430537B0021013B8DF886
:10AF70000510042BD2D801A151F823F02BB0020008
:10AF800033B0020013B002001BB0020017AF020082
:10AF900002AF03223846002100F04CFDE37C002282
:10AFA000013B8DF80920042B07D8DFE803F0525E3F
:10AFB0005A56030022238DF809309DF80A300E9767
:10AFC000012262F3420311228DF80A308DF8082025
:10AFD0006AE711238DF8003034E721238DF8003023
:10AFE00030E731238DF800302CE712238DF8003044
:10AFF00028E711238DF8013035E721238DF8013042
:10B0000031E731238DF801302DE712238DF801301F
:10B0100029E731238DF8053080E712238DF80530BC
:10B020007CE712238DF804309EE711238DF805305C
:10B0300074E721238DF8053070E711238DF8043073
:10B0400092E721238DF804308EE731238DF8043008
:10B050008AE711238DF80930AFE712238DF8093004
:10B06000ABE731238DF80930A7E721238DF80930AC
:10B07000A3E700BF90DF7047A5DF7047B5DF7047DB
:10B0800070B5002384B0002460F30F0360F31F4306
:10B090006A46204602A9CDE902340094ADF8044086
:10B0A000FFF7E8FF054610B9284604B070BD124B03
:10B0B000124EF61AF608FDF7D3FA360446F00106EA
:10B0C00003460F4922463046FBF77EFDBDF80020BF
:10B0D000BDF8023052EA030103D00A493046FBF7BB
:10B0E00073FDBDF80420002ADED030460649FBF788
:10B0F00093FC284604B070BD60C7020098C70200E8
:10B10000F0C102003CC202007CC2020008B90E205D
:10B11000704730B403464FF017121B25002041F64C
:10B120001B3419611A60C3F806201D7158819C8177
:10B1300030BC70478288002A59D110B50388242B6F
:10B1400082B00C4611D80F2B4FD9103B142B4CD882
:10B15000DFE803F060744B4B4B4B4B4B4B4B4B4B73
:10B160004B4B4B4B4B4B4B444E003A2B70D0552B1B
:10B170003BD1C388C988A272172B38BF17238B42D3
:10B1800028BF0B4610462381FFF778FF00287ED1A9
:10B19000E37A53BB236943B32289ADF8042040F618
:10B1A00077210091204669469847A37AA3B1E188A8
:10B1B0000020FFF761FF002862D011280CD0FDF7B6
:10B1C0004FFA4A4B4A4902464A481B1ADB081B04FD
:10B1D00043F00100FBF720FC02B010BD007A0B7BAE
:10B1E000984228BF1846FFF74BFFA37ADEE7704767
:10B1F0000B69027A4A73002BF7D000204DF67A21B2
:10B200008DF8050000918DF8042069462046984786
:10B21000A37ACBE70B790B73C27B012A45D0022AB4
:10B2200033D14988E18022898A4241D3627B9A42A4
:10B23000DBD21846FFF724FFA37AB7E74FF01711C8
:10B24000002241F61B33C4F806106281A381C3E7D4
:10B250004389C98822698B4228BF0B46172B38BF08
:10B26000172323814AB1E17A39B140F67721009161
:10B27000ADF8043069462046904700236381ABE770
:10B280004FF48073638102B010BDC988CBE7FDF72E
:10B29000E7F9164B1849024616481B1ADB081B042F
:10B2A00043F00100FBF7B8FB72E70988E180BAE7D9
:10B2B0000020FFF7E1FE18B90123E372237BB5E715
:10B2C000112803D10123A372237BAFE7FDF7C8F94F
:10B2D000064B0749024607481B1ADB081B0443F0CC
:10B2E0000100FBF799FB237BA0E700BF98C7020092
:10B2F000D4C2020060C7020008C30200B0DF70477A
:10B3000066DF704760B159B10378DE2B0AD00B6855
:10B310004360DE224FF6FF730270438000207047C7
:10B320000E2070470820704738B10378DE2B02D119
:10B33000418000207047082070470E20704700BFF2
:10B3400019B330B5054685B018B10B78DE2B0C4625
:10B3500001D005B030BD80884B889842F9D10B7A76
:10B36000002B32D12B88112B4BD0512B12D0012B1B
:10B37000EFD12B7A012BECD1012525720021FFF7AB
:10B38000BFFF002851D12072E3E77047A888638887
:10B390008342DED1AB79022BDBD1AA7B02F0FD0127
:10B3A000042935D0052AD4D100226946C1E90222F8
:10B3B0004A600092ADF804208DF80030FFF79EFF40
:10B3C0000028C6D063689847C3E70021FFF798FFBD
:10B3D0000346D8B1112818D0636898472B88112BE1
:10B3E0000BD0512BD2D0012BB3D12B7AAA88012BB1
:10B3F000AFD160889042ACD1BEE7AA8863889A42F8
:10B40000A7D14FF6FF736380A3E701232372E5E71B
:10B41000694600224FF4C0754A600092C1E90222D9
:10B420008DF80030ADF80450C8E71128CAD1257254
:10B430008FE700BFA8DF7047AEDF704762DF70475D
:10B440000288502A00D0704710B44A88C4889442B9
:10B4500002D05DF8044B7047028A012AF9D14B698A
:10B46000002BF6D0827C5DF8044B8088184700BF23
:10B47000F0B5324B04460D460FCB2D6865618FB099
:10B4800002AD85E80F00284604F11201FFF7D6FF50
:10B4900008B10FB0F0BDA37C8DF80630224641F212
:10B4A000235301A90120ADF80430FFF7C3FF0028A2
:10B4B000EFD10146202206A800F0BCFA9DF8253005
:10B4C000A17C8DF81A10224623F01203012543F0C7
:10B4D000120341F224574FF0011632F80A0B8DF88F
:10B4E000253006A9ADF8187007968DF829508DF80B
:10B4F0002B50FFF783FC0028CBD10146202206A861
:10B5000000F098FA9DF82530A77C0796224623F094
:10B510000A0343F00A0332F8020B8DF8295006A9FA
:10B5200041F225548DF82A508DF825308DF81A7087
:10B53000ADF81840FFF762FC0FB0F0BD48C3020041
:10B5400070B50D4688B013460446012604A81022A3
:10B5500000218DF80730ADF80E6000F06BFA6B89B2
:10B56000ADF810300DF107020DF10E03204604A9CD
:10B57000CDE906328DF81260FFF75EFF08B070BDAE
:10B5800010DF704770B53C4D2B7884B0002B66D12E
:10B590003A4E3B49012302A83370FDF74BF8039B59
:10B5A00023B90EE0FDF750F8039B53B1D3E9002116
:10B5B00000209047044602A8002CF3D1204604B096
:10B5C00070BD304902A8FDF735F8039B4BB1D3E9B4
:10B5D00000210020904702A8FDF736F8039B002BBE
:10B5E000F5D1294A002312688DF8083002A801928B
:10B5F000FCF722FA254901A8FFF7C2FFB0FA80F351
:10B6000004465B099DF808002B70FCF73BFA002C00
:10B61000D4D11F4B1F491C70347091F81623EC23B2
:10B6200052091341DB071ED51B4B9A6802B31A68F7
:10B6300042F480021A60134902A8FCF7FBFF039B47
:10B64000002BBBD0D3E900210120904702A8FCF7D2
:10B65000FBFF039B002BF5D1204604B070BD0824EE
:10B66000204604B070BD42F20200FBF765FEE2E73F
:10B670004FF480030B60DEE7352D0020342D0020D1
:10B6800064C302007CC3020060C30200597302005D
:10B69000362D002000E100E0382D0020014B187805
:10B6A000704700BF352D002000B583B008496846BB
:10B6B000FCF7C0FF019B43B1D3E9002090476846E7
:10B6C000FCF7C2FF019B002BF6D103B05DF804FB31
:10B6D00070C3020060DF704769DF704761DF704749
:10B6E000144B1B782BB330B5134D91B034240DF1AE
:10B6F000020103A8ADF80240FFF7F0FF88B9294620
:10B7000001A8FCF797FF029B002BF0D0D3E90021A2
:10B7100003A8904701A8FCF797FF029B002BF5D1E7
:10B72000E5E7052801D111B030BDFBF705FE11B0EA
:10B7300030BD7047372D0020CCC50200002900F035
:10B74000A78070B5544B0B6084B00C4605460C22A4
:10B75000002101A800F06EF90126062322688DF869
:10B76000045001A920208DF80660ADF80830FFF7DD
:10B77000B3FF002843D10C22002101A800F05AF9A0
:10B78000012100238DF805102268ADF8063001A9CB
:10B790004020FFF7A1FF00286CD10C22002101A856
:10B7A00000F048F90A2322688DF8043001A901202D
:10B7B000FFF792FF00284FD10C22002101A800F0D2
:10B7C00039F94FF4B0632268019301A9A120FFF772
:10B7D00083FF98BB0C22002101A800F02BF99DF8F3
:10B7E000043022686FF3000301A9A0208DF8043013
:10B7F000FFF772FF034680B9184604B070BDFCF72E
:10B800002FFF264B2649024626481B1ADB081B043D
:10B8100043EA0600FBF700F9ADE7FCF721FF1F4BF9
:10B82000214902461F481B1ADB081B0443F0010094
:10B83000FBF7F2F80023184604B070BDFCF710FFC8
:10B84000164B1A49024617481B1ADB081B0443F023
:10B850000100FBF7E1F8BDE7FCF702FF0F4B1449CD
:10B86000024610481B1ADB081B0443F00100FBF7DB
:10B87000D3F8A1E7FCF7F4FE084B0E49024609484D
:10B880001B1ADB081B0443F00100FBF7C5F884E733
:10B890000E231846704700BFE0220020A8C7020010
:10B8A00088C3020060C70200BCC4020068C4020072
:10B8B0001CC40200D0C3020070B5044682B0066802
:10B8C000FFF708FF2368B342054606D82DBB1B4B84
:10B8D000012228461A7002B070BD194B19481A4946
:10B8E000C01AC008000440F002000190FAF7C4FF3B
:10B8F0000198236815493246FBF766F94FF08053EB
:10B900002268D3F80C31124901989B0203F10053CD
:10B910009A1AFBF781F8002DD9D02846FCF7A0FE33
:10B92000084B0C49024606481B1ADB081B0443F06F
:10B930000100FBF771F8284602B070BD372D0020DA
:10B9400060C70200A8C7020010C5020040C502007F
:10B9500074C50200A0C502004BDF704710B5114C42
:10B9600084B001A8FFF7F8FFA8B9214602A8FCF7A8
:10B9700061FE039B002BF4D0D3E90021019890478E
:10B9800002A8FCF761FE039B002BF5D101A8FFF78D
:10B99000E3FF0028E9D0052801D0FBF7CDFC04B077
:10B9A00010BD00BFE4C5020008B5074B044613B143
:10B9B0000021AFF30080054B1868836A03B19847F4
:10B9C000204600F047F800BF00000000F4C6020067
:10B9D00070B50D4D0D4C641BA4100026A64209D174
:10B9E0000B4D0C4C00F038F8641BA4100026A64246
:10B9F00005D170BD55F8043B98470136EEE755F880
:10BA0000043B98470136F2E77C2300207C2300208A
:10BA10007C230020802300200A44914200F1FF3360
:10BA200000D1704710B511F8014B03F8014F914256
:10BA3000F9D110BD02440346934200D1704703F888
:10BA4000011BF9E7034613F8012B002AFBD1181A52
:10BA500001387047FEE700BFF8B500BFF8BC08BC6E
:10BA60009E467047F8B500BFF8BC08BC9E467047BC
:10BA7000FFFFFFFFFFFFFFFFFFFFFFFFFFFFFFFFD6
:10BA800000000000000000000000D60106010000D8
:10BA9000E16302004D640200DD63020075617274AF
:10BAA0005F6C6F675F6261636B656E6400000000CE
:10BAB0004261636B656E647320666C757368656460
:10BAC0000000000061707000E42800207F0000008A
:10BAD000642900201B5B313B33316D0025734C6FB3
