:020000022000DC
:1060000000000420BD620200E5620200E7620200B7
:10601000E9620200EB620200ED6202000000000093
:10602000000000000000000000000000EF6202001D
:10603000F162020000000000F3620200F56202005B
:10604000F18E0200F762020089980200F7620200F6
:10605000F7620200F7620200E9920200F7620200B2
:10606000F7620200F7620200F7620200F7620200C4
:10607000F7620200F7620200F7620200F7620200B4
:10608000F762020031730200F7620200F762020059
:10609000D1730200F7620200D1CB0200F762020066
:1060A000F7620200F7620200F7620200F762020084
:1060B000F7620200F762020000000000000000002A
:1060C000F7620200F7620200F7620200F762020064
:1060D000F7620200F7620200F7620200F762020054
:1060E000F7620200F7620200F7620200000000009F
:1060F00000000000F762020000000000F7620200EA
:10610000000000000000000000000000000000008F
:10611000000000000000000000000000000000007F
:10612000000000000000000000000000000000006F
:10613000000000000000000000000000000000005F
:10614000000000000000000000000000000000004F
:10615000000000000000000000000000000000003F
:10616000000000000000000000000000000000002F
:10617000000000000000000000000000000000001F
:10618000000000000000000000000000000000000F
:1061900000000000000000000000000000000000FF
:1061A00000000000000000000000000000000000EF
:1061B00000000000000000000000000000000000DF
:1061C00000000000000000000000000000000000CF
:1061D00000000000000000000000000000000000BF
:1061E00000000000000000000000000000000000AF
:1061F000000000000000000000000000000000009F
:1062000010B5054C237833B9044B13B10448AFF3F0
:1062100000800123237010BD502B002000000000DF
:1062200038F1020008B5034B1BB103490348AFF333
:10623000008008BD00000000542B002038F102004F
:10624000A3F5803A704700BF174B002B08BF134BD4
:106250009D46FFF7F5FF00218B460F461348144A71
:10626000121A06F09FFE0E4B002B00D098470D4BE4
:10627000002B00D098470020002104000D000D489D
:10628000002802D00C48AFF3008006F059FE200031
:10629000290004F0EBFD06F03FFE00BF00000800FF
:1062A000000000000000000000000420502B00202F
:1062B000643D002000000000000000000649074A7D
:1062C000074B9B1A03DD043BC858D050FBDC02F09F
:1062D00029FBFFF7B9FF000038F20200982A0020DE
:1062E000502B0020FEE7FEE7FEE7FEE7FEE7FEE7B5
:1062F000FEE7FEE7FEE7FEE7704700BF00B583B0AC
:10630000044B0093044A402300F036F803B05DF8D4
:1063100004FB00BF1D630200702B002002B32DE9B7
:10632000F843114B114E8846144643F001090327E8
:106330000025224608EB0501002004F0C3FE0346B9
:106340001D444FF47A40E41A23B9337833B1C84777
:10635000013F06D001233370002CEAD1BDE8F88359
:1063600070473770BDE8F88390E202006C2B002084
:10637000704700BF04F084BFF0B595B000241D46FF
:106380000E460846174602F08FF93046234608228B
:10639000099505A91A9D08970D950A948DF82C402A
:1063A0000C9402F0E5F99DF814308DF81140DDE908
:1063B000061003F00302012ACDE9020128D0022AC7
:1063C00004D0304602F074F915B0F0BDBDF8165097
:1063D000C3F3C2038DF81030C5F389150827082DC3
:1063E0002C4628BF08243B4622460EA9304602F020
:1063F000BFF92D1B214608AB02AA0EA8274400F0C6
:106400004FFD002DEBD1304602F052F915B0F0BD32
:10641000BDF81470059DC7F38312C3F3C2040EA91F
:106420003046920008238DF81040C7F3831702F01E
:106430009FF9C5F3952508AB3A4628460EA9009367
:1064400002AB00F0B5FC304602F032F915B0F0BDF9
:1064500008B5FFF78FFF0448042100F025FC034B2B
:1064600001225A7108BD00BF20F20200982A0020C4
:1064700038B50C4B0C48002400250022C3E9004528
:10648000FF21C3F81824996083F82024C3F814244A
:1064900002F0BEF8044610B9044802F0DFF92046C5
:1064A00038BD00BF802C0020A4F10200CCE2020025
:1064B00099B10E4B0E495B1ADB0815D030B400229F
:1064C0000C4D02E0013293420BD035F82240844259
:1064D000F8D151F8320030BC7047054951F830000E
:1064E0007047002030BC70471846704720F2020009
:1064F000B8F10200502B0020094B013903EBC0001A
:1065000003290BD8DFE801F00402080604207047D5
:10651000022070474079704700797047002070472B
:10652000B8F102002DE9F047954CD4E900239A42D6
:1065300084B063D00023C4F81834BFF34F8FD4E97C
:10654000013503EA0501CA1C04EB820614F8222077
:10655000500719D52768327802F00302012A43D088
:10656000022A03D17288023303EB921305EA030176
:10657000D4F81804CA1C04EB820628B99F4239D902
:1065800014F822205207E6D404EB81015A1CC96892
:1065900001912A4004EB820201F00301D2680292C9
:1065A000022903F102062DD0012900F09580D4F8CC
:1065B00010543DB12B6828469B689847EB681D68CE
:1065C000002DF7D16F48704B7049C01AC008000405
:1065D00040F0020000F0E0F8D4E90030C01A18BF23
:1065E000012004B0BDE8F08732880233C2F3831281
:1065F0001344BBE7676004B0BDE8F087002004B037
:10660000BDE8F087BDF806306148C3F38919B9F1D8
:10661000500FC84628BF4FF0500868F38F1308F199
:106620000801ADF8063001F0F5FF07460028BED09E
:1066300002F03AF80023082201A9384602F064F873
:1066400025EA06030133B8EB830F4FEA830A7DD9AD
:10665000BAF1000F00F08D8005EA06010331A8EBC6
:106660000A0804EB81010823524638465FFA88F88D
:1066700002F04AF8474942460AF10803384602F058
:1066800043F809F1030906EB9906D4F81834002BF6
:106690006BD1D4F8105465B1EB685A792846394665
:1066A000002A5ED02B681B689847EB681D68002D98
:1066B000F2D1384601F0FCFF00230DF103008DF804
:1066C000033001F0DBFAD4F8183403B966609DF8A2
:1066D000030001F0F9FA7FE7BDF804302C48C3F35A
:1066E0008312062A28BF0622911C62F389138900AF
:1066F000ADF8043001F08EFF074600283FF457AF95
:1067000001F0D2FF0023082201A9384601F0FCFF66
:10671000BDF8043013F4707FB7D04FF00008314655
:1067200029404FEA88030331083304EB8101042236
:10673000384601F0E9FFBDF8043008F10108C3F361
:106740008313434506F10106E9D89EE705EA0601F1
:10675000033104EB810142460823384601F0D4FF9F
:106760008FE71D68002D97D1A3E7384601F0A0FF01
:1067700032E7084942460823384601F0C5FF80E762
:10678000802C0020E0F10200B8F10200B4E2020027
:10679000A4F102008C2C00202DE9F04F644C87B04E
:1067A000002306460DF10B008DF80B30A568019112
:1067B00001F064FAD4E9012327681A440132D21B9C
:1067C000012A00F2858004F21C4804F5836A04F271
:1067D00014491BE0BDF80E30C3F389130333090CD1
:1067E0000BEB930B4846009101F0FAFA0099002850
:1067F0003ED04046C4F804B001F0C6FAD4E9011313
:10680000226819440131891A012962D801214046C0
:1068100001F0BAFA504601F0D3FA484601F0D0FA36
:10682000D4E9013C03EA0C02D11C04EB810014F80A
:1068300021E01EF0040F0EF0040129D104EB8202C6
:10684000591CD268039201EA0C0104EB810102F0A9
:106850000302012AC96803F1020B32D0022AB9D01F
:1068600000214846009101F0BBFA00990028C0D1F0
:106870004046C1E743880BEB93130CEA0302D11C9B
:1068800004EB810014F8211001F004010029D5D097
:1068900090F800E00EF0030EBEF1010F0BD0BEF138
:1068A000020F03F1020B02F1030EE3D004EB8E00A2
:1068B0000029EDD1C2E702880233C2F383121344E8
:1068C000DBE7BDF80C30C3F38313090C9B4489E765
:1068D0003A4613400333023205219DF80B0044F879
:1068E0002310226001F0F0F90021124801F022FA91
:1068F00080F31000F1007B1C2B40019A01F038015D
:106900003D4004EB830341F001010004033540EAFC
:10691000164641EA8221DE6044F8251094F82034BE
:106920001BB1FFF7FFFD0028FBD107B0BDE8F08FDA
:10693000802C00209C3000202DE9F04F684C89B05D
:10694000002307460DF11300CDE902128DF8133034
:10695000A56801F093F9D4E9012326681A440132AD
:10696000921B022A00F2858004F21C4804F5836A17
:1069700004F214491BE0BDF81630C3F38913033346
:10698000090C0BEB930B4846019101F029FA019990
:1069900000283ED04046C4F804B001F0F5F9D4E92F
:1069A0000113226819440131891A022962D8012190
:1069B000404601F0E9F9504601F002FA484601F07C
:1069C000FFF9D4E9013C03EA0C02D11C04EB81007D
:1069D00014F821E01EF0040F0EF0040129D104EB9D
:1069E0008202591CD268059201EA0C0104EB810174
:1069F00002F00302012AC96803F1020B32D0022A15
:106A0000B9D000214846019101F0EAF90199002826
:106A1000C0D14046C1E743880BEB93130CEA030255
:106A2000D11C04EB810014F8211001F004010029AD
:106A3000D5D090F800E00EF0030EBEF1010F0BD0A0
:106A4000BEF1020F03F1020B02F1030EE3D004EBDF
:106A50008E000029EDD1C2E702880233C2F383120F
:106A60001344DBE7BDF81430C3F38313090C9B44D4
:106A700089E7324613400333033245219DF8130062
:106A800044F82310226001F01FF9B31C2B4004EBE3
:106A90008303039A1348DA60002101F04BF980F375
:106AA0001000F900731C2B40029A01F038013540A8
:106AB00004EB830341F041010004033540EA17472A
:106AC00041EA8221DF6044F8251094F820341BB19C
:106AD000FFF728FD0028FBD109B0BDE8F08F00BF0B
:106AE000802C00209C3000202DE9F04F6C4C89B0A8
:106AF000002607460DF11300CDE9011203938DF82E
:106B00001360A56801F0BAF8D4E9012326681A4495
:106B10000132921B032A00F2858004F21C4804F51E
:106B2000836A04F214491BE0BDF81630C3F38913DD
:106B30000333090C0BEB930B4846009101F050F91D
:106B4000009900283ED04046C4F804B001F01CF97A
:106B5000D4E90113226819440131891A032962D842
:106B60000121404601F010F9504601F029F948464C
:106B700001F026F9D4E9013C03EA0C02D11C04EB34
:106B8000810014F821E01EF0040F0EF0040129D159
:106B900004EB8202591CD268059201EA0C0104EB55
:106BA000810102F00302012AC96803F1020B32D00D
:106BB000022AB9D000214846009101F011F900994C
:106BC0000028C0D14046C1E743880BEB93130CEA81
:106BD0000302D11C04EB810014F8211001F0040120
:106BE0000029D5D090F800E00EF0030EBEF1010FA1
:106BF0000BD0BEF1020F03F1020B02F1030EE3D042
:106C000004EB8E000029EDD1C2E702880233C2F303
:106C100083121344DBE7BDF81430C3F38313090C6C
:106C20009B4489E7324613400333043285219DF8A3
:106C3000130044F82310226001F046F8B21C2A40E9
:106C4000F31C2B4004EB820204EB830C029BD36009
:106C50000021039B1348CCF80C3001F06BF880F353
:106C60001000F900731C2B40019A01F038013540E7
:106C700004EB830341F081010004033540EA174728
:106C800041EA8221DF6044F8251094F820341BB1DA
:106C9000FFF748FC0028FBD109B0BDE8F08F00BF2A
:106CA000802C00209C30002030B4154DD5F81014F5
:106CB0000446002071B10B4601E01B6853B1DB684C
:106CC0001A798242F9D101300A28F3D14FF0FF300E
:106CD00030BC7047E3681871D5F810344BB1DA68EE
:106CE000E36812681A60D5F81034DB681C6030BCA9
:106CF0007047C5F81044E268136030BC704700BFAD
:106D0000802C002038B5094BD3F81044012583F8B6
:106D100020544CB1E3685D71236820465B68984756
:106D2000E3681C68002CF5D138BD00BF802C002022
:106D300030B5C38885B004460D461BBB217A0529B2
:106D40001ED0627A82B9134AA08852F82120039299
:106D50000021FFF7ADFB039A0F490346284605B013
:106D6000BDE8304001F0B8B8A088FFF7C5FB0B4B79
:106D70000B4953F82020284601F0AEF8217AE2E7CB
:106D800005B030BD074A00920749084A284601F07D
:106D9000A3F8D3E7A0E3020004E302007CE30200CF
:106DA00000E30200F8E20200E0E20200D8E20200A2
:106DB0002DE9F04385B04FF0000C0C9C814694F80F
:106DC0000C8084F80CC00E461746184621461D4616
:106DD000FFF7AEFF062F09D8DFE807F0042E343B9B
:106DE000444F1F004946204601F076F82B7A052BC8
:106DF00005D06B7A5BB92749204601F06DF8204633
:106E000001F05EF884F80C8005B0BDE8F083224AFA
:106E10002249204601F060F8EDE7D6E90413F26854
:106E20000393B3680291CDE900324946D6E90023C5
:106E3000204601F051F8D9E732684946204601F072
:106E40004BF8D3E7D6E900234946204601F044F841
:106E5000CCE7B3680093D6E900234946204601F009
:106E60003BF8C3E7D6E9023201920093D6E900234A
:106E70004946204601F030F8B8E7D6E90321B36867
:106E80000291CDE900324946D6E90023204601F0BF
:106E900023F8ABE718EB0200F8E2020000E302007F
:106EA000082900D970472DE9F04F9B4683B0002494
:106EB0001B7B8BF80C400D46064659461046904603
:106EC0000193DFF8D0902C4FFFF732FF05E0325DE1
:106ED000013401F001F8082C09D0A5423946584682
:106EE000F5D84946013400F0F7FF082CF5D12349C5
:106EF000DFF8A490224C234F584600F0EDFF4FF0EE
:106F0000000A0DE0D15D11F0970F08BF2E22214637
:106F100058460AF1010A00F0DFFFBAF1080F10D05D
:106F2000554505D916F80A207E2AEBD92E22EEE720
:106F3000494658460AF1010A00F0CEFFBAF1080F9F
:106F4000EED198F80830052B02D098F8093063B9D3
:106F50000D49584600F0C0FF584600F0B1FF019BB4
:106F60008BF80C3003B0BDE8F08F084A084958464A
:106F700000F0B2FFECE700BF10E302001CE30200E8
:106F800020E302009DEF020018EB0200F8E202008D
:106F900000E3020018E302000CE302002DE9F04FC9
:106FA0003D4B93F800E087B0BEF1000F5FD00027A3
:106FB000DFF8F08002973C46012506E0029B013392
:106FC00002939DF80840A64551D9344BD8F80010DB
:106FD0001E68D8F8042016F83400A0F1200BC0F188
:106FE000200305FA0BFB25FA03F34BEA030305FA2A
:106FF00000FC01EA0C0902EA030A06EBC40759EA9D
:107000000A0B0397DAD021EA0C0122EA0303C8E94C
:10701000001302F059F916F83430214AC3F1200C5C
:10702000D2E90067A3F1200E614600FA0EF405FADA
:107030000EF225FA01F105FA03FE20FA0CFC0A43D0
:107040000EEA060144EA0C0404913A4000FA03F106
:10705000009101940592DDE90412DDE900BC62456E
:1070600008BF594506D00C4B93F800E0A6E707B0DF
:10707000BDE8F08F03994A68002AF4D04978A1F15D
:107080000101B1FA81F14909091AB1FA81F14909FD
:1070900018469047E7E700BF3C31002078310020D8
:1070A00068310020703100202DE9F84380462248E5
:1070B00000F03AFCE0B9214D4FF0010CD5E9002376
:1070C000A8F12004C8F120012CFA01F10CFA04F413
:1070D0000C430CFA08F902EA090603EA040756EA27
:1070E000070107D022EA090223EA0404C5E90024C3
:1070F000BDE8F883404602F0E7F8114B1E68A8B9D6
:10710000586826EA090620EA0400D5E900211E6035
:107110000C4E586042EA09020C432A6031686C60E8
:107120000548BDE8F843002200F0A8BB586849EACA
:1071300006062043E9E700BF4431002070310020FB
:107140006831002040310020042A3BD92DE9F0416C
:1071500082B0144605460E4601F04EFF68B31E4944
:107160001E4A1F4B0D601F481F491C6016700023EC
:107170000022741EC0E90023C1E90023E4B21EB35B
:10718000DFF8708005EBC4040027032602E0AC4260
:107190001AD01C46A37820788DF80530424601A904
:1071A0008DF806708DF8046001F030FFA4F108033B
:1071B0000028ECD002B0BDE8F08101F0CFFE00283D
:1071C000CDD0F7E707207047084A0948002100F0B2
:1071D00043FB02B0BDE8F081783100203C31002053
:1071E0004031002068310020703100209D6F020086
:1071F000B4E30200A970020070B5084D2B785BB1B2
:10720000074E00243368012113F8340001F0F0FF29
:107210002B780134A342F5D8002070BD3C3100200A
:107220007831002000B585B00346002101AA44F260
:107230000100CDE90111039300F004F805B05DF8F9
:1072400004FB00BF10B572B6FFF75CFDFFF76AF9EB
:107250000028FBD1104B114C1149E41AE408240416
:1072600044F00100FFF798FA0E4B1B68DB0700D5CE
:1072700000BE0D4944F00200FFF78EFABFF34F8FB6
:107280000A490B4BCA6802F4E0621343CB60BFF3B8
:107290004F8F00BFFDE700BFB8F10200E0F1020030
:1072A000B8E30200F0ED00E0C4E3020000ED00E00E
:1072B0000400FA0559B142B1531E1A4005D182604B
:1072C00001608380C26010467047092070470E201D
:1072D000704700BF10B48468C26803468088121BE0
:1072E000904203D204205DF8044B7047DA681C68B2
:1072F00002400020A154DA680132DA605DF8044BE4
:10730000704700BF03468068DA6890420DD010B421
:1073100098689A881C6802400020A25C0A709A68EB
:1073200001329A605DF8044B70470520704700BF3A
:10733000F8B52049204B0024C1F84041C1F8444130
:10734000C1F84841C1F84C41C1F80041C1F80441BD
:107350001B6833B31948D1F8045501681A686D1ACF
:1073600025F07F45AA4227460DD8197CDE69AD1A63
:10737000144419B1D3E905201F7490471EB1334658
:107380001A68AA42F1D90E490E4A0B7812789A422D
:1073900008D00D490D4A41F823404FF48013C2F83C
:1073A0000031F8BD531CDBB2022B08BF00230B7069
:1073B000EFE700BF001001409C320020983200200F
:1073C00095320020943200208C32002000E100E051
:1073D0002DE9F04FB34AB44913780978994285B042
:1073E00000F088810133DBB2022B08BF0023AF48D5
:1073F0001370AF4A0568DFF8D08252F82310D8F82E
:1074000000606B1823F07F430360002E00F0C18101
:1074100000200746044684463346AE4613E0D8684B
:10742000DD69C3F800C0891A144438B10EEB0402B8
:1074300022F07F42C3E90120DF611F460120002DB9
:1074400000F05F812B461A688A42E8D9002800F0D4
:107450008B81C8F800309946521A1A6001230093B4
:10746000944B954EDFF864A243F0010301934D461F
:107470004FF0000B002F31D0D7E901303C46FF69B7
:107480008A4ADFF84CC21268991A21F07F4161459F
:1074900000F2DD800B18236000220121C4E90122E3
:1074A000E2612174002D00F0F3802A689A4280F096
:1074B000E880294605E0D1F800E09E4580F0CF80C5
:1074C00072460846C9699C469B1A0029F3D123607D
:1074D000E161C4612C462546002FCDD17078337808
:1074E000984247D09C460CEB4C0CB27806EBCC0C87
:1074F000591CCBB29A429CF80420337004BF00237D
:107500003370022ADCF8084024D0032A18D0012A5C
:10751000E6D1227C002AE3D1DCF80C306360DCF891
:107520001000A060DCF81410E1609AF800E0DCF8CC
:107530001810A161BEF1000FA2D0626013469FE750
:10754000002DCDD000232B74ED69002DFBD1C8F8A0
:107550000050C3E755B1AC4200F0BC802A4601E0C0
:10756000944239D01146D269002AF9D100222274FE
:107570009842B7D1BBF1000F01D1A94541D0002DF0
:1075800044D04A4A4D4B1468D3F804654C4FD5F8A3
:1075900000803A78351B25F07F450335002A00F03E
:1075A000B580464AA8452CBF4444641924F07F4462
:1075B000C2F84045D2F804359B1BA41B23F07F433F
:1075C00024F07F440333A34200F2B98000238AF8F9
:1075D000003005B0BDE8F08F8C427DD0E0692268B4
:1075E000C861002858D0AC46036813440360AC451A
:1075F00052D0002233787078227465464FF0010B28
:10760000B6E7009B002BE1D0002DBAD12B4E2D4ABE
:10761000284C4FF400314FF480330127C2F880101A
:107620003C43C6F848334FF43C60C6F808337760F3
:10763000A0471E4BB7604FF43C601D60A047204B35
:107640001D7000238AF8003005B0BDE8F08FD31A12
:1076500023F07F4383420BD2C31A23601CE772449A
:10766000A2EB0C020A602360E161C4612C4632E7A0
:1076700000230122C4E90033A360E36122743DB119
:107680002A68C8F80040D31A2B60E561254623E735
:10769000C8F8004025461FE700223378707822742E
:1076A00066E700BF94320020953200209832002017
:1076B0008C320020E0E302007C3100200010014009
:1076C0008932002000E100E09C3200208832002056
:1076D000FEFF7F0029462A46D5F81CC0C8F800C026
:1076E000BCF1000F42D0D0691268C86100287FF455
:1076F0007BAF7CE7DFF8B4800027D8F800900097D4
:10770000AEE6A946C8F800500090A9E62349244AED
:107710004FF48030C3F844034FF00109C3F8040369
:107720004FF40030C1F8800142F001020860C3F854
:1077300000904FF43C60904787F8009031E7184B79
:10774000D2F80415C2F8401543F001034FF43C6031
:107750009847124B4FF40032C3F8002100238AF8F7
:10776000003005B0BDE8F08FB14675E6CDE90221E5
:107770000C4A0D4801239360C0F800C08AF800301D
:107780004FF43C60019B9847DDE90221D8F800C026
:10779000A9E70123B1463746009361E600E100E026
:1077A000E0E3020000100140983200209C320020EB
:1077B0002DE9F8431F4D204E204FDFF898804FF4FD
:1077C00080334FF400324FF001090024C6F88020C6
:1077D00047EA0907C5F848334FF43C60C5F8083359
:1077E000C5F80490B847C5F808904FF43C60C8F855
:1077F0000040B847124A134B13491C601470134BD6
:10780000134A0C700B2114701C8099704FF4801275
:10781000C023C6F8802186F814333260C5F80845C5
:1078200086F81133D5F80435C8F800302046BDE895
:10783000F88300BF0010014000E100E0E0E3020037
:10784000893200209C320020943200207C310020BC
:107850009532002098320020074B9B783BB142B113
:1078600038B10368187C10B959745A617047082000
:1078700070470720704700BF7C3100202DE9F0439E
:10788000264EB37883B0002B3AD00446002837D078
:1078900004290D4638D9436993B3437C0027012B53
:1078A0000DF107000CBF8846B84691468DF8077069
:1078B00000F0E4F97378B0783278591CC9B2884284
:1078C00008BF39468A4223D003EB430306EBC303C8
:1078D0000120134A18719C60D2F804259DF8070016
:1078E0007170C3E90325C3E9058900F0EDF90D4B7B
:1078F0004FF480123846C3F8002103B0BDE8F0838E
:10790000082003B0BDE8F083072003B0BDE8F08392
:107910009DF8070000F0D8F90420EEE77C31002044
:107920000010014000E100E070B51B4EB37882B05A
:107930004BB3044638B343692BB3002505740DF1EE
:1079400007008DF8075000F099F97378B078317816
:107950005A1CD2B2904208BF2A46914216D003EB7D
:10796000430306EBC30302219DF807009C601971D5
:10797000727000F0A9F9094B4FF480122846C3F841
:10798000002102B070BD082002B070BD9DF8070054
:1079900000F09AF90420F4E77C31002000E100E0D7
:1079A00030B50478012C83B004D0022C2DD0F4B172
:1079B00003B030BD4368374D19782846FFF78AFC7D
:1079C000002837D1AA68EB689A4205D0324B8DF86F
:1079D00000001B6868469847A968EB68AA885B1A8C
:1079E0009A4240D22D4B01221A7003B030BD2C496F
:1079F0002C48FFF787FC58B3274B03221B688DF8F0
:107A000000206846984703B030BD274B274D1A78B1
:107A1000C168AA5C01918DF800409AB9244903F12C
:107A20000C00012202F0A6F91B4B68461B68984720
:107A300003B030BD184B01901B688DF800406846BC
:107A40009847C9E71A49181D012202F037FCEBE7F5
:107A50001548164A0378D35CB3B1114901220430AA
:107A600002F0CAFBA4E71048104A0378D35C2BB19C
:107A70000F490122043002F021FC99E70C49012250
:107A80000C3002F077F993E7054901220C3002F03F
:107A9000FDF88DE7A4320020A0320020B43200208F
:107AA000CC320020B8320020A02A0020D83C002090
:107AB000C83200202DE9F041334D8AB02A600029F8
:107AC00056D08A8880460D46304809681C46FFF724
:107AD000F1FB10B10AB0BDE8F081AA89A9682C4871
:107AE000FFF7E8FB0028F5D12A4E98F810C02A4F7E
:107AF0000FCE02AD0FC596E80F0098F81160BCF1EB
:107B0000000C85E80F0018BF4FF0010CD8F80430C6
:107B10000193002ED8F81430D8F808508DF824407E
:107B200014BF0E220022D8F80C40D8F800608DF85F
:107B30001D200893194A019B8DF81CC002A93846E4
:107B4000CDE904450396029301F064F90028C1D100
:107B5000D8F80030124A01331070BBD0114A3B787C
:107B6000D35C4BB11049381D012202F0A7FBB1E7ED
:107B700007200AB0BDE8F0810B4907F10C00012293
:107B800002F0F8F8A6E700BFA0320020A4320020DF
:107B9000B8320020E8E30200A02A0020A179020008
:107BA000B4320020D83C0020C832002070B5114DFE
:107BB000014611482E78FFF7A5FB04460EB9204672
:107BC00070BD0E480E4A0378D35C00222A7053B170
:107BD0000C490430012202F071FB0028EFD0FFF7BE
:107BE00021FB204670BD074901220C3002F0C2F88B
:107BF000F3E700BFB4320020A4320020A02A002006
:107C0000D83C0020C832002070B501461548FFF767
:107C100061FB044608B1204670BD134D134E2B780E
:107C2000F35CA3B1281D02F03BFB0028F3D11049FF
:107C30000C48FFF767FB0028EDD12B780C49F35C6B
:107C400001224BB1BDE870400A4802F0D5BA05F1F7
:107C50000C0002F083F8E8E7BDE87040064802F047
:107C600015B800BFB8320020A02A0020D83C002060
:107C7000CC320020A42A0020AC2A002070B4EFF3FC
:107C8000108472B60D4B9A68AAB90D490D4E0125A4
:107C90009D60D1F8805035401D60C1F88060D1F8FA
:107CA00084505D604FF0FF33C1F88430027004B936
:107CB00062B670BC704701230370F8E7CC3C00202B
:107CC00000E100E0FC06FFBD094B9A687AB170B98B
:107CD00010B4EFF3108172B6064A1C6814605C6839
:107CE0005460986001B962B65DF8044B7047704704
:107CF000CC3C002000E100E04A09012301F01F0113
:107D000000EB820003FA01F100F022B801F01F023B
:107D100001234909934000EB8100D94300F026B8C4
:107D20004B0901F01F0150F82300C84000F001008A
:107D3000704700BF10B4034653E8000F0A4643E8FB
:107D4000002494F0000FF7D15DF8044B704700BF9A
:107D500010B4034653E8002F42EA010043E8000450
:107D600094F0000FF6D15DF8044B704710B4034651
:107D700053E8002F02EA010043E8000494F0000FEA
:107D8000F6D15DF8044B704710B4034653E8002F5A
:107D900002EB010043E8000494F0000FF6D15DF817
:107DA000044B704710B4034653E8002FA2EB0100C8
:107DB00043E8000494F0000FF6D15DF8044B7047DF
:107DC00010B40346012253E8001F41EA020043E8D1
:107DD000000494F0000FF6D15DF8044B704700BF2B
:107DE00010B40346002253E8000F00EA020143E802
:107DF000001494F0000FF6D15DF8044B704700BFFB
:107E0000B8B130B4D0E90112521A0468D2B2531E8C
:107E10002160DBB242B101680A685C1E551C0D602E
:107E20001370E3B2FF2BF6D103680020187130BC49
:107E300070470E20704700BFF0B583B004460025A0
:107E40000DF107008DF80750FFF718FFD4E9003156
:107E50001A688A4210D9511E19602168A3680F68F8
:107E600012F8015C0A79268AE068DB1BDBB29A42D1
:107E700006FB050538BF0B719DF80700FFF724FFCF
:107E8000284603B0F0BD00BF30B5054683B00023DF
:107E90000DF107000C468DF80730FFF7EFFE2A685A
:107EA0001368591C1160E9682A8A641AB4FBF2F459
:107EB0001C709DF80700FFF707FF03B030BD00BF3F
:107EC000826842B110B50446436901680069984769
:107ED0000023A36010BD70470EB400B582B00399B3
:107EE00021B104AB01AA019300F0ACF802B05DF837
:107EF00004EB03B0704700BF2DE9F04F164683B086
:107F0000B142DDE90C920F4605469A46C0F09580D5
:107F10000B464FF00108B3FBF6F39E4208F101084F
:107F2000F9D9D04538BFD04612F00103019302D1F0
:107F3000B9F1000F5ED1AA68012403E00AF1FF3A0B
:107F400006FB04F4BAF1010FF8D8B7FBF4F39E4234
:107F5000F6D9DFF8ECA007E0B442B4FBF6F31AD38D
:107F6000AA681C46B7FBF3F31AF803B0BBF10A0F7B
:107F700004FB137728D02B68511CA96003F802B0CA
:107F8000D5E901329A42E7D32846FFF799FFB4FBBF
:107F9000F6F3B442E4D2019B9BB1B9F1000F10D0CB
:107FA0002024C84509F1FF390BD2AB682A68591C57
:107FB000A960D454D5E901329A4214D2B9F1000F24
:107FC000EFD103B0BDE8F08F511C2B68A9604FF0D2
:107FD0000D019954D5E901329A42CCD32846FFF7D6
:107FE0006FFFAA68C7E72846FFF76AFFB9F1000FDD
:107FF000D7D1E6E793071AD42024AA68C84502F12E
:10800000010199D22B68A9609C54D5E901329A42AA
:1080100009F1FF3903D2B9F1000FEFD18CE72846FF
:10802000FFF74EFFAA68B9F1000FE7D184E7BAF174
:10803000000F0CBF30242024DFE74FF0010870E769
:1080400008E40200002900F054822DE9F04FDFF827
:10805000B8950C7885B0064690460D464FF00D0A4F
:1080600010E00A2CB36800F0AD803268591CB16092
:10807000D454D6E901329A4280F0A0802C78002CAA
:1080800000F087800135002C00F08380252CE8D19A
:10809000294600270D4611F8012B2D2A00F0888073
:1080A000302A00F088802B2A7AD02A2A00F0998082
:1080B000A2F13003092B4FF000040BD804EB840429
:1080C00002EB440415F8012FA2F13003092BA4F1AF
:1080D0003004F3D92E2A00F09080002301E015F837
:1080E000012F02F0FB016829F9D0252A00F07781E1
:1080F000583AD1B2202947D8202A45D8DFE812F0D3
:10810000350144004400440044004400440044005D
:10811000440044004400430113014400440044006F
:10812000440013014400440044004400440044005F
:10813000D20044004400A2004400940044004400E3
:10814000350101209842024638BF1A460292002C9F
:1081500040F05081B80740F16E81002B40F04E8214
:108160001C46BBF1000FC0F20A827A0700F11A82A6
:1081700007F00302022A00F0EA81CDE900475946E0
:108180000A223046FFF7B8FE01352C78002C7FF428
:1081900079AF337B002B40F01C8105B0BDE8F08F38
:1081A0000D4611F8012B2D2A47F004077FF478AF14
:1081B00047F001076EE747F002076BE73046FFF72D
:1081C0007FFE5BE73268591CB16002F803A0D6E974
:1081D00001239342FFF449AF3046FFF771FEB368C5
:1081E00043E7D8F800301A1DC8F800206A781C68E8
:1081F0002E2A05F101057FF470AF6A78A2F13003F1
:10820000092B05F101054FF000033FF66AAF03EBC0
:10821000830302EB430315F8012FA2F13001092972
:10822000A3F13003F3D95CE7D8F80020111DC8F89A
:10823000001011683046CDE900470A22FFF75CFEC6
:108240000135A2E7D8F800301A1DC8F8002017F051
:108250000107D3F800B040F0F080BBF1000F03D06D
:10826000584604F0C7FE0746BC4240F24381002C4A
:1082700000F04081202205E0BC4200F03B81002C50
:1082800000F03881B1683368481CB0605A54D6E9B0
:108290000130984204F1FF34EED33046FFF710FE70
:1082A0002022E9E7D8F80020131DC8F80030B36891
:1082B00031681768581C3022B060CA54D6E90123CF
:1082C000934280F0EF803268581C7821B060D1541E
:1082D000D6E901329A4280F0E0800F2F03D93B4665
:1082E0001B090F2BFCD84FF0805406E00F2C4FEAEF
:1082F00014137FF649AFB2681C46B7FBF4F319F8C4
:1083000003B0BBF10A0F04FB137754D03368511C40
:10831000B16003F802B0D6E901329A42E6D33046A2
:10832000FFF7CEFDE2E7D8F80020111DC8F80010D5
:10833000D2F800B08BEAEB72A2EBEB72092A7FF75E
:1083400000AFDFF8C8C2012011466329ACFB02E28E
:1083500000F101004FEAD202F6DC9842024638BF33
:108360001A460292002C45D1F4E6D8F80020111DDF
:10837000C8F8001011683046CDE900471022FFF719
:10838000BBFD013501E7D8F800301A1DC8F8002000
:108390001C78B3680A2C00F011813268591CB16056
:1083A000D454D6E901329A42FFF4EEAE3046FFF7DC
:1083B00087FD0135E9E63368511CB16003F802A07E
:1083C000D6E901329A42A1D33046FFF779FDB2686F
:1083D0009CE7304605B0BDE8F04FFFF771BDB368CC
:1083E0003168581CB060CA54D6E901329A42DDD2D5
:1083F0000135CAE6BBF1000F59DB7A0757D4B8073D
:1084000002D5002B3FF4ADAEF9073FF5AAAE94B10B
:1084100020220299A142BFF4A4AEB168481CB0600A
:1084200030684254D6E90101814204F1FF3480F002
:10843000D480002CEDD1002493E69BF80030002B73
:1084400000F0E080B0685F46CBF101020A2B02EB3E
:10845000070B3CD0411CB16031680B54D6E90130A8
:10846000984226D217F8013F002BEFD15C457FF6EA
:108470008BAE202702E05C453FF486AEB2683368DD
:10848000511CB1609F54D6E901329A4204F1FF3485
:10849000F1D33046FFF714FDEDE73046FFF710FD4E
:1084A000B2681AE73046FFF70BFDB3680BE7013CF3
:1084B000A5E730460292FFF703FD17F8013F002BB6
:1084C000D4D0029AB0680A2B02EB070BC2D1411C30
:1084D000B160316801F800A0D6E901108842B9D333
:1084E0003046CDE90232FFF7EBFCDDE90232B0683D
:1084F000B0E770479BF80040002C3FF445AE0A2CD3
:10850000B0680ED03368421CB2601C54D6E901300A
:10851000984214D21BF8014F002C3FF435AE0A2CC0
:10852000F0D13368421CB26003F800A0D6E90130F4
:108530009842E7D33046FFF7C3FCB068E2E7304625
:10854000FFF7BEFC1BF8014F002CD8D11CE6002B16
:108550007FF413AE8CB130220299A142BFF40DAE6C
:10856000B168481CB06030684254D6E901018142CC
:1085700004F1FF343BD2002CEED10024FDE5B168BC
:108580004A1CB26032682D205054D6E90121914234
:10859000CBF1000BFFF4ECAD30460393FFF790FCFA
:1085A000039BE5E5B1684A1CB26032682B20505449
:1085B000D6E901219142FFF4DBADEDE73268591CA9
:1085C000B16002F803A0D6E901239342FFF4E5AEBF
:1085D0003046FFF775FCB368DFE630460393FFF7DC
:1085E0006FFC039B2022002C7FF413AF23E730465F
:1085F0000393FFF765FC039B3022BCE7F9073FF5C7
:10860000B0AD18E79B4631E708E40200CDCCCCCCF6
:10861000FFF7F6BB2DE9F041058A0331043D4E1901
:108620008046B6FBF5F6FFF707FCA0B3F6B24FF4B1
:108630008073013E0446C580C0F8008083802BD043
:108640000346002508E06279AE4202F10102627140
:108650003860C0F800801FD040461F46FFF7ECFB93
:10866000013503460028EED16779791E17D02246DE
:10867000013399421268FBD1D2F800805FB12668BD
:10868000002501E034463668214601354046FFF7B3
:10869000FBFBAF42F6D800242046BDE8F0812068FD
:1086A0002146FFF7F1FBF6E704300121FFF76CBB31
:1086B0002DE9F041012104460430FFF773FB10F06F
:1086C000FF0301D0BDE8F0816779791E16D02246FC
:1086D000013399421268FBD1D2F80080002FF1D00B
:1086E0002668002501E034463668214601354046BB
:1086F000FFF7CAFBAF42F6D8BDE8F08120682146FB
:10870000BDE8F041FFF7C0BB2DE9F8430546C68838
:108710004079144606FB00F2043A04EB030C1F1DDB
:10872000624538BFD41ABE428846B7FBF6F106FB55
:10873000117002D801392D68FCD1371AA74228BF21
:1087400027469CB14FF000090430E41B28443A4608
:1087500008EB090104F018FCA642B9442D6837461D
:108760004FF0000028BF2746002CEDD1BDE8F8836C
:108770002DE9F8430546C6884079144606FB00F209
:10878000043A04EB030C1F1D624538BFD41ABE42E5
:108790008846B7FBF6F106FB117002D801392D6847
:1087A000FCD1371AA74228BF27469CB14FF00009D9
:1087B00004302918E41B3A4608EB090004F0E4FBF6
:1087C000A642B9442D6837464FF0000028BF27461F
:1087D000002CEDD1BDE8F88341DF7047064A074B16
:1087E00010B5002414701C60BFF35F8F0449054866
:1087F00000F042F8204610BDD8320020DC320020C4
:1088000024E40200D032002000B583B000230DF133
:1088100007008DF80730FFF731FAF1EE103A23F038
:108820009F03E1EE103ABFF35F8F0B4B4022C3F87A
:1088300084219DF80700FFF747FA04F0C3F928B92F
:1088400020BF40BF20BF03B05DF804FBFFF7C4FFAB
:1088500003B05DF804FB00BF00E100E08268002384
:10886000936082681361826853618268D360826812
:10887000536082681360704701600B6843604A6808
:10888000934204BF00234360704700BF436843B175
:10889000026891680B4443605268934204BF00230E
:1088A00043607047114910B4A1F5947205E052F885
:1088B0003330984238BF21460CD28C1AE30F03EBB9
:1088C000E4035B10914202EBC304F0D808485DF862
:1088D000044B704702D904F10802EEE76068044BCC
:1088E0005DF8044B002808BF1846704758E902009D
:1088F0001CE8020070B5161E07DD0C468D1914F831
:10890000010BFFF781F9A542F9D1304670BD00BFD8
:1089100010B50C462046FFF749F90528FAD001208A
:1089200010BD00BF10B44FF080414FF080520020C6
:10893000C1F80C015E4BC1F81001C1F83805D2F83E
:108940000414C3F82015D2F80814C3F82415D2F87B
:108950000C14C3F82815D2F81014C3F82C15D2F84B
:108960001414C3F83015D2F81814C3F83415D2F81B
:108970001C14C3F84015D2F82014C3F84415D2F8DB
:108980002414C3F84815D2F82814C3F84C15D2F8AB
:108990002C14C3F85015D2F83014C3F85415D2F87B
:1089A0003414C3F86015D2F83814C3F86415D2F83B
:1089B0003C04C3F86805D2F840043E49C3F86C058E
:1089C0000968D2F84424C3F87025082924D04FF050
:1089D0008043D3F80024D20744BF6FF00102C3F8EC
:1089E0000024354AD2F8883043F47003C2F8883046
:1089F000BFF34F8FBFF36F8F4FF01023D3F80022D8
:108A0000002A23DBD3F80432002B1FDB2B4B2C4A2C
:108A10001A605DF8044B70472A4B1B68002BD6D1B7
:108A200029482A4A2A4C04602A492B4BFB20C2F8C9
:108A300018050A681B68294822F00F0203F00F038B
:108A400013434FF400720B600260C0E7244A012315
:108A5000C2F80435D2F80034002BFBD04FF01023BD
:108A600012211F4AC3F80012D2F80034002BFBD0A9
:108A70004FF0102312211A4AC3F80412D2F800341E
:108A8000002BFBD000231649C2F80435D1F800347E
:108A9000002BFBD0BFF34F8F0749124BCA6802F47B
:108AA000E0621343CB60BFF34F8F00BFFDE700BF11
:108AB00000C000403001001000ED00E0B42A0020AA
:108AC0000090D003340100108C56004000F00040AC
:108AD00048810300E40E0040580200104096024016
:108AE00000E001400400FA05074B1B5C1F2B8ABF06
:108AF000064A4FF0A04203F01F03D2F80405D84005
:108B0000C04300F0010070475CE902000003005020
:108B1000064B1A5C1F2A86BF054902F01F024FF060
:108B2000A04101239340C1F80C3570475CE9020075
:108B300000030050064B1A5C1F2A86BF054902F04D
:108B40001F024FF0A04101239340C1F80835704740
:108B50005CE90200000300504FF0A04310B44FF452
:108B600080404FF400544FF400414FF48032C3F87A
:108B70000845C3F80805C3F80815C3F808255DF8CB
:108B8000044B70474FF0A04310B44FF480404FF4B3
:108B900000544FF400414FF48032C3F80C45C3F841
:108BA0000C05C3F80C15C3F80C255DF8044B704791
:108BB0000A4B185C1F288ABF09494FF0A04100F0FA
:108BC0001F00D1F804350122824022EA030013403D
:108BD000C1F80805C1F80C35704700BF5CE9020018
:108BE00000030050074B1B5C1F2B8ABF064A4FF047
:108BF000A04203F01F03D2F81005D840C04300F094
:108C00000100704758E90200000300500B2809D00A
:108C10000C2809D0182809D019280CBF03204FF0C0
:108C2000FF307047002070470120704702207047D6
:108C3000014B185C704700BF58E90200C20730B40E
:108C40000ED483070AD54FF0A0430C22C3F82C277B
:108C5000C3F83027C3F86027C3F8642730BC7047D7
:108C60004FF0A0430322C3F834274FF40055C3F854
:108C700038274FF48044C3F83C274FF40041C3F831
:108C800040274FF48032C3F80855C3F80845C3F8AD
:108C90000815C3F80825D4E710B568B90E4CA368C9
:108CA000012262703BB1D3E900230020A260984703
:108CB000A368002BF7D110BD0128FCD1064C236915
:108CC000A070002BF7D0D3E9002301202261984740
:108CD0002369002BF7D110BDE032002070B910B528
:108CE000074CA368012262703BB1D3E90023002046
:108CF000A2609847A368002BF7D110BD704700BF52
:108D0000E032002030B5012883B004D003281DD004
:108D1000B0B103B030BD224C00230DF107008DF837
:108D20000730FEF7ABFF23784BB3E3689DF80700ED
:108D300001330122E360A270FEF7C6FF03B030BD2D
:108D4000184B0122C3F8802003B030BD144C00F052
:108D5000B1F800230DF107008DF80730FEF78EFF04
:108D6000E368013BE360E5682DB19DF80700FEF77D
:108D7000ABFF03B030BD00F0AFF8A570F5E70A48CF
:108D80006360A3602361E36000F088F803F01AFFDA
:108D900010B101232370C8E700F08CF8F9E700BF99
:108DA000E032002000E100E0998C020030B585B08F
:108DB000047845688DF80040D0E90240064A074B28
:108DC000039053F82130019552F821108DF8084096
:108DD0006846984705B030BDF4320020FC320020D0
:108DE00030B585B0047845688DF80040D0E9024080
:108DF000064A074B039053F82130019552F8211091
:108E00008DF808406846984705B030BDF432002020
:108E1000FC3200202DE9F047DFF8748090F800E084
:108E20004B7F08F80E300D46074616460FCD88B02A
:108E30006C460FC495E80F003D78DFF85890DFF8D6
:108E400058C018F8055049F82E6084E80F004CF817
:108E50002E00CDF810E05DB1002E0B4A694607F1F7
:108E6000040008BF324601F0BFF808B0BDE8F08743
:108E7000002E064A694607F10C0008BF324600F092
:108E800011FE08B0BDE8F087AD8D0200E18D020053
:108E9000D83C0020FC320020F4320020044A137930
:108EA00023B90121106091801846704785207047D2
:108EB00004330020074B1A68D20704D4C0210122D2
:108EC00083F800131A604FF080430122C3F818257D
:108ED000704700BF00E100E0044B01221A604FF030
:108EE0008042D2F81834DB03FBD470470C000040FA
:108EF00010B5174B1A6882B062B10021154A19608B
:108F00001B68507900934FF080410123009CC1F809
:108F1000083398B1104B1A68BAB100221A601B6866
:108F200001934FF0804202210A4B0198C2F80813C6
:108F30001B68012002B0BDE810401847116853714A
:108F40008847054B1A68002AE7D102B010BD00BF60
:108F500000010040043300200401004030B5224CE1
:108F600094F86A5083B0002D3AD14FF0FF304FF0A3
:108F7000FF314FF0FF33C4E90001C4E90C01C4E93B
:108F80000E01C4E91001C4E91201C4E91401C4E9E5
:108F900016010622294604F16400C4E90233C4E93B
:108FA0000433C4E90633C4E90833C4E90A33236649
:108FB00003F0F8FF0D4A0E4B0E491D60C02082F8E9
:108FC0000603402010601B68019301984FF0004396
:108FD0000122284684F86A20C1F8043303B030BD6A
:108FE000082003B030BD00BF1033002000E100E0D6
:108FF0007C61004000600040034B93F86A00003839
:1090000018BF0120704700BF10330020F0B4754B2B
:109010001D1895F93040002C61DA8C78A707C4F34D
:10902000400C53D41C6A013400F0D5805C6A0134D2
:1090300000F0CA800C260A2453F82450013552D07F
:10904000651CB5423FD253F82570013700F0B4805B
:10905000A51CB54237D253F82570013700F0AC801B
:10906000E71CB7422FD253F8275001353AD0271DBD
:10907000B74228D253F82750013533D0671DB74285
:1090800021D253F8275001352CD0A71DB7421AD250
:1090900053F82750013525D0E71DB74213D253F8B6
:1090A000275001351ED004F10807B7420BD253F800
:1090B0002750013516D00934B44204D2DC6A013499
:1090C00008BF0B240FD00420F0BC70471C6801348B
:1090D00074D05C6801346DD008260224ACE7082007
:1090E000F0BC70473C461E1865B243F8242086F851
:1090F0003050BCF1000F02D11C4484F858008A782B
:1091000054071AD4D60744D41F284C7887BF364E4C
:1091100000F01F0202464FF0A04602F5E072A400E4
:1091200046F82240314EC40800F0070C375D01229A
:1091300002FA0CF23A4332558A7812F002021CD03D
:10914000AB0003F1804303F5C0430978D3F8104521
:1091500024F44F3424F44074C3F810450202090487
:10916000D3F8100501F4403102F47C520A43024363
:10917000C3F810250020F0BC7047083D2B44087848
:1091800093F8601041EA801183F860101046F0BC3B
:1091900070471F2887BF144A00F01F0404464FF091
:1091A000A04202EB8402D2F8004724F00204C2F885
:1091B0000047B7E7012496E72C4694E7002485F89A
:1091C00030401A6025469AE7092685F830605A62D1
:1091D0003446354690E7082685F830601A623446F2
:1091E000354689E710330020000300507433002017
:1091F00070B4324C251883B095F93030072B22DD3E
:10920000234493F858309B09032B46D0012B0CBF05
:109210004FF400324FF440321F288ABF284B4FF0E2
:10922000A04300F01F0003EB8000D0F8003723F4C8
:109230004033C0F80037D0F800371A43C0F8002791
:1092400003B070BC7047DAB2072AF9D8980000F171
:10925000804000F5C04003F140029200D0F8106554
:1092600092B202F1804202F5C04246F00106C0F817
:1092700010650020106012680192019A0029DFD069
:1092800095F9302054F82220002AD9D00D49012226
:1092900002FA03F3C1F80433D2E71F288ABF084A51
:1092A0004FF0A04200F01F03D2F8102598BF0346EC
:1092B000DA4002F0010202321204ADE7103300205E
:1092C00000030050006000401F288ABF054B4FF08C
:1092D000A04300F01F00D3F8103523FA00F000F08F
:1092E00001007047000300502DE9F047002388B0CB
:1092F000CDE90233C94A1168012900F04B821E46AC
:10930000C74B1A68012A00F03782C64B1A68012A37
:1093100000F02482C44B1A68012A00F01182C34B6A
:109320001A68012A00F0FE81C14B1A68012A00F078
:10933000EB81C04B1A68012A00F0D881BE4B1A6835
:10934000012A08D0BD4B1A68012A00F02F8216BBF3
:1093500008B0BDE8F087BA4AD2F804231706F1D561
:1093600000221A6019680091196E0098012903F112
:10937000600346F080060ED11A601B6801934FF01F
:10938000A042019BD2F81025AE4B0292D3F81035C3
:10939000039346F00046AC4F00240125A30003F1DF
:1093A00080432E4203F5C0434FEA45050BD0D3F866
:1093B000100557F82420D3F81015C0F30520C1F389
:1093C000014102B190470134082CE7D1002EBFDAE9
:1093D0009D4C9C4F4FF0FF304FF0FF31CDE906011F
:1093E00094F960000DF110080023451CC8F8043002
:1093F00004934FF0010600F0F780C0F3C20908ABF8
:1094000003EB090E00F007031EF8082C06FA03F31D
:1094100012EA03055FFA80FC00F03F0021D0221819
:109420004FEA9C1192F9302054F82220002A00F0D3
:109430003781032900F036811F2800F2EB800546B2
:109440004FF0A04C0CEB850C1EF8185CDCF800E724
:109450001D40CEF3014E40F0D180BEF1030F00F06D
:10946000B78194F96100411C33D0C0F3C20E08AB40
:1094700003EB0E0C00F007031CF8081C06FA03F3BC
:109480001942C2B200F03F0023D004EB0009910959
:1094900099F9309054F82990B9F1000F00F0128139
:1094A000032900F012811F2800F2F68086464FF053
:1094B000A04202EB8E021CF818ECD2F800C71EEA9C
:1094C000030FCCF3014C40F0DA80BCF1030F00F045
:1094D000918194F96200421C33D0C0F3C20E08ABF4
:1094E00003EB0E0C00F007031CF8081C06FA03F34C
:1094F0001942C2B200F03F0023D004EB00099109E9
:1095000099F9309054F82990B9F1000F00F0D0800B
:10951000032900F0D0801F2800F2A58086464FF076
:10952000A04202EB8E021CF818ECD2F800C71EEA2B
:10953000030FCCF3014C40F08980BCF1030F00F025
:109540006D8194F96300431C33D0C0F3C20E08ABA5
:1095500003EB0E0C00F007031CF8081C06FA03F3DB
:109560001942C2B200F03F0023D004EB0009910978
:1095700099F9309054F82990B9F1000F00F0AC80BF
:10958000032900F0AC801F288BBFBE464FF0A04ED1
:1095900002F01F0202460EEB82021CF818ECD2F811
:1095A00000C71EEA030FCCF3014C60D1BCF1030FDE
:1095B0001CD0002D3FF4CCAE4FF0A042029BD2F85D
:1095C0001015D7F810058B4203D1039B83423FF45B
:1095D000BFAEDDE90423CDE9021094F96000451C1B
:1095E000CDE906237FF409AF00253AE7032900F00F
:1095F0002981B9F1000FDCD0C847DAE7BEF1020FCC
:10960000F2D1032900F039810025002A3FF429AF67
:10961000904726E70CF01F05BC4613E700610040A9
:1096200004610040086100400C610040106100408E
:1096300014610040186100401C6100407C610040E2
:10964000006000400003005010330020BCF1020F06
:109650007FF477AF032900F00D81B9F1000F3FF4DB
:1096600070AFC8476DE702F01F0E3A4659E7BCF1EC
:10967000020F9ED10329BCD14FF4403CE4E0BCF181
:10968000020F7FF426AF032900F0F180B9F1000F3B
:109690003FF41FAFC8471CE702F01F0E3A4608E729
:1096A0000329A1D118F809501D4308F80950C3E651
:1096B00003297FF446AF18F80EA04AEA030A08F817
:1096C0000EA028E703297FF404AF18F80EA04AEA99
:1096D000030A08F80EA0E6E603297FF46AAF18F83B
:1096E0000EA04AEA030A08F80EA04CE7644AD2F832
:1096F000042352067FF522AE00221A601B680093F5
:10970000009B46F0400619E65D4AD2F80423910614
:109710007FF50FAE00221A601B680093009B46F095
:10972000200606E6564AD2F80423D0067FF5FCADA3
:1097300000221A601B680093009B46F01006F3E5B8
:109740004F4AD2F8042314077FF5E9AD00221A60CE
:109750001B680093009B46F00806E0E5484AD2F8F3
:10976000042355077FF5D6AD00221A601B680093CD
:10977000009B46F00406CDE5414AD2F80423970742
:109780007FF5C3AD00221A601B680093009B46F072
:109790000206BAE53A49D1F8046316F001063FF42F
:1097A000AFAD136013680093009BA9E500221A6017
:1097B0001B6801934FF0A042019BD2F81025314B5A
:1097C0000292D3F810350393002E3FF401AEE0E58A
:1097D00003297FF41AAF4FF40035DCF8003723F487
:1097E0004033CCF80037DCF800372B43CCF8003797
:1097F00001250AE703297FF449AF4FF4003CD2F872
:10980000003723F44033C2F80037D2F8003701356F
:109810004CEA0303EDB2C2F8003737E703297FF4BF
:109820001CAF4FF4003CD2F8003723F44033C2F8A9
:109830000037D2F8003701354CEA0303EDB2C2F825
:1098400000370AE74FF4003CD2F8003723F44033E6
:10985000C2F80037D2F80037013543EA0C03EDB205
:10986000C2F80037B9F1000F7FF4C6AEA4E64FF49A
:10987000403CC4E74FF4403CD5E74FF44035ACE7FB
:109880000060004000030050014B1B68184700BFF8
:109890007C330020114B98421DD130B583B000239A
:1098A0000DF107008DF807300D46FEF7E7F90C4B78
:1098B0001C794CB99DF807001D6001221A71FEF752
:1098C00003FA204603B030BD9DF80700FEF7FCF90F
:1098D000112003B030BD0020704700BF00200040C1
:1098E0007C33002030B56D4AD2F8043399058BB033
:1098F00068D5D2F82431002B64D00023C2F824317B
:10990000D2F8243103934FF40171654B0398C2F8E8
:10991000081393F8291009B9012151605F49022207
:109920008DF81820D1F88024C1F880249869D9686E
:10993000099200240025CDE90710C3E90645D3E9C3
:10994000001206A89047554AD2F81C31C3B1544BB7
:10995000186A596988426AD293F8280000F0FF0417
:10996000002864D1C2F81C41D2F81C11029102995E
:109970009C68186A196A205C01311962C2F81C05DA
:10998000464AD2F84431DBB10021454BC2F84411BC
:10999000D2F8440193F829100090009809B10121F0
:1099A00011609A6962B1586AD96800229A610122ED
:1099B000CDE907108DF8182006A8D3E900129047CA
:1099C0000BB030BD354AD2F804335B07BBD5D2F8B3
:1099D0000831002BB7D0324B996900293CD00021C7
:1099E000C2F80811D2F8081104910499D868596A8C
:1099F000D2F8182542545A6A996901325A625A6A51
:109A00008A42A0D1DA69002A2FD0DD685C6A186921
:109A10009A6101210022D860DA615A628DF818102B
:109A2000CDE90754D3E9001206A890478BE71B4AFB
:109A30000020C2F81C01D2F81C210192019A0029D1
:109A40009ED09A688DF8180008915861079206A870
:109A5000D3E90012904793E7C2F80811D2F8080141
:109A600005900598D2F81825C9E793F8292012B96E
:109A70000A4A01215160094A4FF40171C2F80813E2
:109A8000596ADA6808910024012007928DF81800BD
:109A9000D3E900129C6106A8904754E700200040DB
:109AA000883300202DE9F041DFF8DC8106792C2392
:109AB00003FB068382B093F82A30002B40F09A8093
:109AC00005460C4600686B491746FFF7E3FE002881
:109AD00040F08C802368591C19D01F2B4FF00102D5
:109AE0008ABF65494FF0A04103F01F0302FA03F358
:109AF000C1F8083523681F2B86BF03F01F035E4A99
:109B00004FF0A04203F5E073032142F8231063688D
:109B10005A1C0BD01F2B86BF03F01F03564A4FF071
:109B2000A04203F5E073002142F823102B68A269DC
:109B3000C3F82425217D637D2A680B43C2F86C3568
:109B4000D4E900122B68C3F81425C3F80C15237D43
:109B5000012B5BD02C2303FB06F308EB03025760B9
:109B6000226948F8032077B32A68237F434C0021F9
:109B7000C2F81C11D2F81C2100922A68009FC2F87A
:109B80004411D2F844112A6801910199C2F80443A2
:109B90002A6842F3073100294FEA12322EDB01F125
:109BA000604101F561415B01DBB281F800332B6854
:109BB000334C43F307325209C3F30433012101FA52
:109BC00003F344F822302C23296803FB068604247F
:109BD00000230122C6E90633C1F8004586F82A2091
:109BE00086F82930736102B0BDE8F081112002B01F
:109BF000BDE8F081082002B0BDE8F081214902F003
:109C00000F025B011144DBB20B76D0E7A368591C4D
:109C10000BD01F2B86BF03F01F0317494FF0A04145
:109C200003F5E073002241F82320E3685A1C1AD0A0
:109C30001F2B8ABF10494FF0A04103F01F030122E0
:109C400002FA03F3C1F80835E3681F2B88BF03F05D
:109C50001F0303F5E0738CBF07494FF0A0410322B7
:109C600041F82320E3682A68A168C2F80835C2F8E1
:109C700010156FE7E5980200000300508000020015
:109C800000E100E0FCEC00E0883300202DE9F04129
:109C9000314E05792C2303FB05630446586984B0D3
:109CA00000284CD11862996083F828005A61226814
:109CB000C2F81C01D2F81C11226802910121029FF6
:109CC00091602268D3F808C0C2F81C01D2F81C11B8
:109CD000019101991F6A196A1CF807700131196214
:109CE000C2F81C755A6812B104B0BDE8F0811A6A56
:109CF0005F692168BA421BD2864602E093F82820A9
:109D00000ABBD1F81C21002AF8D0C1F81CE1D1F817
:109D10001C210392039AD3F820801A6A1CF8088049
:109D200001321A62C1F81C851A6ABA42E9D3216865
:109D3000D1F81C31002BFBD00123CB6004E01120B3
:109D400004B0BDE8F0810F202C2303FB0565002340
:109D50006B6104B0BDE8F081883300200379044AC8
:109D60002C2101FB03235869003818BF01207047DC
:109D700088330020F0B4504F06792C2303FB067380
:109D800086B05D68044625B103684FF40170C3F8DE
:109D900008032C2303FB0673986990B1D869002847
:109DA0007CD11961DA612C2303FB06735A683AB33C
:109DB00023684FF40172C3F80423002006B0F0BCFE
:109DC000704793F829509A61D9605862D861002D84
:109DD000E9D12368C3F82451D3F8242123680192E0
:109DE000019AC3F80851D3F808212368029201228E
:109DF00002991A602C2303FB06735A68002AD7D1F4
:109E00002168C1F84421D1F844210392039A2268C1
:109E1000D2F82411D2F80851D2F8440155B90028DB
:109E200033D10029F4D02C2303FB06760023B36141
:109E30000320C3E70029F6D148BB9969C2F808019D
:109E400081B1D2F8081104910499DD68596AD2F8F9
:109E500018256A545A6A996901325A625A6A9142BB
:109E6000D5D806E0D2F8081105910599D2F8182541
:109E70005B6A2C2303FB0676002296F82930B26138
:109E8000A3B1236801221A6098E70029CBD12C23C3
:109E900003FB06760023B3610F208FE755B12368DB
:109EA0004FF40172C3F80423112087E723680122CD
:109EB0005A6083E7112081E78833002030B5484B92
:109EC000D3F8242189B0002A57D00022C3F82421D6
:109ED000D3F82421029202228DF81020029AD3F89E
:109EE0008014404AC3F880140791D3F83C15D36816
:109EF0000691002400250593C2E9064511685368C0
:109F000004A89847364BD3F844214AB10021354A7A
:109F1000C3F84411D3F84401916901900198D9B96B
:109F20002F4BD3F82021AAB10021C3F82011D3F878
:109F300020012C4A00900098506958B1D3F84C0584
:109F4000936806908DF810105161059304A8D2E92A
:109F50000013984709B030BDD3F83C35D16806935B
:109F600000240025012305918DF81030C2E9064533
:109F7000D2E9001304A89847D2E7D3F810110029BA
:109F8000C0D0C3F81021D3F81011164803910399DB
:109F90008469D3F83C15A142B4D1C469A4B1D3F803
:109FA0000052846125F02005C3F80052D0E9034334
:109FB000C26101220691C3600168436805948DF86F
:109FC000102004A898479DE7C26884610123CDE969
:109FD00005218DF81030D0E9001304A8984791E7C7
:109FE00000200040B83300202DE9F04307797C4E73
:109FF00007EBC70306EB830385B093F82030002BF3
:10A0000040F0AD8004460D46006876499046FFF763
:10A0100041FC002840F09F802B68591C4FEAC7097B
:10A0200019D01F2B4FF001028ABF6F494FF0A0419A
:10A0300003F01F0302FA03F3C1F808352B681F2B46
:10A0400086BF03F01F03684A4FF0A04203F5E07398
:10A05000032142F823106B685A1C0BD01F2B86BFBC
:10A0600003F01F03604A4FF0A04203F5E0730021A4
:10A0700042F823102368AA69C3F82425297D6A7D44
:10A0800023680A43C3F86C25D5E900312268C2F879
:10A090000C35C2F814152B7D012B6CD009EB07028F
:10A0A00006EB8203C3F804802B6946F82230B8F12E
:10A0B000000F3FD021682B7F4C4D0022C1F81021AA
:10A0C000D1F8101100912168DDF800C0C1F82021FD
:10A0D000D1F8201101912168DDF804C0C1F82421D4
:10A0E000D1F8241102912168DDF808C0C1F844219B
:10A0F000D1F84411226803910399C2F804532268ED
:10A1000042F3073100294FEA12322CDB01F16041A2
:10A1100001F561415B01DBB281F800332368344D06
:10A1200043F307325209C3F30433012101FA03F365
:10A1300045F822304F44226806EB870600230124AD
:10A140000821C2F80015C6E9063386F8204073617D
:10A1500005B0BDE8F083112005B0BDE8F08308200C
:10A1600005B0BDE8F083234902F00F025B01114402
:10A17000DBB20B76D2E7AB68591C0BD01F2B86BF26
:10A1800003F01F0318494FF0A04103F5E0730022CC
:10A1900041F82320EB685A1C1AD01F2B8ABF1249A2
:10A1A0004FF0A04103F01F03012202FA03F3C1F8AC
:10A1B0000835EB681F2B88BF03F01F0303F5E0731E
:10A1C0008CBF09494FF0A041032241F82320EB68DE
:10A1D0002268A968C2F80835C2F810155EE700BF0A
:10A1E000B8330020BD9E020000030050100302009F
:10A1F00000E100E0FCEC00E0F0B401F06044B4F1F8
:10A20000005F82B02CD10579244E05EBC50406EB26
:10A21000840403466069EF00002839D16261A160BF
:10A220001A68C2F82001D2F820C11A68CDF804C01B
:10A23000DDF804C0C2F85801D2F8582100921A681B
:10A24000DDF800C0D4F814C0C2F84415C2F848C5FF
:10A250001A6801219160626832B102B0F0BC7047A7
:10A26000102002B0F0BC70471B6800E0A0B9D3F822
:10A270002021D3F85801002AF8D0002818BF0F2059
:10A280007B1906EB830300225A6102B0F0BC7047D1
:10A29000112002B0F0BC70470F20F1E7B833002066
:10A2A0000379054A03EBC30302EB830358690038C3
:10A2B00018BF0120704700BFB833002001F0604391
:10A2C000B3F1005F5ED1F0B40479474D04EBC406EE
:10A2D00005EB860682B07668E30026B107684FF486
:10A2E000047CC7F808C3234405EB83039C694CBB7B
:10A2F0009A61DC61D9600368C3F81041D3F810613A
:10A3000003680196019EC3F84441D3F844410368B1
:10A310000094009CC3F83415C3F838250368012263
:10A320001A60047904EBC40305EB8303E6005B6861
:10A3300053B303684FF40472C3F80423002002B03F
:10A34000F0BC7047DC69002C37D11961DA61036811
:10A35000C3F81041D3F8106103680196019EC3F859
:10A360004441D3F8444103680094009CC3F8341579
:10A37000C3F838250268D2F8003243F02003C2F84F
:10A380000032CEE710207047036801E0E9B910BB46
:10A39000D3F81021D3F84411D3F82401002AF5D0C2
:10A3A000344400284FF0000305EB840518BF032058
:10A3B000994218BF0F20AB61C1E796B103684FF413
:10A3C0000472C3F804231120B9E7344405EB840573
:10A3D0000F20AA61B3E7344405EB84050320A9618B
:10A3E000ADE71120ABE700BFB83300200220FEF735
:10A3F000DFBB00BF2DE9F0470D460646FEF706FC21
:10A40000032805D8012D04461AD0022D27D00DB1FE
:10A41000BDE8F0871B48FDF787FA1B4B1B4A04EB8E
:10A4200044010B44125D9D78AA42F1D1002DEFD07A
:10A43000174B1B68002BEBD02846BDE8F0471847A8
:10A44000114F00EB4003FA18FD5C53784FEA4008C7
:10A450005BB9A04447440D4BBA781A55E6E70A4B5E
:10A4600000EB40041C446578E0E7DFF828900548DD
:10A470004A464FF40041FDF701FA0028E9D189F876
:10A480000060E6E700340020403400205C34002007
:10A4900054340020DC33002010B50078FEF7B6FB02
:10A4A00003280BD8064B00EB40001844407828B135
:10A4B000044B1B6813B1BDE81040184710BD00BF26
:10A4C000403400205434002038B5C04D2B78044669
:10A4D0006BB1BF4B1B7800202870002B4DD0FEF7CE
:10A4E00029FB0120FEF726FB0320FEF723FB172C98
:10A4F00000F26A81DFE814F0F700630063009F0058
:10A50000B200C500D700970050004400500044003E
:10A510007A0018001800180018001800E50024013F
:10A5200081000C015C005C00AA48FDF7FDF9D4F144
:10A530001104054600F03281002840F02F81012CE3
:10A5400014D0C82303FB04F44FF4FA704FF4004313
:10A550000021C3FB04014FF47A72002303F010FDC5
:10A560002A4601469B48FDF789F905460220FEF779
:10A57000CFFA974B01221A701FE0FEF7EDFAB6E70B
:10A5800001202870FEF714FBBDE8384092480022F5
:10A590004FF48041FDF772B901202870FEF708FBE7
:10A5A000BDE838408C48002240F6CD41FDF766B941
:10A5B000FEF7E8FA894B00251C70284638BD0020BC
:10A5C000FEF792FA002840F0CF80FEF7A1FA41F69C
:10A5D0009A1143F23333022C18BF19467F4B7E4841
:10A5E0001C70BDE838400022FDF748B9FEF7CAFAF2
:10A5F0007A4B0C221A700025DFE7754B1B78002B75
:10A6000000F0DF800020FEF795FA0120FEF792FAB5
:10A610000320FEF78FFA0120FEF77AFA6F4B14221F
:10A620001A700025C9E70020FEF772FA6B4B07226B
:10A630001A700025C1E70020FEF756FA002840F006
:10A64000A780FEF765FA41F69A11644B624803242D
:10A650001C70BDE838400022FDF710B90020FEF75D
:10A6600043FA002840F08E80FEF752FA43F233316D
:10A670005A4B594804241C70BDE838400022FDF7AD
:10A68000FDB80020FEF730FA002877D1FEF740FA37
:10A69000524B514805241C70BDE83840002241F659
:10A6A0009A11FDF7EBB80020FEF782FA4B4B4A48AF
:10A6B00006241C70BDE83840002240F6CD41FDF76D
:10A6C000DDB8434B1B78002B78D00020FEF732FA20
:10A6D0000120FEF72FFA0320FEF72CFA3F4B12223F
:10A6E0001A70002569E73A4B1B78002B60D00020D8
:10A6F000FEF720FA0120FEF71DFA0320FEF71AFAF2
:10A700003548FDF711F9354B002205461A7054E71C
:10A710002F4B1B78002B48D00020FEF70BFA0120AE
:10A72000FEF708FA0320FEF705FA0020FEF7F0F91D
:10A730000120FEF7EDF9294B15221A7000253CE7A0
:10A74000234B1B78BBB30020FEF7F4F90120FEF782
:10A75000F1F90320FEF7EEF90020FEF7D9F91F4BBF
:10A7600013221A70002528E70020FEF7E3F9022CD7
:10A770004EF2666118BF4FF400312FE70020FEF75C
:10A78000D9F985E70020FEF7D5F94FF400316FE7DE
:10A790000020FEF7CFF946F2666156E70220FEF789
:10A7A000C9F90B4B00221A7007E7FEF7D5F9BCE791
:10A7B000FEF7D2F9A4E7FEF7CFF9CDE7FEF7CCF923
:10A7C0008CE7FEF7C9F926E70025F6E650340020AD
:10A7D000DD330020E03300202034002058340020F6
:10A7E000044B1B68DB0700D47047034B1878FFF756
:10A7F0006BBE00BF4C34002058340020032801D920
:10A8000000207047FEF7EEB9044B1B6813F00103FC
:10A8100001D118467047FFF757BE00BF4C340020E7
:10A8200038B5244B244A196081070446106004D4CB
:10A8300010F001052CD1284638BD204B20480E25AC
:10A840000F2210211D701125DA7099715D7240F28E
:10A8500066620421FCF778FC054630B1E207EAD5D0
:10A860000120FEF7EBF9284638BDFCF7C5FC05468C
:10A870000028F3D10146134A1348FCF7EDFFE30724
:10A880000546D8D50120FEF7D9F9002DD3D102E035
:10A890000120FEF7D3F90D4A0D480021FCF7DCFF3B
:10A8A00005460028C7D1BDE838400A4A0A480121B8
:10A8B000FCF7D2BF543400204C3400204034002038
:10A8C0008CE9020099A40200B0E90200E1A70200AD
:10A8D000B4E90200EDA30200ACE90200032806D8A7
:10A8E000012A06D001291BD0022908D071B1072006
:10A8F0007047012911D002294FF00002F6D10B4B0D
:10A9000000EB4000034400205A707047074B00EBF7
:10A910004000034408469A70704700F10E02D2B21C
:10A9200000EB400301490020CA5470474034002026
:10A93000032801D90620704708B5FEF779F91F28CA
:10A9400086BF0A4B00F01F004FF0A04303EB8003CB
:10A950000020D3F8002722F44032C3F80027D3F8B0
:10A96000002742F44032C3F8002708BD000300501E
:10A9700010B50388102B07D0112B04D1254B186874
:10A980000138186030B110BD224C216811B301317B
:10A99000216010BD01220221FFF7A0FF40B107286E
:10A9A00006D01D4B1B68002BEDD0BDE810401847AA
:10A9B000072202210120FFF791FF08B10728F0D1FB
:10A9C000002108460A22FFF789FF0028DBD007286C
:10A9D000E7D1D8E701220846FFF780FF38B1072802
:10A9E00005D00D4B1B6803B198472168CFE70722BC
:10A9F00002210120FFF772FF08B10728F1D10422DC
:10AA000002210020FFF76AFF0028EED00728E8D1D6
:10AA1000EBE700BF643400206034002008B500205C
:10AA2000FFF786FF10B1062800D008BD0120FFF710
:10AA30007FFF0028F9D0062808BF002008BD00BF0E
:10AA4000184B10B5186031B101200C46FFF7D6FE47
:10AA5000F8B102232370144B186808B1002010BD10
:10AA600001220221FFF73AFF08B10728F7D1072298
:10AA700002210120FFF732FF08B10728EFD10021A2
:10AA800008460A22FFF72AFF0028E7D00728E5D06A
:10AA900010BDFFF7B3FE10B10B232370DBE720706E
:10AAA000D9E700BF603400206434002076DF7047AF
:10AAB0007ADF70477CDF70477FDF70478FDF70473A
:10AAC000B1DF704733DF704710B50E4B4A881B88E3
:10AAD0009A42044606D0228861880B48BDE810409F
:10AAE00002F068BA0A8840F677239A42F3D18A883E
:10AAF000064B0748033A92B211461A8002F05AFAFE
:10AB0000E9E700BFBE2A0020D8E90200BC2A0020E5
:10AB1000B8E90200FCF786BB10B50388212B82B090
:10AB200004460FD80F2B18D9103B112B15D8DFE88E
:10AB300003F02737144014141414141414141414A8
:10AB40001414141A522B3ED0562B08D1A08813216E
:10AB5000FFF7ACFF08B1FCF765FB02B010BD3B2B63
:10AB6000F4D002B010BD1E4802F024FA0023A088E1
:10AB7000ADF8043001A9FFF7A1FF0028EDD0EAE706
:10AB8000184802F017FA0720FFF73EFE28BB164BC5
:10AB9000A1881648198001F0B1FD0028DDD0DAE760
:10ABA000134802F007FA104B4FF6FF721A8002B0FA
:10ABB00010BD0D4A0023108885211A46FFF77CFF3F
:10ABC0000028CAD0C7E7084A0023108819461A4649
:10ABD000FFF776FF0028C0D0BDE7FCF723FBD6E7E0
:10ABE00030EA020014EA0200BE2A0020D03700201A
:10ABF00020EA020008B5037803B108BD054B3B21EC
:10AC00001888FFF753FF0028F7D0BDE80840FCF78D
:10AC100009BB00BFBE2A0020072808B51CD00A289F
:10AC20000ED0042800D008BD154B13211888FFF75B
:10AC30003DFF30F00803F6D0BDE80840FCF7F2BA5B
:10AC40000020FFF7E1FDB8B9FFF7E8FE88B9FFF78C
:10AC500039FF0028F0D108BD094B1A884FF6FF7361
:10AC60009A42E0D1074801F037F830F00803E3D109
:10AC700008BDFCF7D7FAEAE7FCF7D4FAE4E700BF2F
:10AC8000BE2A0020603500202DE9F04F0378012B0B
:10AC900083B005D0022B03D043B103B0BDE8F08FE1
:10ACA0004068FCF7BFFA03B0BDE8F08F2E4F2F4C81
:10ACB00038782044FCF77AFF3B780133DBB21C4440
:10ACC0003B7014F8012C0A2A05D00D2A03D0284A1B
:10ACD00012889A42E1D8012B04D800233B7003B0BC
:10ACE000BDE8F08F2348DFF894A0DFF88090DFF80C
:10ACF0009080DFF884B002F05DF93A78ADF8062074
:10AD0000BAF800300DF106024946404601F096FEC1
:10AD10000828064604D0132816D0052800D0D8B934
:10AD2000BDF80630DBB1114D002415F8010BFCF71E
:10AD30006BFFBDF8063001349C42F6DB584602F04A
:10AD400039F9132ED9D0C8E7BDF80630002BEAD167
:10AD5000584602F02FF9D0E7FCF764FAE0E706481E
:10AD600002F028F9B9E700BF5C3500206834002004
:10AD7000BC2A002048EA020018EB0200BE2A00208C
:10AD8000C02A0020F8B5057805B1F8BD064616487A
:10AD900002F010F9B38A23B3144F3369585DFCF7FE
:10ADA00033FF044698B9B38A0135AB42F5D8013B6D
:10ADB0003269D35C0D2BE8D10A20FCF725FF11285E
:10ADC000E3D10A20FCF720FF1128F5D0DDE7112C94
:10ADD00001463846E1D002F0EDF82046FCF722FAB1
:10ADE000E1E74FF0FF33E3E76CEA0200A0EA02007C
:10ADF000FCF718BA08B530B1032803D10220FFF7D9
:10AE000003FD50B908BDFFF7FFFC50B9FFF706FE80
:10AE100068B9FFF757FE0028F4D0BDE80840FCF7FA
:10AE200001BAFCF7FFF9FFF7F9FD0028F1D0FCF7B4
:10AE3000F9F9EEE708B50B490B4801F041FB28B9D9
:10AE40000948F72101F054FB40B908BDFCF7EAF9C5
:10AE50000548F72101F04CFB0028F6D0BDE808407A
:10AE6000FCF7E0B9C9AA0200B837002000B5834D4D
:10AE7000834BB1B004AC00930FCD0FC495E8030031
:10AE80004FF4807384E8030001937E4C03937E4A61
:10AE90000294694604A80723FCF70CFE002840F042
:10AEA000BC804FF400410020FBF7E2FA002840F09C
:10AEB000E180FBF7CDFAFCF77BFC002840F0D7805F
:10AEC00072490320FFF7ACFC002840F0CD8004A9B4
:10AED0000020FFF7B5FD002840F0C380FDF77EFCA1
:10AEE000002840F0BB8001F0E1FD002840F0B38075
:10AEF000002304A90120049301F0B8FE002840F0CB
:10AF0000A78004A801F090FF002840F09E80112344
:10AF10005F488DF8003002F06DF85D4982B26846F6
:10AF2000FFF7C8FD002840F08D800822002104A80A
:10AF300002F038F8574B049304A84FF0C8730593F8
:10AF4000FFF7B6FD00287AD1FFF774FF524B534844
:10AF5000049304A901F0C0FB00286DD10021042254
:10AF6000684602F01FF84E4B4E480093694601F0C8
:10AF7000F1FC00285DD1AC22002104A802F012F8F7
:10AF8000494C4A4A189402214FF4A06001238DF8DD
:10AF90001010ADF81200402444F250654448ADF85A
:10AFA0005C3004A9CDE926458DF88C302D9200F057
:10AFB000C9FD00283AD13E48012100F0BFFD1C2206
:10AFC000002104A801F0EEFF00233A4A0493ADF8F3
:10AFD0001E308DF82030384B4FF420354FF470245C
:10AFE000032104A8CDE90554CDE909238DF81C10EF
:10AFF00000F0D0FFB8B9314801F0DCFF304801F073
:10B00000D9FF2B48032100F019FE48B9FBF78AFA53
:10B010000028FBD1FDF7F8FBF8E7FCF703F940E760
:10B02000FCF700F9F2E7FCF7FDF8E4E7FCF7FAF8C3
:10B03000C1E7FCF7F7F89EE7FCF7F4F88EE7FCF7BA
:10B04000F1F881E7FCF7EEF86FE7FCF7EBF85EE765
:10B05000FCF7E8F855E7FCF7E5F849E7FCF7E2F814
:10B0600041E7FCF7DFF839E7FCF7DCF82FE7FCF7FE
:10B07000D9F825E7FCF7D6F81BE700BF1CEB020068
:10B08000DC370020DC38002089AC020019AC02005B
:10B09000D0EA020010003C0015AB0200D0370020BF
:10B0A00085AD0200C02A0020B82A0020F5AD0200BC
:10B0B00060350020F5AB0200F1AD0200DCEA0200D1
:10B0C000F0EA02002DE9F04FDFF8B09100EB400507
:10B0D00009EBC50583B0EE6A012E07468A46904605
:10B0E0004FEA400407D0022E4FD056B30026304618
:10B0F00003B0BDE8F08FAE6AD5F824B05E457DD9C7
:10B10000013EA6EB0B062D6A464528BF4646A5EB39
:10B110000B0296427ED27B1C03EB430309EBC30375
:10B12000324658685146584401F02EFF274409EB37
:10B13000C70906EB0B023046C9F8242003B0BDE86E
:10B14000F08FAB6AD5F824B05B459CBF2A6A9B1888
:10B15000013BA3EB0B039845C9D8044409EBC40495
:10B160000137256AA5EB0B0607EB4707B04509EB4E
:10B17000C7096FD2D9F804004246584401F004FFD1
:10B1800008EB0B0363624646B1E7013707EB47075D
:10B190006C6AFF000026AB6AA34203F1FF3222D99A
:10B1A000131B2A6A434509EB0701A2EB040B28BFD6
:10B1B00043469B45486828BF9B46204451465A4613
:10B1C00001F0E2FE2B6A5C449C425E44A8EB0B0853
:10B1D000DA440DD06C62B8F1000F88D0AB6AA3429C
:10B1E00003F1FF32DCD82A6A1344013B1B1BD9E769
:10B1F00000246C62B8F1000FCDD178E72D6A2E449F
:10B20000013EA6EB0B06464528BF4646A5EB0B02C2
:10B21000964280D307F1010808EB480809EBC808FB
:10B220005146D8F804000192584401F0ADFE751B58
:10B23000019AD8F804005D440AEB02012A4601F0A5
:10B24000A3FE274409EBC7093046C9F8245003B0D0
:10B25000BDE8F08FD9F804005844C3443246ABEB44
:10B26000050501F091FE0AEB0601D9F804002A4613
:10B2700001F08AFE4646656239E700BFDC3C0020EB
:10B2800038B5114C114B1248E36110254FF400738F
:10B29000104A11492362E06400232565E01D022560
:10B2A000A3626362E362A3656365E365A261A2646E
:10B2B000C4E9045501F096FE0849204601F092FECB
:10B2C0002023A37138BD00BFDC3C0020EC390020F6
:10B2D000DC39002034EB020040EB020044EB0200BA
:10B2E0006DDF704779DF70477DDF704764DF70473F
:10B2F0002DE9F04F87B00746119D00882C880394F4
:10B30000BDF84840DDF840A0CDE90142002858D002
:10B310004FF0000988461E46CB4604E03A880BF100
:10B32000010B93452CDAD8F8002052F82B00059039
:10B3300000220DF1130105A8FFF7D8FF044658BB02
:10B340009DF81320B242E9D1B9F1000F28D02A8824
:10B35000019B9119994239DC52440DF1130105A862
:10B360004FF00109FFF7C2FF002834D129889DF86A
:10B3700013200A442A803A880BF1010B9345D2DB53
:10B38000B9F1000F1DD02B88039A013B9B1A9BB289
:10B39000FF2B1BD80AF80230204607B0BDE8F08F1B
:10B3A0002A88019B511C324402329A4289B20DDC38
:10B3B000029B29800AF801302A88013292B22A8041
:10B3C000CAE70024204607B0BDE8F08F0C242046D1
:10B3D00007B0BDE8F08F0446204607B0BDE8F08F07
:10B3E0002DE9F04700231788138090F82D3088B09E
:10B3F000144605460E46002B40F00081AA78002A2C
:10B4000040F0F580E978A1B1DA1CBA4200F2F2808E
:10B410000222F254238801339BB201222380F2548A
:10B42000238813449BB22380F154238813449BB296
:10B4300023806A68AAB1D91CB94200F2DB800221DC
:10B4400092F90020F154238801339BB20A21238012
:10B45000F154238801339BB22380F25423880133B3
:10B4600023802B89002B40F0F3802B8A002B40F0A7
:10B470002B812B8B002B40F046812B6A002B44D074
:10B480002088821DBA4200F2B5801A88052A40F24F
:10B4900099816FF4486802EB080189B24FF27D3C54
:10B4A000614540F28F815988052940F28B816FF404
:10B4B000486E8E441FFA8EFEE64540F283814FF6B9
:10B4C000FF7C624504D0614502D08A4200F27A8155
:10B4D000052232542288013292B212212280B154C4
:10B4E0002288013292B222801988B1543244090A6A
:10B4F00051702288023292B222805B88B354324467
:10B500001B0A53702388023323806B6A002B2FD0D1
:10B510009988B4F800C0881C0CF102020244BA42B7
:10B5200068D8FE2866D8033106F80C10228801324C
:10B5300092B2FF212280B1542288013292B222803D
:10B540001988B1543244090A51702088023080B2FF
:10B5500020809A8862B199680593002900F03281B1
:10B56000304401F011FD059B9A8823881344238001
:10B5700095F82C30002B40F0E380287800283AD052
:10B580002B88012B00F01E8123889A1CBA4231D8E7
:10B59000012804D16978023119448F422AD3023F2D
:10B5A000FF1ABFB2B01806A9ADF81870FFF79CFEDD
:10B5B00008BB2B78022B00F00D816978BDF81820AC
:10B5C0009142C0F003819742C0F0008117460922E2
:10B5D000FE2F0FD82388791CF154238801339BB2A6
:10B5E0002380F254238801331F44278003E004336F
:10B5F000BB424CD90C2008B0BDE8F087082FF9D920
:10B6000006A8FFF76DFE0028F5D123880822F25422
:10B61000238801339BB21B222380F25420880130FF
:10B6200080B22080062230440DF1190101F0ACFCFB
:10B6300023889DF8182006339BB212F0FE0218BF33
:10B6400001222380F254238801339BB22380D5E664
:10B6500005F10808022305F10C01CDE90147009628
:10B6600040461A460591FFF743FE0028C3D1CDE9B5
:10B67000014705990096404610230622FFF738FE41
:10B680000028B8D12B8A002B3FF4F3AE1CE006A8AB
:10B69000FFF728FE0028AED12388BDF8182003212B
:10B6A000F154238801339BB219212380F15423885C
:10B6B00001339BB2F1182380F254130A4B70238894
:10B6C00002339BB223809DE605F1100805F11401B9
:10B6D000CDE9014700964046022303220591FFF77A
:10B6E00007FE002887D1CDE901470599009640461D
:10B6F00010230722FFF7FCFD00287FF47CAF2B8B83
:10B70000002B3FF4BAAE05F1180805F11C01CDE994
:10B71000014700964046022314220591FFF7E8FDF9
:10B7200000287FF468AFCDE90147059900964046AF
:10B7300010231522FFF7DCFD00283FF49EAE5AE7E8
:10B74000A96A00293ED04FF000094B464FF0160A77
:10B750002BE02388F054238801339BB2238006F822
:10B7600003A0238801339BB2238031F82220F254B6
:10B770003344120A5A702088023080B22080B8F810
:10B78000042030444AB1D8F80810D9B101F0FCFBCC
:10B79000B8F8042023881344238095F82C205FFAFE
:10B7A00089F39A427FF6E9AEA96A03EB430201EB03
:10B7B000820809F10109B8F80430D81C0233FE2BC5
:10B7C000C7D917E7072008B0BDE8F087012B08D0DC
:10B7D0000822FDE6BDF818309F42F9D31F46092222
:10B7E000F6E68F42F4D30F460822F1E6F8B130B402
:10B7F000437893421CD0B9B10024234601E099421A
:10B8000012D9045D013423449BB2C5181C466D78DF
:10B810009542F4D1994207D9015D9A1C012993B24E
:10B8200002D0184430BC7047002030BC70477047CD
:10B8300000242346EEE700BF72DF704773DF7047D6
:10B8400074DF704770B5044600F24A2681700D46D9
:10B8500030460722002101F0A5FBE38813B1A3784D
:10B86000012B75D0E379002B6FD194F84B32002B6C
:10B8700078D194F84C32002B74D194F84D32002BCF
:10B8800070D194F84E32002B6CD194F84F32002BCB
:10B8900068D194F850321A1E18BF01226B1E032B78
:10B8A00000F24981DFE803F002060B0EA379002BBA
:10B8B00040F0F780E37913B1002A40F03581237A14
:10B8C000002B65D1657A002D4ED1A570002384F838
:10B8D000533204F13C0518220021284601F062FB96
:10B8E000E36A0122591E914284F83C2016D9042BA8
:10B8F00014D094F8243084F85120C3B184F8522035
:10B90000A378002284F85020042B00F20181DFE8A4
:10B9100013F041004B00E1009900E60094F8242068
:10B9200084F851301AB1A36A84F85230E8E7A3785A
:10B93000002284F85020042B00F2EA80DFE813F0A4
:10B940002A003400BA00D8005300A378022B8CD10F
:10B95000636B002B00F0E580012284F8512208205F
:10B96000984782E7012299E70422636BA270002BBB
:10B97000ACD06279002AA9D094F85222002AA5D12D
:10B98000012184F8542284F8531207209847A0E735
:10B990000322EAE7002384F83130636B13B194F893
:10B9A00031009847002070BD002301200221802231
:10B9B000266484F83100C4F84432636484F83C108F
:10B9C000A4F8482000212A4604F15400FFF734FF70
:10B9D0000028E8D194F8301094F85400FFF72EFFB7
:10B9E0000028DAD070BDD4E907126164A4F84820B9
:10B9F0006279002A00F08F8094F85222002A40F0E9
:10BA00008A8094F85422002A00F085800223B4F83A
:10BA10003812D4F8340284F850300122FFF7E6FEE1
:10BA200008B10423037004F50D7631462A4604F16B
:10BA30005400FFF701FF002878D10622A37884F88C
:10BA4000312060E0D4E9052162640622A4F84810A0
:10BA500084F83C206279002A50D094F85222002ABF
:10BA60004CD194F85422002A48D00223B4F838125A
:10BA7000D4F8340284F850300122FFF7B7FE08B141
:10BA80000423037004F50D7631462A4604F1540070
:10BA9000FFF7D2FE002849D10522A37884F831208F
:10BAA00031E094F82430002B7FF404AF002A3FF4F7
:10BAB00006AF0AE7022384F831300323D4E90321D7
:10BAC00084F83C3000232664A4F84810C4F84432BB
:10BAD000626477E7022384F831300723EEE7D4E984
